{
  "contractName": "JobFactory",
  "abi": [
    {
      "inputs": [
        {
          "internalType": "contract IERC20",
          "name": "_token",
          "type": "address"
        },
        {
          "internalType": "address",
          "name": "auctionAddress",
          "type": "address"
        }
      ],
      "stateMutability": "nonpayable",
      "type": "constructor"
    },
    {
      "anonymous": false,
      "inputs": [
        {
          "indexed": false,
          "internalType": "address",
          "name": "jobPoster",
          "type": "address"
        },
        {
          "indexed": false,
          "internalType": "uint256",
          "name": "id",
          "type": "uint256"
        },
        {
          "indexed": false,
          "internalType": "address",
          "name": "workerNode",
          "type": "address"
        }
      ],
      "name": "JobApproved",
      "type": "event"
    },
    {
      "anonymous": false,
      "inputs": [
        {
          "indexed": false,
          "internalType": "address",
          "name": "jobPoster",
          "type": "address"
        },
        {
          "indexed": false,
          "internalType": "uint256",
          "name": "id",
          "type": "uint256"
        },
        {
          "indexed": false,
          "internalType": "address",
          "name": "auctionAddress",
          "type": "address"
        },
        {
          "indexed": false,
          "internalType": "uint16",
          "name": "estimatedTrainingTime",
          "type": "uint16"
        },
        {
          "indexed": false,
          "internalType": "uint32",
          "name": "trainingDatasetSize",
          "type": "uint32"
        },
        {
          "indexed": false,
          "internalType": "uint256",
          "name": "workerReward",
          "type": "uint256"
        }
      ],
      "name": "JobDescriptionPosted",
      "type": "event"
    },
    {
      "anonymous": false,
      "inputs": [
        {
          "indexed": false,
          "internalType": "address",
          "name": "jobPoster",
          "type": "address"
        },
        {
          "indexed": false,
          "internalType": "uint256",
          "name": "id",
          "type": "uint256"
        },
        {
          "indexed": false,
          "internalType": "address",
          "name": "workerNode",
          "type": "address"
        },
        {
          "indexed": false,
          "internalType": "bytes32",
          "name": "trainedModelMagnetLink",
          "type": "bytes32"
        },
        {
          "indexed": false,
          "internalType": "uint64",
          "name": "trainingErrorRate",
          "type": "uint64"
        }
      ],
      "name": "TrainedModelShared",
      "type": "event"
    },
    {
      "anonymous": false,
      "inputs": [
        {
          "indexed": false,
          "internalType": "address",
          "name": "jobPoster",
          "type": "address"
        },
        {
          "indexed": false,
          "internalType": "uint256",
          "name": "id",
          "type": "uint256"
        },
        {
          "indexed": false,
          "internalType": "address",
          "name": "workerNode",
          "type": "address"
        },
        {
          "indexed": false,
          "internalType": "bytes32",
          "name": "untrainedModelMagnetLink",
          "type": "bytes32"
        },
        {
          "indexed": false,
          "internalType": "bytes32",
          "name": "trainingDatasetMagnetLink",
          "type": "bytes32"
        },
        {
          "indexed": false,
          "internalType": "uint64",
          "name": "targetErrorRate",
          "type": "uint64"
        }
      ],
      "name": "UntrainedModelAndTrainingDatasetShared",
      "type": "event"
    },
    {
      "inputs": [
        {
          "internalType": "address",
          "name": "",
          "type": "address"
        },
        {
          "internalType": "uint256",
          "name": "",
          "type": "uint256"
        }
      ],
      "name": "jobs",
      "outputs": [
        {
          "internalType": "uint256",
          "name": "auctionId",
          "type": "uint256"
        },
        {
          "internalType": "enum JobFactory.Status",
          "name": "status",
          "type": "uint8"
        },
        {
          "internalType": "uint64",
          "name": "targetErrorRate",
          "type": "uint64"
        },
        {
          "internalType": "address",
          "name": "workerNode",
          "type": "address"
        }
      ],
      "stateMutability": "view",
      "type": "function",
      "constant": true
    },
    {
      "inputs": [],
      "name": "token",
      "outputs": [
        {
          "internalType": "contract IERC20",
          "name": "",
          "type": "address"
        }
      ],
      "stateMutability": "view",
      "type": "function",
      "constant": true
    },
    {
      "inputs": [
        {
          "internalType": "uint16",
          "name": "_estimatedTrainingTime",
          "type": "uint16"
        },
        {
          "internalType": "uint32",
          "name": "_trainingDatasetSize",
          "type": "uint32"
        },
        {
          "internalType": "uint64",
          "name": "_targetErrorRate",
          "type": "uint64"
        },
        {
          "internalType": "uint256",
          "name": "_minimumPayout",
          "type": "uint256"
        },
        {
          "internalType": "uint256",
          "name": "_biddingTimeSpan",
          "type": "uint256"
        },
        {
          "internalType": "uint256",
          "name": "_revealTimeSpan",
          "type": "uint256"
        },
        {
          "internalType": "uint256",
          "name": "_workerReward",
          "type": "uint256"
        }
      ],
      "name": "postJobDescription",
      "outputs": [],
      "stateMutability": "nonpayable",
      "type": "function"
    },
    {
      "inputs": [
        {
          "internalType": "uint256",
          "name": "_id",
          "type": "uint256"
        },
        {
          "internalType": "bytes32",
          "name": "_untrainedModelMagnetLink",
          "type": "bytes32"
        },
        {
          "internalType": "bytes32",
          "name": "_trainingDatasetMagnetLink",
          "type": "bytes32"
        }
      ],
      "name": "shareUntrainedModelAndTrainingDataset",
      "outputs": [],
      "stateMutability": "nonpayable",
      "type": "function"
    },
    {
      "inputs": [
        {
          "internalType": "address",
          "name": "_jobPoster",
          "type": "address"
        },
        {
          "internalType": "uint256",
          "name": "_id",
          "type": "uint256"
        },
        {
          "internalType": "bytes32",
          "name": "_trainedModelMagnetLink",
          "type": "bytes32"
        },
        {
          "internalType": "uint64",
          "name": "_trainingErrorRate",
          "type": "uint64"
        }
      ],
      "name": "shareTrainedModel",
      "outputs": [],
      "stateMutability": "nonpayable",
      "type": "function"
    },
    {
      "inputs": [
        {
          "internalType": "address",
          "name": "_jobPoster",
          "type": "address"
        },
        {
          "internalType": "uint256",
          "name": "_id",
          "type": "uint256"
        }
      ],
      "name": "approveJob",
      "outputs": [],
      "stateMutability": "nonpayable",
      "type": "function"
    }
  ],
  "bytecode": "0x60806040523480156200001157600080fd5b5060405162001b8038038062001b808339818101604052810190620000379190620000ee565b81600260006101000a81548173ffffffffffffffffffffffffffffffffffffffff021916908373ffffffffffffffffffffffffffffffffffffffff160217905550806000806101000a81548173ffffffffffffffffffffffffffffffffffffffff021916908373ffffffffffffffffffffffffffffffffffffffff1602179055505050620001ab565b600081519050620000d18162000177565b92915050565b600081519050620000e88162000191565b92915050565b600080604083850312156200010257600080fd5b60006200011285828601620000d7565b92505060206200012585828601620000c0565b9150509250929050565b60006200013c8262000157565b9050919050565b600062000150826200012f565b9050919050565b600073ffffffffffffffffffffffffffffffffffffffff82169050919050565b62000182816200012f565b81146200018e57600080fd5b50565b6200019c8162000143565b8114620001a857600080fd5b50565b6119c580620001bb6000396000f3fe608060405234801561001057600080fd5b50600436106100625760003560e01c8063129030ab1461006757806356d20469146100835780636f82f8fd1461009f578063ec1da1b2146100d2578063f60a1f0a146100ee578063fc0c546a1461010a575b600080fd5b610081600480360381019061007c9190611253565b610128565b005b61009d60048036038101906100989190611217565b610595565b005b6100b960048036038101906100b49190611217565b61089b565b6040516100c9949392919061168e565b60405180910390f35b6100ec60048036038101906100e79190611354565b610929565b005b610108600480360381019061010391906112b6565b610e35565b005b610112611135565b60405161011f91906115f3565b60405180910390f35b600160008573ffffffffffffffffffffffffffffffffffffffff1673ffffffffffffffffffffffffffffffffffffffff168152602001908152602001600020838154811061019f577f4e487b7100000000000000000000000000000000000000000000000000000000600052603260045260246000fd5b906000526020600020906002020160010160099054906101000a900473ffffffffffffffffffffffffffffffffffffffff1673ffffffffffffffffffffffffffffffffffffffff163373ffffffffffffffffffffffffffffffffffffffff161461023e576040517f08c379a00000000000000000000000000000000000000000000000000000000081526004016102359061164e565b60405180910390fd5b60006003811115610278577f4e487b7100000000000000000000000000000000000000000000000000000000600052602160045260246000fd5b600160008673ffffffffffffffffffffffffffffffffffffffff1673ffffffffffffffffffffffffffffffffffffffff16815260200190815260200160002084815481106102ef577f4e487b7100000000000000000000000000000000000000000000000000000000600052603260045260246000fd5b906000526020600020906002020160010160009054906101000a900460ff166003811115610346577f4e487b7100000000000000000000000000000000000000000000000000000000600052602160045260246000fd5b14610386576040517f08c379a000000000000000000000000000000000000000000000000000000000815260040161037d9061162e565b60405180910390fd5b8067ffffffffffffffff16600160008673ffffffffffffffffffffffffffffffffffffffff1673ffffffffffffffffffffffffffffffffffffffff1681526020019081526020016000208481548110610408577f4e487b7100000000000000000000000000000000000000000000000000000000600052603260045260246000fd5b906000526020600020906002020160010160019054906101000a900467ffffffffffffffff1667ffffffffffffffff161015610479576040517f08c379a00000000000000000000000000000000000000000000000000000000081526004016104709061166e565b60405180910390fd5b6002600160008673ffffffffffffffffffffffffffffffffffffffff1673ffffffffffffffffffffffffffffffffffffffff16815260200190815260200160002084815481106104f2577f4e487b7100000000000000000000000000000000000000000000000000000000600052603260045260246000fd5b906000526020600020906002020160010160006101000a81548160ff0219169083600381111561054b577f4e487b7100000000000000000000000000000000000000000000000000000000600052602160045260246000fd5b02179055507ffc85034aaca95bf1e66e5196e4207d125718861f17f25768ec9c93ed0d5dd778848433858560405161058795949392919061153f565b60405180910390a150505050565b600260038111156105cf577f4e487b7100000000000000000000000000000000000000000000000000000000600052602160045260246000fd5b600160008473ffffffffffffffffffffffffffffffffffffffff1673ffffffffffffffffffffffffffffffffffffffff1681526020019081526020016000208281548110610646577f4e487b7100000000000000000000000000000000000000000000000000000000600052603260045260246000fd5b906000526020600020906002020160010160009054906101000a900460ff16600381111561069d577f4e487b7100000000000000000000000000000000000000000000000000000000600052602160045260246000fd5b146106dd576040517f08c379a00000000000000000000000000000000000000000000000000000000081526004016106d49061162e565b60405180910390fd5b6003600160003373ffffffffffffffffffffffffffffffffffffffff1673ffffffffffffffffffffffffffffffffffffffff1681526020019081526020016000208281548110610756577f4e487b7100000000000000000000000000000000000000000000000000000000600052603260045260246000fd5b906000526020600020906002020160010160006101000a81548160ff021916908360038111156107af577f4e487b7100000000000000000000000000000000000000000000000000000000600052602160045260246000fd5b02179055507f80431d9ed72001506a2c2ea677fdfa4f506f938484c0c0c853c628ad49bcaa753382600160008673ffffffffffffffffffffffffffffffffffffffff1673ffffffffffffffffffffffffffffffffffffffff168152602001908152602001600020848154811061084e577f4e487b7100000000000000000000000000000000000000000000000000000000600052603260045260246000fd5b906000526020600020906002020160010160099054906101000a900473ffffffffffffffffffffffffffffffffffffffff1660405161088f939291906114a7565b60405180910390a15050565b600160205281600052604060002081815481106108b757600080fd5b9060005260206000209060020201600091509150508060000154908060010160009054906101000a900460ff16908060010160019054906101000a900467ffffffffffffffff16908060010160099054906101000a900473ffffffffffffffffffffffffffffffffffffffff16905084565b60006003811115610963577f4e487b7100000000000000000000000000000000000000000000000000000000600052602160045260246000fd5b600160003373ffffffffffffffffffffffffffffffffffffffff1673ffffffffffffffffffffffffffffffffffffffff16815260200190815260200160002084815481106109da577f4e487b7100000000000000000000000000000000000000000000000000000000600052603260045260246000fd5b906000526020600020906002020160010160009054906101000a900460ff166003811115610a31577f4e487b7100000000000000000000000000000000000000000000000000000000600052602160045260246000fd5b14610a71576040517f08c379a0000000000000000000000000000000000000000000000000000000008152600401610a689061160e565b60405180910390fd5b60018060003373ffffffffffffffffffffffffffffffffffffffff1673ffffffffffffffffffffffffffffffffffffffff1681526020019081526020016000208481548110610ae9577f4e487b7100000000000000000000000000000000000000000000000000000000600052603260045260246000fd5b906000526020600020906002020160010160006101000a81548160ff02191690836003811115610b42577f4e487b7100000000000000000000000000000000000000000000000000000000600052602160045260246000fd5b021790555060008054906101000a900473ffffffffffffffffffffffffffffffffffffffff1673ffffffffffffffffffffffffffffffffffffffff166391f901576040518163ffffffff1660e01b815260040160206040518083038186803b158015610bad57600080fd5b505afa158015610bc1573d6000803e3d6000fd5b505050506040513d601f19601f82011682018060405250810190610be591906111ee565b600160003373ffffffffffffffffffffffffffffffffffffffff1673ffffffffffffffffffffffffffffffffffffffff1681526020019081526020016000208481548110610c5c577f4e487b7100000000000000000000000000000000000000000000000000000000600052603260045260246000fd5b906000526020600020906002020160010160096101000a81548173ffffffffffffffffffffffffffffffffffffffff021916908373ffffffffffffffffffffffffffffffffffffffff1602179055507fecc4e58625c62af43abed593579246bf8644a151ada30477219c6394e76d54623384600160003373ffffffffffffffffffffffffffffffffffffffff1673ffffffffffffffffffffffffffffffffffffffff1681526020019081526020016000208681548110610d45577f4e487b7100000000000000000000000000000000000000000000000000000000600052603260045260246000fd5b906000526020600020906002020160010160099054906101000a900473ffffffffffffffffffffffffffffffffffffffff168585600160003373ffffffffffffffffffffffffffffffffffffffff1673ffffffffffffffffffffffffffffffffffffffff1681526020019081526020016000208981548110610df0577f4e487b7100000000000000000000000000000000000000000000000000000000600052603260045260246000fd5b906000526020600020906002020160010160019054906101000a900467ffffffffffffffff16604051610e28969594939291906114de565b60405180910390a1505050565b6000600160003373ffffffffffffffffffffffffffffffffffffffff1673ffffffffffffffffffffffffffffffffffffffff16815260200190815260200160002080549050905060008054906101000a900473ffffffffffffffffffffffffffffffffffffffff1673ffffffffffffffffffffffffffffffffffffffff1663c56114c686868686336040518663ffffffff1660e01b8152600401610edd9594939291906116d3565b600060405180830381600087803b158015610ef757600080fd5b505af1158015610f0b573d6000803e3d6000fd5b50505050600160003373ffffffffffffffffffffffffffffffffffffffff1673ffffffffffffffffffffffffffffffffffffffff168152602001908152602001600020604051806080016040528083815260200160006003811115610f99577f4e487b7100000000000000000000000000000000000000000000000000000000600052602160045260246000fd5b81526020018867ffffffffffffffff168152602001600073ffffffffffffffffffffffffffffffffffffffff1681525090806001815401808255809150506001900390600052602060002090600202016000909190919091506000820151816000015560208201518160010160006101000a81548160ff0219169083600381111561104d577f4e487b7100000000000000000000000000000000000000000000000000000000600052602160045260246000fd5b021790555060408201518160010160016101000a81548167ffffffffffffffff021916908367ffffffffffffffff16021790555060608201518160010160096101000a81548173ffffffffffffffffffffffffffffffffffffffff021916908373ffffffffffffffffffffffffffffffffffffffff16021790555050507fae09da6872dd859d565dfd4737e8bf864ac564cdc3d9b4ef1b20db7c2fa6868b338260008054906101000a900473ffffffffffffffffffffffffffffffffffffffff168b8b8760405161112396959493929190611592565b60405180910390a15050505050505050565b600260009054906101000a900473ffffffffffffffffffffffffffffffffffffffff1681565b60008135905061116a81611905565b92915050565b60008151905061117f81611905565b92915050565b6000813590506111948161191c565b92915050565b6000813590506111a981611933565b92915050565b6000813590506111be8161194a565b92915050565b6000813590506111d381611961565b92915050565b6000813590506111e881611978565b92915050565b60006020828403121561120057600080fd5b600061120e84828501611170565b91505092915050565b6000806040838503121561122a57600080fd5b60006112388582860161115b565b9250506020611249858286016111af565b9150509250929050565b6000806000806080858703121561126957600080fd5b60006112778782880161115b565b9450506020611288878288016111af565b935050604061129987828801611185565b92505060606112aa878288016111d9565b91505092959194509250565b600080600080600080600060e0888a0312156112d157600080fd5b60006112df8a828b0161119a565b97505060206112f08a828b016111c4565b96505060406113018a828b016111d9565b95505060606113128a828b016111af565b94505060806113238a828b016111af565b93505060a06113348a828b016111af565b92505060c06113458a828b016111af565b91505092959891949750929550565b60008060006060848603121561136957600080fd5b6000611377868287016111af565b935050602061138886828701611185565b925050604061139986828701611185565b9150509250925092565b6113ac81611737565b82525050565b6113bb81611749565b82525050565b6113ca816117c2565b82525050565b6113d9816117e6565b82525050565b60006113ec601783611726565b91506113f782611827565b602082019050919050565b600061140f601883611726565b915061141a82611850565b602082019050919050565b6000611432602083611726565b915061143d82611879565b602082019050919050565b6000611455603e83611726565b9150611460826118a2565b604082019050919050565b61147481611766565b82525050565b61148381611794565b82525050565b6114928161179e565b82525050565b6114a1816117ae565b82525050565b60006060820190506114bc60008301866113a3565b6114c9602083018561147a565b6114d660408301846113a3565b949350505050565b600060c0820190506114f360008301896113a3565b611500602083018861147a565b61150d60408301876113a3565b61151a60608301866113b2565b61152760808301856113b2565b61153460a0830184611498565b979650505050505050565b600060a08201905061155460008301886113a3565b611561602083018761147a565b61156e60408301866113a3565b61157b60608301856113b2565b6115886080830184611498565b9695505050505050565b600060c0820190506115a760008301896113a3565b6115b4602083018861147a565b6115c160408301876113a3565b6115ce606083018661146b565b6115db6080830185611489565b6115e860a083018461147a565b979650505050505050565b600060208201905061160860008301846113c1565b92915050565b60006020820190508181036000830152611627816113df565b9050919050565b6000602082019050818103600083015261164781611402565b9050919050565b6000602082019050818103600083015261166781611425565b9050919050565b6000602082019050818103600083015261168781611448565b9050919050565b60006080820190506116a3600083018761147a565b6116b060208301866113d0565b6116bd6040830185611498565b6116ca60608301846113a3565b95945050505050565b600060a0820190506116e8600083018861147a565b6116f5602083018761147a565b611702604083018661147a565b61170f606083018561147a565b61171c60808301846113a3565b9695505050505050565b600082825260208201905092915050565b600061174282611774565b9050919050565b6000819050919050565b6000819050611761826118f1565b919050565b600061ffff82169050919050565b600073ffffffffffffffffffffffffffffffffffffffff82169050919050565b6000819050919050565b600063ffffffff82169050919050565b600067ffffffffffffffff82169050919050565b60006117cd826117d4565b9050919050565b60006117df82611774565b9050919050565b60006117f182611753565b9050919050565b7f4e487b7100000000000000000000000000000000000000000000000000000000600052602160045260246000fd5b7f4a6f6220686173206e6f74206265656e20706f73746564000000000000000000600082015250565b7f4a6f6220686173206e6f74206265656e20737461727465640000000000000000600082015250565b7f6d73672e73656e646572206d75737420657175616c20776f726b65724e6f6465600082015250565b7f7461726765744572726f7252617465206d75737420626520677265617465722060008201527f6f7220657175616c20746f205f747261696e696e674572726f72526174650000602082015250565b60048110611902576119016117f8565b5b50565b61190e81611737565b811461191957600080fd5b50565b61192581611749565b811461193057600080fd5b50565b61193c81611766565b811461194757600080fd5b50565b61195381611794565b811461195e57600080fd5b50565b61196a8161179e565b811461197557600080fd5b50565b611981816117ae565b811461198c57600080fd5b5056fea2646970667358221220c58a86d457755329ca9d0e8e4bfaba773e2d6eb1be3106905759e76838f4a7ba64736f6c63430008040033",
  "immutableReferences": {},
  "source": "// SPDX-License-Identifier: GPL-3.0\npragma solidity 0.8.4;\n\nimport './IERC20.sol';\nimport './VickreyAuction.sol';\n\n///@dev This implementation describes the following scenario,\n///     for demonstration purposes:\n//\n///          `_jobPoster` --> `workerNode`\n///          `_jobPoster` <-- `workerNode`\n//\n///      There are no `reviewerNodes`, in this use-case\n\n///////////////////////////////////////////////////////////////////////////////\n// Notes for elsewhere\n\n/*\n    Early stopping    - Vickrey Auction, using the SimpleAuction contract?\n    Active monitoring - Micropayment channel?\n*/\n\n/* \n    `rewardSchedule` is currently thought to be either a:\n    - Continuous Reward (TBA: worker is rewarded essentially for descending the gradient)\n    - Variable Reward (Early Stopping; kind-of a Boolean pay-off structure: as workers will\n        only be rewarded if they have reached a threshold-level of accuracy)\n    - Fixed Interval Reward (Active Monitoring)\n    - Fixed Ratio Reward (for validators(?); as they will verify a certain number of models\n        over a period of time: even if the selection process for them is pseudo-random?)\n    ...encoded as a `string` or a series of `bytes`\n*/\n\n/* \n    Implement a form of a reputation score that basically updates how off \n    a given `endUser`'s estimation is of their workload's training time \n*/\n///////////////////////////////////////////////////////////////////////////////\n\ncontract JobFactory {\n\n    VickreyAuction vickreyAuction;\n\n    event JobDescriptionPosted(\n        address jobPoster,\n        uint id,\n        address auctionAddress,\n        uint16 estimatedTrainingTime,\n        uint32 trainingDatasetSize,\n        uint workerReward\n    );\n\n    event UntrainedModelAndTrainingDatasetShared(\n        address jobPoster,\n        uint id,\n        address workerNode,\n        bytes32 untrainedModelMagnetLink,\n        bytes32 trainingDatasetMagnetLink,\n        uint64 targetErrorRate\n    );\n\n    event TrainedModelShared(\n        address jobPoster,\n        uint id,\n        address workerNode,\n        bytes32 trainedModelMagnetLink,\n        uint64 trainingErrorRate\n    );\n\n    event JobApproved(\n        address jobPoster,\n        uint id,\n        address workerNode\n    );\n\n    enum Status {\n        PostedJobDescription,\n        SharedUntrainedModelAndTrainingDataset,\n        SharedTrainedModel,\n        ApprovedJob\n    }\n\n    // TODO Struct packing\n    struct Job {\n        uint auctionId;\n        Status status;\n        uint64 targetErrorRate;\n        address workerNode;\n    }\n\n    mapping (address => Job[]) public jobs;\n\n    IERC20 public token;\n\n    constructor(\n        IERC20 _token,\n        address auctionAddress\n    ) {\n        token = _token;\n        vickreyAuction = VickreyAuction(auctionAddress);\n    }\n\n    /// @dev This is being called by `_jobPoster`\n    //\n    /// @notice `address(0)` is being passed to `Job` as a placeholder\n    function postJobDescription(\n        uint16 _estimatedTrainingTime,\n        uint32 _trainingDatasetSize,\n        uint64 _targetErrorRate,\n        uint _minimumPayout,\n        uint _biddingTimeSpan,\n        uint _revealTimeSpan,\n        uint _workerReward\n    ) public {\n        // FIXME\n        uint jobId;\n        /* if (jobs[msg.sender].auctionId != 0) {\n            jobId = jobs[msg.sender].length - 1;\n        } else {\n            jobId = 0;\n        } */\n        jobId = jobs[msg.sender].length;\n        vickreyAuction.start(\n            _minimumPayout,\n            _biddingTimeSpan,\n            _revealTimeSpan,\n            _workerReward,\n            msg.sender);\n        jobs[msg.sender].push(Job(\n            jobId,\n            Status.PostedJobDescription,\n            _targetErrorRate,\n            address(0)));\n        emit JobDescriptionPosted(\n            msg.sender,\n            jobId,\n            address(vickreyAuction),\n            _estimatedTrainingTime,\n            _trainingDatasetSize,\n            _workerReward);\n    }\n\n    /// @dev This is being called by `_jobPoster`\n    //\n    /// @notice The untrained model and the training dataset have been encrypted\n    ///         with the `workerNode` public key and `_jobPoster` private key\n    function shareUntrainedModelAndTrainingDataset(\n        uint _id,\n        bytes32 _untrainedModelMagnetLink,\n        bytes32 _trainingDatasetMagnetLink\n    ) public {\n        // FIXME require(vickreyAuction.ended(),'Auction has not ended');\n        require(jobs[msg.sender][_id].status == Status.PostedJobDescription,'Job has not been posted');\n        jobs[msg.sender][_id].status = Status.SharedUntrainedModelAndTrainingDataset;\n        jobs[msg.sender][_id].workerNode = vickreyAuction.highestBidder();\n        emit UntrainedModelAndTrainingDatasetShared(\n            msg.sender,\n            _id,\n            jobs[msg.sender][_id].workerNode,\n            _untrainedModelMagnetLink,\n            _trainingDatasetMagnetLink,\n            jobs[msg.sender][_id].targetErrorRate\n        );\n    }\n\n    /// @dev This is being called by `workerNode`\n    //\n    /// @notice The trained model has been encrypted with the `_jobPoster`s\n    ///         public key and `workerNode` private key\n    function shareTrainedModel(\n        address _jobPoster,\n        uint _id,\n        bytes32 _trainedModelMagnetLink,\n        uint64 _trainingErrorRate\n    ) public {\n        require(msg.sender == jobs[_jobPoster][_id].workerNode,'msg.sender must equal workerNode');\n        require(jobs[_jobPoster][_id].status == Status.PostedJobDescription,'Job has not been started');\n        require(jobs[_jobPoster][_id].targetErrorRate >= _trainingErrorRate,'targetErrorRate must be greater or equal to _trainingErrorRate');\n        jobs[_jobPoster][_id].status = Status.SharedTrainedModel;\n        emit TrainedModelShared(\n            _jobPoster,\n            _id,\n            msg.sender,\n            _trainedModelMagnetLink,\n            _trainingErrorRate\n        );\n\n    }\n\n    /// @dev This is being called by `_jobPoster`\n    function approveJob(\n        address _jobPoster,\n        uint _id\n    ) public {\n        require(jobs[_jobPoster][_id].status == Status.SharedTrainedModel,'Job has not been started');\n        jobs[msg.sender][_id].status = Status.ApprovedJob;\n        // FIXME\n        //vickreyAuction.payout();\n        emit JobApproved(\n            msg.sender,\n            _id,\n            jobs[_jobPoster][_id].workerNode\n        );\n    }\n}\n",
  "sourcePath": "/home/wsladmin/Morphware/learn/contracts/JobFactory.sol",
  "compiler": {
    "name": "solc",
    "version": "0.8.4+commit.c7e474f2.Emscripten.clang"
  },
  "schemaVersion": "3.4.1",
  "updatedAt": "2021-06-07T18:50:47.878Z",
  "networkType": "ethereum",
  "devdoc": {
    "kind": "dev",
    "methods": {
      "approveJob(address,uint256)": {
        "details": "This is being called by `_jobPoster`"
      }
    },
    "version": 1
  },
  "userdoc": {
    "kind": "user",
    "methods": {
      "postJobDescription(uint16,uint32,uint64,uint256,uint256,uint256,uint256)": {
        "notice": "`address(0)` is being passed to `Job` as a placeholder"
      },
      "shareTrainedModel(address,uint256,bytes32,uint64)": {
        "notice": "The trained model has been encrypted with the `_jobPoster`s         public key and `workerNode` private key"
      },
      "shareUntrainedModelAndTrainingDataset(uint256,bytes32,bytes32)": {
        "notice": "The untrained model and the training dataset have been encrypted         with the `workerNode` public key and `_jobPoster` private key"
      }
    },
    "notice": "There are no `reviewerNodes`, in this use-case",
    "version": 1
  }
}