{
  "contractName": "JobFactory",
  "abi": [
    {
      "inputs": [
        {
          "internalType": "contract IERC20",
          "name": "_token",
          "type": "address"
        },
        {
          "internalType": "address",
          "name": "auctionAddress",
          "type": "address"
        }
      ],
      "stateMutability": "nonpayable",
      "type": "constructor"
    },
    {
      "anonymous": false,
      "inputs": [
        {
          "indexed": true,
          "internalType": "address",
          "name": "jobPoster",
          "type": "address"
        },
        {
          "indexed": true,
          "internalType": "uint256",
          "name": "id",
          "type": "uint256"
        },
        {
          "indexed": true,
          "internalType": "address",
          "name": "workerNode",
          "type": "address"
        }
      ],
      "name": "JobApproved",
      "type": "event"
    },
    {
      "anonymous": false,
      "inputs": [
        {
          "indexed": false,
          "internalType": "address",
          "name": "jobPoster",
          "type": "address"
        },
        {
          "indexed": false,
          "internalType": "uint256",
          "name": "id",
          "type": "uint256"
        },
        {
          "indexed": false,
          "internalType": "address",
          "name": "auctionAddress",
          "type": "address"
        },
        {
          "indexed": false,
          "internalType": "uint16",
          "name": "estimatedTrainingTime",
          "type": "uint16"
        },
        {
          "indexed": false,
          "internalType": "uint32",
          "name": "trainingDatasetSize",
          "type": "uint32"
        },
        {
          "indexed": false,
          "internalType": "uint256",
          "name": "workerReward",
          "type": "uint256"
        }
      ],
      "name": "JobDescriptionPosted",
      "type": "event"
    },
    {
      "anonymous": false,
      "inputs": [
        {
          "indexed": true,
          "internalType": "address",
          "name": "jobPoster",
          "type": "address"
        },
        {
          "indexed": true,
          "internalType": "uint256",
          "name": "id",
          "type": "uint256"
        },
        {
          "indexed": true,
          "internalType": "address",
          "name": "workerNode",
          "type": "address"
        },
        {
          "indexed": false,
          "internalType": "bytes32",
          "name": "trainedModelMagnetLink",
          "type": "bytes32"
        },
        {
          "indexed": false,
          "internalType": "uint64",
          "name": "trainingErrorRate",
          "type": "uint64"
        }
      ],
      "name": "TrainedModelShared",
      "type": "event"
    },
    {
      "anonymous": false,
      "inputs": [
        {
          "indexed": true,
          "internalType": "address",
          "name": "jobPoster",
          "type": "address"
        },
        {
          "indexed": true,
          "internalType": "uint256",
          "name": "id",
          "type": "uint256"
        },
        {
          "indexed": true,
          "internalType": "address",
          "name": "workerNode",
          "type": "address"
        },
        {
          "indexed": false,
          "internalType": "bytes32",
          "name": "untrainedModelMagnetLink",
          "type": "bytes32"
        },
        {
          "indexed": false,
          "internalType": "bytes32",
          "name": "trainingDatasetMagnetLink",
          "type": "bytes32"
        },
        {
          "indexed": false,
          "internalType": "uint64",
          "name": "targetErrorRate",
          "type": "uint64"
        }
      ],
      "name": "UntrainedModelAndTrainingDatasetShared",
      "type": "event"
    },
    {
      "inputs": [
        {
          "internalType": "address",
          "name": "",
          "type": "address"
        },
        {
          "internalType": "uint256",
          "name": "",
          "type": "uint256"
        }
      ],
      "name": "jobs",
      "outputs": [
        {
          "internalType": "uint256",
          "name": "auctionId",
          "type": "uint256"
        },
        {
          "internalType": "enum JobFactory.Status",
          "name": "status",
          "type": "uint8"
        },
        {
          "internalType": "uint64",
          "name": "targetErrorRate",
          "type": "uint64"
        },
        {
          "internalType": "address",
          "name": "workerNode",
          "type": "address"
        }
      ],
      "stateMutability": "view",
      "type": "function",
      "constant": true
    },
    {
      "inputs": [],
      "name": "token",
      "outputs": [
        {
          "internalType": "contract IERC20",
          "name": "",
          "type": "address"
        }
      ],
      "stateMutability": "view",
      "type": "function",
      "constant": true
    },
    {
      "inputs": [
        {
          "internalType": "uint16",
          "name": "_estimatedTrainingTime",
          "type": "uint16"
        },
        {
          "internalType": "uint32",
          "name": "_trainingDatasetSize",
          "type": "uint32"
        },
        {
          "internalType": "uint64",
          "name": "_targetErrorRate",
          "type": "uint64"
        },
        {
          "internalType": "uint256",
          "name": "_minimumPayout",
          "type": "uint256"
        },
        {
          "internalType": "uint256",
          "name": "_biddingTimeSpan",
          "type": "uint256"
        },
        {
          "internalType": "uint256",
          "name": "_revealTimeSpan",
          "type": "uint256"
        },
        {
          "internalType": "uint256",
          "name": "_workerReward",
          "type": "uint256"
        }
      ],
      "name": "postJobDescription",
      "outputs": [],
      "stateMutability": "nonpayable",
      "type": "function"
    },
    {
      "inputs": [
        {
          "internalType": "address",
          "name": "_jobPoster",
          "type": "address"
        },
        {
          "internalType": "uint256",
          "name": "_id",
          "type": "uint256"
        },
        {
          "internalType": "bytes32",
          "name": "_untrainedModelMagnetLink",
          "type": "bytes32"
        },
        {
          "internalType": "bytes32",
          "name": "_trainingDatasetMagnetLink",
          "type": "bytes32"
        }
      ],
      "name": "shareUntrainedModelAndTrainingDataset",
      "outputs": [],
      "stateMutability": "nonpayable",
      "type": "function"
    },
    {
      "inputs": [
        {
          "internalType": "address",
          "name": "_jobPoster",
          "type": "address"
        },
        {
          "internalType": "uint256",
          "name": "_id",
          "type": "uint256"
        },
        {
          "internalType": "bytes32",
          "name": "_trainedModelMagnetLink",
          "type": "bytes32"
        },
        {
          "internalType": "uint64",
          "name": "_trainingErrorRate",
          "type": "uint64"
        }
      ],
      "name": "shareTrainedModel",
      "outputs": [],
      "stateMutability": "nonpayable",
      "type": "function"
    },
    {
      "inputs": [
        {
          "internalType": "address",
          "name": "_jobPoster",
          "type": "address"
        },
        {
          "internalType": "uint256",
          "name": "_id",
          "type": "uint256"
        }
      ],
      "name": "approveJob",
      "outputs": [],
      "stateMutability": "nonpayable",
      "type": "function"
    }
  ],
  "bytecode": "0x60806040523480156200001157600080fd5b5060405162001caf38038062001caf8339818101604052810190620000379190620000ee565b81600260006101000a81548173ffffffffffffffffffffffffffffffffffffffff021916908373ffffffffffffffffffffffffffffffffffffffff160217905550806000806101000a81548173ffffffffffffffffffffffffffffffffffffffff021916908373ffffffffffffffffffffffffffffffffffffffff1602179055505050620001ab565b600081519050620000d18162000177565b92915050565b600081519050620000e88162000191565b92915050565b600080604083850312156200010257600080fd5b60006200011285828601620000d7565b92505060206200012585828601620000c0565b9150509250929050565b60006200013c8262000157565b9050919050565b600062000150826200012f565b9050919050565b600073ffffffffffffffffffffffffffffffffffffffff82169050919050565b62000182816200012f565b81146200018e57600080fd5b50565b6200019c8162000143565b8114620001a857600080fd5b50565b611af480620001bb6000396000f3fe608060405234801561001057600080fd5b50600436106100625760003560e01c8063129030ab1461006757806356d20469146100835780636f82f8fd1461009f578063e56946eb146100d2578063f60a1f0a146100ee578063fc0c546a1461010a575b600080fd5b610081600480360381019061007c919061135e565b610128565b005b61009d600480360381019061009891906112bf565b6105be565b005b6100b960048036038101906100b491906112bf565b6108e4565b6040516100c9949392919061179a565b60405180910390f35b6100ec60048036038101906100e791906112fb565b610972565b005b610108600480360381019061010391906113c1565b610edc565b005b6101126111dc565b60405161011f91906116ff565b60405180910390f35b600160008573ffffffffffffffffffffffffffffffffffffffff1673ffffffffffffffffffffffffffffffffffffffff168152602001908152602001600020838154811061019f577f4e487b7100000000000000000000000000000000000000000000000000000000600052603260045260246000fd5b906000526020600020906002020160010160099054906101000a900473ffffffffffffffffffffffffffffffffffffffff1673ffffffffffffffffffffffffffffffffffffffff163373ffffffffffffffffffffffffffffffffffffffff161461023e576040517f08c379a00000000000000000000000000000000000000000000000000000000081526004016102359061175a565b60405180910390fd5b60006003811115610278577f4e487b7100000000000000000000000000000000000000000000000000000000600052602160045260246000fd5b600160008673ffffffffffffffffffffffffffffffffffffffff1673ffffffffffffffffffffffffffffffffffffffff16815260200190815260200160002084815481106102ef577f4e487b7100000000000000000000000000000000000000000000000000000000600052603260045260246000fd5b906000526020600020906002020160010160009054906101000a900460ff166003811115610346577f4e487b7100000000000000000000000000000000000000000000000000000000600052602160045260246000fd5b14610386576040517f08c379a000000000000000000000000000000000000000000000000000000000815260040161037d9061173a565b60405180910390fd5b8067ffffffffffffffff16600160008673ffffffffffffffffffffffffffffffffffffffff1673ffffffffffffffffffffffffffffffffffffffff1681526020019081526020016000208481548110610408577f4e487b7100000000000000000000000000000000000000000000000000000000600052603260045260246000fd5b906000526020600020906002020160010160019054906101000a900467ffffffffffffffff1667ffffffffffffffff161015610479576040517f08c379a00000000000000000000000000000000000000000000000000000000081526004016104709061177a565b60405180910390fd5b6002600160008673ffffffffffffffffffffffffffffffffffffffff1673ffffffffffffffffffffffffffffffffffffffff16815260200190815260200160002084815481106104f2577f4e487b7100000000000000000000000000000000000000000000000000000000600052603260045260246000fd5b906000526020600020906002020160010160006101000a81548160ff0219169083600381111561054b577f4e487b7100000000000000000000000000000000000000000000000000000000600052602160045260246000fd5b02179055503373ffffffffffffffffffffffffffffffffffffffff16838573ffffffffffffffffffffffffffffffffffffffff167ffc85034aaca95bf1e66e5196e4207d125718861f17f25768ec9c93ed0d5dd77885856040516105b09291906116d6565b60405180910390a450505050565b600260038111156105f8577f4e487b7100000000000000000000000000000000000000000000000000000000600052602160045260246000fd5b600160008473ffffffffffffffffffffffffffffffffffffffff1673ffffffffffffffffffffffffffffffffffffffff168152602001908152602001600020828154811061066f577f4e487b7100000000000000000000000000000000000000000000000000000000600052603260045260246000fd5b906000526020600020906002020160010160009054906101000a900460ff1660038111156106c6577f4e487b7100000000000000000000000000000000000000000000000000000000600052602160045260246000fd5b14610706576040517f08c379a00000000000000000000000000000000000000000000000000000000081526004016106fd9061173a565b60405180910390fd5b6003600160003373ffffffffffffffffffffffffffffffffffffffff1673ffffffffffffffffffffffffffffffffffffffff168152602001908152602001600020828154811061077f577f4e487b7100000000000000000000000000000000000000000000000000000000600052603260045260246000fd5b906000526020600020906002020160010160006101000a81548160ff021916908360038111156107d8577f4e487b7100000000000000000000000000000000000000000000000000000000600052602160045260246000fd5b0217905550600160008373ffffffffffffffffffffffffffffffffffffffff1673ffffffffffffffffffffffffffffffffffffffff1681526020019081526020016000208181548110610854577f4e487b7100000000000000000000000000000000000000000000000000000000600052603260045260246000fd5b906000526020600020906002020160010160099054906101000a900473ffffffffffffffffffffffffffffffffffffffff1673ffffffffffffffffffffffffffffffffffffffff16813373ffffffffffffffffffffffffffffffffffffffff167f80431d9ed72001506a2c2ea677fdfa4f506f938484c0c0c853c628ad49bcaa7560405160405180910390a45050565b6001602052816000526040600020818154811061090057600080fd5b9060005260206000209060020201600091509150508060000154908060010160009054906101000a900460ff16908060010160019054906101000a900467ffffffffffffffff16908060010160099054906101000a900473ffffffffffffffffffffffffffffffffffffffff16905084565b600060038111156109ac577f4e487b7100000000000000000000000000000000000000000000000000000000600052602160045260246000fd5b600160003373ffffffffffffffffffffffffffffffffffffffff1673ffffffffffffffffffffffffffffffffffffffff1681526020019081526020016000208481548110610a23577f4e487b7100000000000000000000000000000000000000000000000000000000600052603260045260246000fd5b906000526020600020906002020160010160009054906101000a900460ff166003811115610a7a577f4e487b7100000000000000000000000000000000000000000000000000000000600052602160045260246000fd5b14610aba576040517f08c379a0000000000000000000000000000000000000000000000000000000008152600401610ab19061171a565b60405180910390fd5b60018060003373ffffffffffffffffffffffffffffffffffffffff1673ffffffffffffffffffffffffffffffffffffffff1681526020019081526020016000208481548110610b32577f4e487b7100000000000000000000000000000000000000000000000000000000600052603260045260246000fd5b906000526020600020906002020160010160006101000a81548160ff02191690836003811115610b8b577f4e487b7100000000000000000000000000000000000000000000000000000000600052602160045260246000fd5b021790555060008054906101000a900473ffffffffffffffffffffffffffffffffffffffff1673ffffffffffffffffffffffffffffffffffffffff166344f91c1e85856040518363ffffffff1660e01b8152600401610beb929190611615565b6101006040518083038186803b158015610c0457600080fd5b505afa158015610c18573d6000803e3d6000fd5b505050506040513d601f19601f82011682018060405250810190610c3c919061145f565b90919293949596509091929394955090919293945090919293509091925090915050600160003373ffffffffffffffffffffffffffffffffffffffff1673ffffffffffffffffffffffffffffffffffffffff1681526020019081526020016000208481548110610cd5577f4e487b7100000000000000000000000000000000000000000000000000000000600052603260045260246000fd5b906000526020600020906002020160010160098291906101000a81548173ffffffffffffffffffffffffffffffffffffffff021916908373ffffffffffffffffffffffffffffffffffffffff16021790555050600160003373ffffffffffffffffffffffffffffffffffffffff1673ffffffffffffffffffffffffffffffffffffffff1681526020019081526020016000208381548110610d9f577f4e487b7100000000000000000000000000000000000000000000000000000000600052603260045260246000fd5b906000526020600020906002020160010160099054906101000a900473ffffffffffffffffffffffffffffffffffffffff1673ffffffffffffffffffffffffffffffffffffffff16833373ffffffffffffffffffffffffffffffffffffffff167fecc4e58625c62af43abed593579246bf8644a151ada30477219c6394e76d54628585600160003373ffffffffffffffffffffffffffffffffffffffff1673ffffffffffffffffffffffffffffffffffffffff1681526020019081526020016000208981548110610e99577f4e487b7100000000000000000000000000000000000000000000000000000000600052603260045260246000fd5b906000526020600020906002020160010160019054906101000a900467ffffffffffffffff16604051610ece9392919061169f565b60405180910390a450505050565b6000600160003373ffffffffffffffffffffffffffffffffffffffff1673ffffffffffffffffffffffffffffffffffffffff16815260200190815260200160002080549050905060008054906101000a900473ffffffffffffffffffffffffffffffffffffffff1673ffffffffffffffffffffffffffffffffffffffff1663c56114c686868686336040518663ffffffff1660e01b8152600401610f849594939291906117df565b600060405180830381600087803b158015610f9e57600080fd5b505af1158015610fb2573d6000803e3d6000fd5b50505050600160003373ffffffffffffffffffffffffffffffffffffffff1673ffffffffffffffffffffffffffffffffffffffff168152602001908152602001600020604051806080016040528083815260200160006003811115611040577f4e487b7100000000000000000000000000000000000000000000000000000000600052602160045260246000fd5b81526020018867ffffffffffffffff168152602001600073ffffffffffffffffffffffffffffffffffffffff1681525090806001815401808255809150506001900390600052602060002090600202016000909190919091506000820151816000015560208201518160010160006101000a81548160ff021916908360038111156110f4577f4e487b7100000000000000000000000000000000000000000000000000000000600052602160045260246000fd5b021790555060408201518160010160016101000a81548167ffffffffffffffff021916908367ffffffffffffffff16021790555060608201518160010160096101000a81548173ffffffffffffffffffffffffffffffffffffffff021916908373ffffffffffffffffffffffffffffffffffffffff16021790555050507fae09da6872dd859d565dfd4737e8bf864ac564cdc3d9b4ef1b20db7c2fa6868b338260008054906101000a900473ffffffffffffffffffffffffffffffffffffffff168b8b876040516111ca9695949392919061163e565b60405180910390a15050505050505050565b600260009054906101000a900473ffffffffffffffffffffffffffffffffffffffff1681565b60008135905061121181611a1d565b92915050565b60008151905061122681611a1d565b92915050565b60008151905061123b81611a34565b92915050565b60008135905061125081611a4b565b92915050565b60008135905061126581611a62565b92915050565b60008135905061127a81611a79565b92915050565b60008151905061128f81611a79565b92915050565b6000813590506112a481611a90565b92915050565b6000813590506112b981611aa7565b92915050565b600080604083850312156112d257600080fd5b60006112e085828601611202565b92505060206112f18582860161126b565b9150509250929050565b6000806000806080858703121561131157600080fd5b600061131f87828801611202565b94505060206113308782880161126b565b935050604061134187828801611241565b925050606061135287828801611241565b91505092959194509250565b6000806000806080858703121561137457600080fd5b600061138287828801611202565b94505060206113938782880161126b565b93505060406113a487828801611241565b92505060606113b5878288016112aa565b91505092959194509250565b600080600080600080600060e0888a0312156113dc57600080fd5b60006113ea8a828b01611256565b97505060206113fb8a828b01611295565b965050604061140c8a828b016112aa565b955050606061141d8a828b0161126b565b945050608061142e8a828b0161126b565b93505060a061143f8a828b0161126b565b92505060c06114508a828b0161126b565b91505092959891949750929550565b600080600080600080600080610100898b03121561147c57600080fd5b600061148a8b828c01611280565b985050602061149b8b828c01611280565b97505060406114ac8b828c01611280565b96505060606114bd8b828c01611280565b95505060806114ce8b828c01611280565b94505060a06114df8b828c01611280565b93505060c06114f08b828c01611217565b92505060e06115018b828c0161122c565b9150509295985092959890939650565b61151a81611843565b82525050565b61152981611861565b82525050565b611538816118da565b82525050565b611547816118fe565b82525050565b600061155a601783611832565b91506115658261193f565b602082019050919050565b600061157d601883611832565b915061158882611968565b602082019050919050565b60006115a0602083611832565b91506115ab82611991565b602082019050919050565b60006115c3603e83611832565b91506115ce826119ba565b604082019050919050565b6115e28161187e565b82525050565b6115f1816118ac565b82525050565b611600816118b6565b82525050565b61160f816118c6565b82525050565b600060408201905061162a6000830185611511565b61163760208301846115e8565b9392505050565b600060c0820190506116536000830189611511565b61166060208301886115e8565b61166d6040830187611511565b61167a60608301866115d9565b61168760808301856115f7565b61169460a08301846115e8565b979650505050505050565b60006060820190506116b46000830186611520565b6116c16020830185611520565b6116ce6040830184611606565b949350505050565b60006040820190506116eb6000830185611520565b6116f86020830184611606565b9392505050565b6000602082019050611714600083018461152f565b92915050565b600060208201905081810360008301526117338161154d565b9050919050565b6000602082019050818103600083015261175381611570565b9050919050565b6000602082019050818103600083015261177381611593565b9050919050565b60006020820190508181036000830152611793816115b6565b9050919050565b60006080820190506117af60008301876115e8565b6117bc602083018661153e565b6117c96040830185611606565b6117d66060830184611511565b95945050505050565b600060a0820190506117f460008301886115e8565b61180160208301876115e8565b61180e60408301866115e8565b61181b60608301856115e8565b6118286080830184611511565b9695505050505050565b600082825260208201905092915050565b600061184e8261188c565b9050919050565b60008115159050919050565b6000819050919050565b600081905061187982611a09565b919050565b600061ffff82169050919050565b600073ffffffffffffffffffffffffffffffffffffffff82169050919050565b6000819050919050565b600063ffffffff82169050919050565b600067ffffffffffffffff82169050919050565b60006118e5826118ec565b9050919050565b60006118f78261188c565b9050919050565b60006119098261186b565b9050919050565b7f4e487b7100000000000000000000000000000000000000000000000000000000600052602160045260246000fd5b7f4a6f6220686173206e6f74206265656e20706f73746564000000000000000000600082015250565b7f4a6f6220686173206e6f74206265656e20737461727465640000000000000000600082015250565b7f6d73672e73656e646572206d75737420657175616c20776f726b65724e6f6465600082015250565b7f7461726765744572726f7252617465206d75737420626520677265617465722060008201527f6f7220657175616c20746f205f747261696e696e674572726f72526174650000602082015250565b60048110611a1a57611a19611910565b5b50565b611a2681611843565b8114611a3157600080fd5b50565b611a3d81611855565b8114611a4857600080fd5b50565b611a5481611861565b8114611a5f57600080fd5b50565b611a6b8161187e565b8114611a7657600080fd5b50565b611a82816118ac565b8114611a8d57600080fd5b50565b611a99816118b6565b8114611aa457600080fd5b50565b611ab0816118c6565b8114611abb57600080fd5b5056fea26469706673582212207886b7d9f7b237446bee7b5b72416a5f8f8a61e1d3fa5a2c33226a4486f5e74f64736f6c63430008040033",
  "immutableReferences": {},
  "source": "// SPDX-License-Identifier: GPL-3.0\npragma solidity 0.8.4;\n\nimport './IERC20.sol';\nimport './VickreyAuction.sol';\n\n///@dev This implementation describes the following scenario,\n///     for demonstration purposes:\n//\n///          `_jobPoster` --> `workerNode`\n///          `_jobPoster` <-- `workerNode`\n//\n///      There are no `reviewerNodes`, in this use-case\n\n///////////////////////////////////////////////////////////////////////////////\n// Notes for elsewhere\n\n/*\n    Early stopping    - Vickrey Auction, using the SimpleAuction contract?\n    Active monitoring - Micropayment channel?\n*/\n\n/* \n    `rewardSchedule` is currently thought to be either a:\n    - Continuous Reward (TBA: worker is rewarded essentially for descending the gradient)\n    - Variable Reward (Early Stopping; kind-of a Boolean pay-off structure: as workers will\n        only be rewarded if they have reached a threshold-level of accuracy)\n    - Fixed Interval Reward (Active Monitoring)\n    - Fixed Ratio Reward (for validators(?); as they will verify a certain number of models\n        over a period of time: even if the selection process for them is pseudo-random?)\n    ...encoded as a `string` or a series of `bytes`\n*/\n\n/* \n    Implement a form of a reputation score that basically updates how off \n    a given `endUser`'s estimation is of their workload's training time \n*/\n///////////////////////////////////////////////////////////////////////////////\n\ncontract JobFactory {\n\n    VickreyAuction vickreyAuction;\n\n    event JobDescriptionPosted(\n        address jobPoster,\n        uint id,\n        address auctionAddress,\n        uint16 estimatedTrainingTime,\n        uint32 trainingDatasetSize,\n        uint workerReward\n    );\n\n    event UntrainedModelAndTrainingDatasetShared(\n        address indexed jobPoster,\n        uint indexed id,\n        address indexed workerNode,\n        bytes32 untrainedModelMagnetLink,\n        bytes32 trainingDatasetMagnetLink,\n        uint64 targetErrorRate\n    );\n\n    event TrainedModelShared(\n        address indexed jobPoster,\n        uint indexed id,\n        address indexed workerNode,\n        bytes32 trainedModelMagnetLink,\n        uint64 trainingErrorRate\n    );\n\n    event JobApproved(\n        address indexed jobPoster,\n        uint indexed id,\n        address indexed workerNode\n    );\n\n    enum Status {\n        PostedJobDescription,\n        SharedUntrainedModelAndTrainingDataset,\n        SharedTrainedModel,\n        ApprovedJob\n    }\n\n    // TODO Struct packing\n    struct Job {\n        uint auctionId;\n        Status status;\n        uint64 targetErrorRate;\n        address workerNode;\n    }\n\n    mapping (address => Job[]) public jobs;\n\n    IERC20 public token;\n\n    constructor(\n        IERC20 _token,\n        address auctionAddress\n    ) {\n        token = _token;\n        vickreyAuction = VickreyAuction(auctionAddress);\n    }\n\n    /// @dev This is being called by `_jobPoster`\n    //\n    /// @notice `address(0)` is being passed to `Job` as a placeholder\n    function postJobDescription(\n        uint16 _estimatedTrainingTime,\n        uint32 _trainingDatasetSize,\n        uint64 _targetErrorRate,\n        uint _minimumPayout,\n        uint _biddingTimeSpan,\n        uint _revealTimeSpan,\n        uint _workerReward\n    ) public {\n        // TODO Possible cruft below\n        // FIXME\n        //uint jobId;\n        /* if (jobs[msg.sender].auctionId != 0) {\n            jobId = jobs[msg.sender].length - 1;\n        } else {\n            jobId = 0;\n        } */\n        uint jobId = jobs[msg.sender].length;\n        vickreyAuction.start(\n            _minimumPayout,\n            _biddingTimeSpan,\n            _revealTimeSpan,\n            _workerReward,\n            msg.sender);\n        jobs[msg.sender].push(Job(\n            jobId,\n            Status.PostedJobDescription,\n            _targetErrorRate,\n            address(0)));\n        emit JobDescriptionPosted(\n            msg.sender,\n            jobId,\n            address(vickreyAuction),\n            _estimatedTrainingTime,\n            _trainingDatasetSize,\n            _workerReward);\n    }\n\n    /// @dev This is being called by `_jobPoster`\n    //\n    /// @notice The untrained model and the training dataset have been encrypted\n    ///         with the `workerNode` public key and `_jobPoster` private key\n    function shareUntrainedModelAndTrainingDataset(\n        address _jobPoster,\n        uint _id,\n        bytes32 _untrainedModelMagnetLink,\n        bytes32 _trainingDatasetMagnetLink\n    ) public {\n        // FIXME require(vickreyAuction.ended(),'Auction has not ended');\n        require(jobs[msg.sender][_id].status == Status.PostedJobDescription,'Job has not been posted');\n        jobs[msg.sender][_id].status = Status.SharedUntrainedModelAndTrainingDataset;\n        // TODO Possible cruft below\n        //address x;\n        //(,,,,,,x,) = vickreyAuction.auctions(_jobPoster,_id);\n        //jobs[msg.sender][_id].workerNode = vickreyAuction.auctions(_jobPoster,_id).highestBidder;\n        //jobs[msg.sender][_id].workerNode = x;\n        (,,,,,,jobs[msg.sender][_id].workerNode,) = vickreyAuction.auctions(_jobPoster,_id);\n        emit UntrainedModelAndTrainingDatasetShared(\n            msg.sender,\n            _id,\n            jobs[msg.sender][_id].workerNode,\n            _untrainedModelMagnetLink,\n            _trainingDatasetMagnetLink,\n            jobs[msg.sender][_id].targetErrorRate\n        );\n    }\n\n    /// @dev This is being called by `workerNode`\n    //\n    /// @notice The trained model has been encrypted with the `_jobPoster`s\n    ///         public key and `workerNode` private key\n    function shareTrainedModel(\n        address _jobPoster,\n        uint _id,\n        bytes32 _trainedModelMagnetLink,\n        uint64 _trainingErrorRate\n    ) public {\n        require(msg.sender == jobs[_jobPoster][_id].workerNode,'msg.sender must equal workerNode');\n        require(jobs[_jobPoster][_id].status == Status.PostedJobDescription,'Job has not been started');\n        require(jobs[_jobPoster][_id].targetErrorRate >= _trainingErrorRate,'targetErrorRate must be greater or equal to _trainingErrorRate');\n        jobs[_jobPoster][_id].status = Status.SharedTrainedModel;\n        emit TrainedModelShared(\n            _jobPoster,\n            _id,\n            msg.sender,\n            _trainedModelMagnetLink,\n            _trainingErrorRate\n        );\n\n    }\n\n    /// @dev This is being called by `_jobPoster`\n    function approveJob(\n        address _jobPoster,\n        uint _id\n    ) public {\n        require(jobs[_jobPoster][_id].status == Status.SharedTrainedModel,'Job has not been started');\n        jobs[msg.sender][_id].status = Status.ApprovedJob;\n        // TODO Possible cruft below\n        // FIXME\n        //vickreyAuction.payout();\n        emit JobApproved(\n            msg.sender,\n            _id,\n            jobs[_jobPoster][_id].workerNode\n        );\n    }\n}\n",
  "sourcePath": "/home/wsladmin/Morphware/service/contracts/JobFactory.sol",
  "compiler": {
    "name": "solc",
    "version": "0.8.4+commit.c7e474f2.Emscripten.clang"
  },
  "schemaVersion": "3.4.1",
  "updatedAt": "2021-06-08T18:28:40.783Z",
  "networkType": "ethereum",
  "devdoc": {
    "kind": "dev",
    "methods": {
      "approveJob(address,uint256)": {
        "details": "This is being called by `_jobPoster`"
      }
    },
    "version": 1
  },
  "userdoc": {
    "kind": "user",
    "methods": {
      "postJobDescription(uint16,uint32,uint64,uint256,uint256,uint256,uint256)": {
        "notice": "`address(0)` is being passed to `Job` as a placeholder"
      },
      "shareTrainedModel(address,uint256,bytes32,uint64)": {
        "notice": "The trained model has been encrypted with the `_jobPoster`s         public key and `workerNode` private key"
      },
      "shareUntrainedModelAndTrainingDataset(address,uint256,bytes32,bytes32)": {
        "notice": "The untrained model and the training dataset have been encrypted         with the `workerNode` public key and `_jobPoster` private key"
      }
    },
    "notice": "There are no `reviewerNodes`, in this use-case",
    "version": 1
  }
}