{
  "contractName": "VickreyAuction",
  "abi": [
    {
      "inputs": [
        {
          "internalType": "contract IERC20",
          "name": "_token",
          "type": "address"
        }
      ],
      "stateMutability": "nonpayable",
      "type": "constructor"
    },
    {
      "inputs": [],
      "name": "AuctionEndAlreadyCalled",
      "type": "error"
    },
    {
      "inputs": [
        {
          "internalType": "uint256",
          "name": "time",
          "type": "uint256"
        }
      ],
      "name": "TooEarly",
      "type": "error"
    },
    {
      "inputs": [
        {
          "internalType": "uint256",
          "name": "time",
          "type": "uint256"
        }
      ],
      "name": "TooLate",
      "type": "error"
    },
    {
      "anonymous": false,
      "inputs": [
        {
          "indexed": true,
          "internalType": "address",
          "name": "winner",
          "type": "address"
        },
        {
          "indexed": false,
          "internalType": "uint256",
          "name": "secondHighestBid",
          "type": "uint256"
        }
      ],
      "name": "AuctionEnded",
      "type": "event"
    },
    {
      "inputs": [
        {
          "internalType": "address",
          "name": "",
          "type": "address"
        },
        {
          "internalType": "uint256",
          "name": "",
          "type": "uint256"
        }
      ],
      "name": "auctions",
      "outputs": [
        {
          "internalType": "uint256",
          "name": "minimumPayout",
          "type": "uint256"
        },
        {
          "internalType": "uint256",
          "name": "reward",
          "type": "uint256"
        },
        {
          "internalType": "uint256",
          "name": "biddingDeadline",
          "type": "uint256"
        },
        {
          "internalType": "uint256",
          "name": "revealDeadline",
          "type": "uint256"
        },
        {
          "internalType": "uint256",
          "name": "highestBid",
          "type": "uint256"
        },
        {
          "internalType": "uint256",
          "name": "secondHighestBid",
          "type": "uint256"
        },
        {
          "internalType": "address",
          "name": "highestBidder",
          "type": "address"
        },
        {
          "internalType": "bool",
          "name": "ended",
          "type": "bool"
        }
      ],
      "stateMutability": "view",
      "type": "function",
      "constant": true
    },
    {
      "inputs": [],
      "name": "token",
      "outputs": [
        {
          "internalType": "contract IERC20",
          "name": "",
          "type": "address"
        }
      ],
      "stateMutability": "view",
      "type": "function",
      "constant": true
    },
    {
      "inputs": [
        {
          "internalType": "uint256",
          "name": "_minimumPayout",
          "type": "uint256"
        },
        {
          "internalType": "uint256",
          "name": "_biddingTimeSpan",
          "type": "uint256"
        },
        {
          "internalType": "uint256",
          "name": "_revealTimeSpan",
          "type": "uint256"
        },
        {
          "internalType": "uint256",
          "name": "_reward",
          "type": "uint256"
        },
        {
          "internalType": "address",
          "name": "_endUser",
          "type": "address"
        }
      ],
      "name": "start",
      "outputs": [],
      "stateMutability": "nonpayable",
      "type": "function"
    },
    {
      "inputs": [
        {
          "internalType": "address",
          "name": "_endUser",
          "type": "address"
        },
        {
          "internalType": "uint256",
          "name": "_auctionId",
          "type": "uint256"
        },
        {
          "internalType": "bytes32",
          "name": "_blindedBid",
          "type": "bytes32"
        },
        {
          "internalType": "uint256",
          "name": "_amount",
          "type": "uint256"
        }
      ],
      "name": "bid",
      "outputs": [],
      "stateMutability": "nonpayable",
      "type": "function"
    },
    {
      "inputs": [
        {
          "internalType": "address",
          "name": "_endUser",
          "type": "address"
        },
        {
          "internalType": "uint256",
          "name": "_auctionId",
          "type": "uint256"
        },
        {
          "internalType": "uint256[]",
          "name": "_amounts",
          "type": "uint256[]"
        },
        {
          "internalType": "bool[]",
          "name": "_fake",
          "type": "bool[]"
        },
        {
          "internalType": "bytes32[]",
          "name": "_secret",
          "type": "bytes32[]"
        }
      ],
      "name": "reveal",
      "outputs": [],
      "stateMutability": "nonpayable",
      "type": "function"
    },
    {
      "inputs": [],
      "name": "withdraw",
      "outputs": [],
      "stateMutability": "nonpayable",
      "type": "function"
    },
    {
      "inputs": [
        {
          "internalType": "address",
          "name": "_endUser",
          "type": "address"
        },
        {
          "internalType": "uint256",
          "name": "_auctionId",
          "type": "uint256"
        }
      ],
      "name": "auctionEnd",
      "outputs": [],
      "stateMutability": "nonpayable",
      "type": "function"
    },
    {
      "inputs": [
        {
          "internalType": "address",
          "name": "_endUser",
          "type": "address"
        },
        {
          "internalType": "uint256",
          "name": "_auctionId",
          "type": "uint256"
        }
      ],
      "name": "payout",
      "outputs": [],
      "stateMutability": "nonpayable",
      "type": "function"
    }
  ],
  "bytecode": "0x60806040523480156200001157600080fd5b506040516200288b3803806200288b833981810160405281019062000037919062000095565b806000806101000a81548173ffffffffffffffffffffffffffffffffffffffff021916908373ffffffffffffffffffffffffffffffffffffffff1602179055505062000123565b6000815190506200008f8162000109565b92915050565b600060208284031215620000a857600080fd5b6000620000b8848285016200007e565b91505092915050565b6000620000ce82620000e9565b9050919050565b6000620000e282620000c1565b9050919050565b600073ffffffffffffffffffffffffffffffffffffffff82169050919050565b6200011481620000d5565b81146200012057600080fd5b50565b61275880620001336000396000f3fe608060405234801561001057600080fd5b50600436106100885760003560e01c806344f91c1e1161005b57806344f91c1e146100eb578063c56114c614610122578063e94a900e1461013e578063fc0c546a1461015a57610088565b8063117de2fd1461008d5780631dcf249f146100a9578063290a2d10146100c55780633ccfd60b146100e1575b600080fd5b6100a760048036038101906100a29190611e2c565b610178565b005b6100c360048036038101906100be9190611e2c565b610697565b005b6100df60048036038101906100da9190611e68565b610a54565b005b6100e9610f0f565b005b61010560048036038101906101009190611e2c565b611053565b604051610119989796959493929190612299565b60405180910390f35b61013c60048036038101906101379190611fdc565b6110e5565b005b61015860048036038101906101539190611f27565b611270565b005b610162611655565b60405161016f9190612203565b60405180910390f35b600160008373ffffffffffffffffffffffffffffffffffffffff1673ffffffffffffffffffffffffffffffffffffffff16815260200190815260200160002081815481106101ef577f4e487b7100000000000000000000000000000000000000000000000000000000600052603260045260246000fd5b906000526020600020906007020160060160149054906101000a900460ff1661024d576040517f08c379a00000000000000000000000000000000000000000000000000000000081526004016102449061223e565b60405180910390fd5b60008054906101000a900473ffffffffffffffffffffffffffffffffffffffff1673ffffffffffffffffffffffffffffffffffffffff1663a9059cbb83600160008673ffffffffffffffffffffffffffffffffffffffff1673ffffffffffffffffffffffffffffffffffffffff1681526020019081526020016000208481548110610301577f4e487b7100000000000000000000000000000000000000000000000000000000600052603260045260246000fd5b9060005260206000209060070201600501546040518363ffffffff1660e01b81526004016103309291906121da565b602060405180830381600087803b15801561034a57600080fd5b505af115801561035e573d6000803e3d6000fd5b505050506040513d601f19601f820116820180604052508101906103829190611f8a565b506000600160008473ffffffffffffffffffffffffffffffffffffffff1673ffffffffffffffffffffffffffffffffffffffff16815260200190815260200160002082815481106103fc577f4e487b7100000000000000000000000000000000000000000000000000000000600052603260045260246000fd5b906000526020600020906007020160050154600160008573ffffffffffffffffffffffffffffffffffffffff1673ffffffffffffffffffffffffffffffffffffffff1681526020019081526020016000208381548110610485577f4e487b7100000000000000000000000000000000000000000000000000000000600052603260045260246000fd5b9060005260206000209060070201600401546104a19190612427565b90506000600160008573ffffffffffffffffffffffffffffffffffffffff1673ffffffffffffffffffffffffffffffffffffffff168152602001908152602001600020838154811061051c577f4e487b7100000000000000000000000000000000000000000000000000000000600052603260045260246000fd5b9060005260206000209060070201600101548261053991906123d1565b905060008054906101000a900473ffffffffffffffffffffffffffffffffffffffff1673ffffffffffffffffffffffffffffffffffffffff1663a9059cbb600160008773ffffffffffffffffffffffffffffffffffffffff1673ffffffffffffffffffffffffffffffffffffffff16815260200190815260200160002085815481106105ee577f4e487b7100000000000000000000000000000000000000000000000000000000600052603260045260246000fd5b906000526020600020906007020160060160009054906101000a900473ffffffffffffffffffffffffffffffffffffffff16836040518363ffffffff1660e01b815260040161063e9291906121da565b602060405180830381600087803b15801561065857600080fd5b505af115801561066c573d6000803e3d6000fd5b505050506040513d601f19601f820116820180604052508101906106909190611f8a565b5050505050565b600160008373ffffffffffffffffffffffffffffffffffffffff1673ffffffffffffffffffffffffffffffffffffffff168152602001908152602001600020818154811061070e577f4e487b7100000000000000000000000000000000000000000000000000000000600052603260045260246000fd5b90600052602060002090600702016003015480421161076457806040517f2a35a32400000000000000000000000000000000000000000000000000000000815260040161075b919061227e565b60405180910390fd5b600160008473ffffffffffffffffffffffffffffffffffffffff1673ffffffffffffffffffffffffffffffffffffffff16815260200190815260200160002082815481106107db577f4e487b7100000000000000000000000000000000000000000000000000000000600052603260045260246000fd5b906000526020600020906007020160060160149054906101000a900460ff1615610831576040517f61cfdcf800000000000000000000000000000000000000000000000000000000815260040160405180910390fd5b600160008473ffffffffffffffffffffffffffffffffffffffff1673ffffffffffffffffffffffffffffffffffffffff16815260200190815260200160002082815481106108a8577f4e487b7100000000000000000000000000000000000000000000000000000000600052603260045260246000fd5b906000526020600020906007020160060160009054906101000a900473ffffffffffffffffffffffffffffffffffffffff1673ffffffffffffffffffffffffffffffffffffffff167fdaec4582d5d9595688c8c98545fdd1c696d41c6aeaeb636737e84ed2f5c00eda600160008673ffffffffffffffffffffffffffffffffffffffff1673ffffffffffffffffffffffffffffffffffffffff1681526020019081526020016000208481548110610988577f4e487b7100000000000000000000000000000000000000000000000000000000600052603260045260246000fd5b9060005260206000209060070201600501546040516109a7919061227e565b60405180910390a260018060008573ffffffffffffffffffffffffffffffffffffffff1673ffffffffffffffffffffffffffffffffffffffff1681526020019081526020016000208381548110610a27577f4e487b7100000000000000000000000000000000000000000000000000000000600052603260045260246000fd5b906000526020600020906007020160060160146101000a81548160ff021916908315150217905550505050565b600160008673ffffffffffffffffffffffffffffffffffffffff1673ffffffffffffffffffffffffffffffffffffffff1681526020019081526020016000208481548110610acb577f4e487b7100000000000000000000000000000000000000000000000000000000600052603260045260246000fd5b906000526020600020906007020160020154804211610b2157806040517f2a35a324000000000000000000000000000000000000000000000000000000008152600401610b18919061227e565b60405180910390fd5b600160008773ffffffffffffffffffffffffffffffffffffffff1673ffffffffffffffffffffffffffffffffffffffff1681526020019081526020016000208581548110610b98577f4e487b7100000000000000000000000000000000000000000000000000000000600052603260045260246000fd5b906000526020600020906007020160030154804210610bee57806040517f691e5682000000000000000000000000000000000000000000000000000000008152600401610be5919061227e565b60405180910390fd5b6000600260003373ffffffffffffffffffffffffffffffffffffffff1673ffffffffffffffffffffffffffffffffffffffff168152602001908152602001600020805490509050600080600090505b82811015610e55576000600260003373ffffffffffffffffffffffffffffffffffffffff1673ffffffffffffffffffffffffffffffffffffffff1681526020019081526020016000208281548110610cbe577f4e487b7100000000000000000000000000000000000000000000000000000000600052603260045260246000fd5b906000526020600020906003020190508981600201541415610e405760008060008b8581518110610d18577f4e487b7100000000000000000000000000000000000000000000000000000000600052603260045260246000fd5b60200260200101518b8681518110610d59577f4e487b7100000000000000000000000000000000000000000000000000000000600052603260045260246000fd5b60200260200101518b8781518110610d9a577f4e487b7100000000000000000000000000000000000000000000000000000000600052603260045260246000fd5b6020026020010151925092509250828282604051602001610dbd9392919061213d565b60405160208183030381529060405280519060200120846000015414610de65750505050610e42565b836001015486610df691906123d1565b955081158015610e0a575082846001015410155b15610e3057610e1b8e8e3386611679565b15610e2f578286610e2c9190612427565b95505b5b6000801b84600001819055505050505b505b8080610e4d90612502565b915050610c3d565b5060008054906101000a900473ffffffffffffffffffffffffffffffffffffffff1673ffffffffffffffffffffffffffffffffffffffff1663a9059cbb33836040518363ffffffff1660e01b8152600401610eb19291906121da565b602060405180830381600087803b158015610ecb57600080fd5b505af1158015610edf573d6000803e3d6000fd5b505050506040513d601f19601f82011682018060405250810190610f039190611f8a565b50505050505050505050565b6000600360003373ffffffffffffffffffffffffffffffffffffffff1673ffffffffffffffffffffffffffffffffffffffff1681526020019081526020016000205490506000811115611050576000600360003373ffffffffffffffffffffffffffffffffffffffff1673ffffffffffffffffffffffffffffffffffffffff1681526020019081526020016000208190555060008054906101000a900473ffffffffffffffffffffffffffffffffffffffff1673ffffffffffffffffffffffffffffffffffffffff1663a9059cbb33836040518363ffffffff1660e01b8152600401610ffc9291906121da565b602060405180830381600087803b15801561101657600080fd5b505af115801561102a573d6000803e3d6000fd5b505050506040513d601f19601f8201168201806040525081019061104e9190611f8a565b505b50565b6001602052816000526040600020818154811061106f57600080fd5b9060005260206000209060070201600091509150508060000154908060010154908060020154908060030154908060040154908060050154908060060160009054906101000a900473ffffffffffffffffffffffffffffffffffffffff16908060060160149054906101000a900460ff16905088565b600160008273ffffffffffffffffffffffffffffffffffffffff1673ffffffffffffffffffffffffffffffffffffffff168152602001908152602001600020604051806101000160405280878152602001848152602001864261114891906123d1565b815260200185874261115a91906123d1565b61116491906123d1565b81526020016000815260200160008152602001600073ffffffffffffffffffffffffffffffffffffffff168152602001600015158152509080600181540180825580915050600190039060005260206000209060070201600090919091909150600082015181600001556020820151816001015560408201518160020155606082015181600301556080820151816004015560a0820151816005015560c08201518160060160006101000a81548173ffffffffffffffffffffffffffffffffffffffff021916908373ffffffffffffffffffffffffffffffffffffffff16021790555060e08201518160060160146101000a81548160ff02191690831515021790555050505050505050565b600160008573ffffffffffffffffffffffffffffffffffffffff1673ffffffffffffffffffffffffffffffffffffffff16815260200190815260200160002083815481106112e7577f4e487b7100000000000000000000000000000000000000000000000000000000600052603260045260246000fd5b90600052602060002090600702016002015480421061133d57806040517f691e5682000000000000000000000000000000000000000000000000000000008152600401611334919061227e565b60405180910390fd5b600160008673ffffffffffffffffffffffffffffffffffffffff1673ffffffffffffffffffffffffffffffffffffffff16815260200190815260200160002084815481106113b4577f4e487b7100000000000000000000000000000000000000000000000000000000600052603260045260246000fd5b9060005260206000209060070201600001548211611407576040517f08c379a00000000000000000000000000000000000000000000000000000000081526004016113fe9061221e565b60405180910390fd5b60008060009054906101000a900473ffffffffffffffffffffffffffffffffffffffff1673ffffffffffffffffffffffffffffffffffffffff1663dd62ed3e33306040518363ffffffff1660e01b815260040161146592919061217a565b60206040518083038186803b15801561147d57600080fd5b505afa158015611491573d6000803e3d6000fd5b505050506040513d601f19601f820116820180604052508101906114b59190611fb3565b9050828110156114fa576040517f08c379a00000000000000000000000000000000000000000000000000000000081526004016114f19061225e565b60405180910390fd5b60008054906101000a900473ffffffffffffffffffffffffffffffffffffffff1673ffffffffffffffffffffffffffffffffffffffff166323b872dd3330866040518463ffffffff1660e01b8152600401611557939291906121a3565b602060405180830381600087803b15801561157157600080fd5b505af1158015611585573d6000803e3d6000fd5b505050506040513d601f19601f820116820180604052508101906115a99190611f8a565b50600260003373ffffffffffffffffffffffffffffffffffffffff1673ffffffffffffffffffffffffffffffffffffffff16815260200190815260200160002060405180606001604052808681526020018581526020018781525090806001815401808255809150506001900390600052602060002090600302016000909190919091506000820151816000015560208201518160010155604082015181600201555050505050505050565b60008054906101000a900473ffffffffffffffffffffffffffffffffffffffff1681565b6000600160008673ffffffffffffffffffffffffffffffffffffffff1673ffffffffffffffffffffffffffffffffffffffff16815260200190815260200160002084815481106116f2577f4e487b7100000000000000000000000000000000000000000000000000000000600052603260045260246000fd5b90600052602060002090600702016004015482116117135760009050611be4565b600073ffffffffffffffffffffffffffffffffffffffff16600160008773ffffffffffffffffffffffffffffffffffffffff1673ffffffffffffffffffffffffffffffffffffffff16815260200190815260200160002085815481106117a2577f4e487b7100000000000000000000000000000000000000000000000000000000600052603260045260246000fd5b906000526020600020906007020160060160009054906101000a900473ffffffffffffffffffffffffffffffffffffffff1673ffffffffffffffffffffffffffffffffffffffff161461197657600160008673ffffffffffffffffffffffffffffffffffffffff1673ffffffffffffffffffffffffffffffffffffffff1681526020019081526020016000208481548110611866577f4e487b7100000000000000000000000000000000000000000000000000000000600052603260045260246000fd5b90600052602060002090600702016004015460036000600160008973ffffffffffffffffffffffffffffffffffffffff1673ffffffffffffffffffffffffffffffffffffffff16815260200190815260200160002087815481106118f3577f4e487b7100000000000000000000000000000000000000000000000000000000600052603260045260246000fd5b906000526020600020906007020160060160009054906101000a900473ffffffffffffffffffffffffffffffffffffffff1673ffffffffffffffffffffffffffffffffffffffff1673ffffffffffffffffffffffffffffffffffffffff168152602001908152602001600020600082825461196e91906123d1565b925050819055505b600160008673ffffffffffffffffffffffffffffffffffffffff1673ffffffffffffffffffffffffffffffffffffffff16815260200190815260200160002084815481106119ed577f4e487b7100000000000000000000000000000000000000000000000000000000600052603260045260246000fd5b906000526020600020906007020160040154600160008773ffffffffffffffffffffffffffffffffffffffff1673ffffffffffffffffffffffffffffffffffffffff1681526020019081526020016000208581548110611a76577f4e487b7100000000000000000000000000000000000000000000000000000000600052603260045260246000fd5b90600052602060002090600702016005018190555081600160008773ffffffffffffffffffffffffffffffffffffffff1673ffffffffffffffffffffffffffffffffffffffff1681526020019081526020016000208581548110611b03577f4e487b7100000000000000000000000000000000000000000000000000000000600052603260045260246000fd5b90600052602060002090600702016004018190555082600160008773ffffffffffffffffffffffffffffffffffffffff1673ffffffffffffffffffffffffffffffffffffffff1681526020019081526020016000208581548110611b90577f4e487b7100000000000000000000000000000000000000000000000000000000600052603260045260246000fd5b906000526020600020906007020160060160006101000a81548173ffffffffffffffffffffffffffffffffffffffff021916908373ffffffffffffffffffffffffffffffffffffffff160217905550600190505b949350505050565b6000611bff611bfa8461233c565b612317565b90508083825260208201905082856020860282011115611c1e57600080fd5b60005b85811015611c4e5781611c348882611dc3565b845260208401935060208301925050600181019050611c21565b5050509392505050565b6000611c6b611c6684612368565b612317565b90508083825260208201905082856020860282011115611c8a57600080fd5b60005b85811015611cba5781611ca08882611ded565b845260208401935060208301925050600181019050611c8d565b5050509392505050565b6000611cd7611cd284612394565b612317565b90508083825260208201905082856020860282011115611cf657600080fd5b60005b85811015611d265781611d0c8882611e02565b845260208401935060208301925050600181019050611cf9565b5050509392505050565b600081359050611d3f816126c6565b92915050565b600082601f830112611d5657600080fd5b8135611d66848260208601611bec565b91505092915050565b600082601f830112611d8057600080fd5b8135611d90848260208601611c58565b91505092915050565b600082601f830112611daa57600080fd5b8135611dba848260208601611cc4565b91505092915050565b600081359050611dd2816126dd565b92915050565b600081519050611de7816126dd565b92915050565b600081359050611dfc816126f4565b92915050565b600081359050611e118161270b565b92915050565b600081519050611e268161270b565b92915050565b60008060408385031215611e3f57600080fd5b6000611e4d85828601611d30565b9250506020611e5e85828601611e02565b9150509250929050565b600080600080600060a08688031215611e8057600080fd5b6000611e8e88828901611d30565b9550506020611e9f88828901611e02565b945050604086013567ffffffffffffffff811115611ebc57600080fd5b611ec888828901611d99565b935050606086013567ffffffffffffffff811115611ee557600080fd5b611ef188828901611d45565b925050608086013567ffffffffffffffff811115611f0e57600080fd5b611f1a88828901611d6f565b9150509295509295909350565b60008060008060808587031215611f3d57600080fd5b6000611f4b87828801611d30565b9450506020611f5c87828801611e02565b9350506040611f6d87828801611ded565b9250506060611f7e87828801611e02565b91505092959194509250565b600060208284031215611f9c57600080fd5b6000611faa84828501611dd8565b91505092915050565b600060208284031215611fc557600080fd5b6000611fd384828501611e17565b91505092915050565b600080600080600060a08688031215611ff457600080fd5b600061200288828901611e02565b955050602061201388828901611e02565b945050604061202488828901611e02565b935050606061203588828901611e02565b925050608061204688828901611d30565b9150509295509295909350565b61205c8161245b565b82525050565b61206b8161246d565b82525050565b61208261207d8261246d565b61254b565b82525050565b61209961209482612479565b61255d565b82525050565b6120a8816124ad565b82525050565b60006120bb602a836123c0565b91506120c6826125ff565b604082019050919050565b60006120de601c836123c0565b91506120e98261264e565b602082019050919050565b60006121016036836123c0565b915061210c82612677565b604082019050919050565b612120816124a3565b82525050565b612137612132826124a3565b612567565b82525050565b60006121498286612126565b6020820191506121598285612071565b6001820191506121698284612088565b602082019150819050949350505050565b600060408201905061218f6000830185612053565b61219c6020830184612053565b9392505050565b60006060820190506121b86000830186612053565b6121c56020830185612053565b6121d26040830184612117565b949350505050565b60006040820190506121ef6000830185612053565b6121fc6020830184612117565b9392505050565b6000602082019050612218600083018461209f565b92915050565b60006020820190508181036000830152612237816120ae565b9050919050565b60006020820190508181036000830152612257816120d1565b9050919050565b60006020820190508181036000830152612277816120f4565b9050919050565b60006020820190506122936000830184612117565b92915050565b6000610100820190506122af600083018b612117565b6122bc602083018a612117565b6122c96040830189612117565b6122d66060830188612117565b6122e36080830187612117565b6122f060a0830186612117565b6122fd60c0830185612053565b61230a60e0830184612062565b9998505050505050505050565b6000612321612332565b905061232d82826124d1565b919050565b6000604051905090565b600067ffffffffffffffff821115612357576123566125b2565b5b602082029050602081019050919050565b600067ffffffffffffffff821115612383576123826125b2565b5b602082029050602081019050919050565b600067ffffffffffffffff8211156123af576123ae6125b2565b5b602082029050602081019050919050565b600082825260208201905092915050565b60006123dc826124a3565b91506123e7836124a3565b9250827fffffffffffffffffffffffffffffffffffffffffffffffffffffffffffffffff0382111561241c5761241b612583565b5b828201905092915050565b6000612432826124a3565b915061243d836124a3565b9250828210156124505761244f612583565b5b828203905092915050565b600061246682612483565b9050919050565b60008115159050919050565b6000819050919050565b600073ffffffffffffffffffffffffffffffffffffffff82169050919050565b6000819050919050565b60006124b8826124bf565b9050919050565b60006124ca82612483565b9050919050565b6124da826125e1565b810181811067ffffffffffffffff821117156124f9576124f86125b2565b5b80604052505050565b600061250d826124a3565b91507fffffffffffffffffffffffffffffffffffffffffffffffffffffffffffffffff8214156125405761253f612583565b5b600182019050919050565b600061255682612571565b9050919050565b6000819050919050565b6000819050919050565b600061257c826125f2565b9050919050565b7f4e487b7100000000000000000000000000000000000000000000000000000000600052601160045260246000fd5b7f4e487b7100000000000000000000000000000000000000000000000000000000600052604160045260246000fd5b6000601f19601f8301169050919050565b60008160f81b9050919050565b7f5f616d6f756e74206d7573742062652067726561746572207468616e206d696e60008201527f696d756d5061796f757400000000000000000000000000000000000000000000602082015250565b7f5669636b72657941756374696f6e20686173206e6f7420656e64656400000000600082015250565b7f616c6c6f776564416d6f756e74206d757374206265206772656174657220746860008201527f616e206f7220657175616c20746f205f616d6f756e7400000000000000000000602082015250565b6126cf8161245b565b81146126da57600080fd5b50565b6126e68161246d565b81146126f157600080fd5b50565b6126fd81612479565b811461270857600080fd5b50565b612714816124a3565b811461271f57600080fd5b5056fea2646970667358221220ee6e7f62e6e0dfa6e4f9fb4332be9a355f7528dc9422f5230ee1dacc86660ddc64736f6c63430008040033",
  "immutableReferences": {},
  "source": "// SPDX-License-Identifier: GPL-3.0\npragma solidity 0.8.4;\n\nimport './IERC20.sol';\n\n// TODO Review all usage of `public`\n// TODO Optimize storage writes with memory\n\ncontract VickreyAuction {\n\n    IERC20 public token;\n\n    struct Bid {\n        bytes32 blindedBid;\n        uint deposit;\n        uint auctionId;\n    }\n\n    /* uint public minimumPayout;\n    uint public biddingDeadline;\n    uint public revealDeadline;\n\n    address public endUser;\n    address public highestBidder;\n    uint public highestBid;\n    uint public secondHighestBid; */\n\n    struct Auction {\n        uint minimumPayout;\n        uint reward;\n        uint biddingDeadline;\n        uint revealDeadline;\n        uint highestBid;\n        uint secondHighestBid;\n        address highestBidder;\n        bool ended;\n    }\n\n    mapping(address => Auction[]) public auctions;\n    mapping(address => Bid[]) bids;\n    mapping(address => uint) staleBids;\n\n    event AuctionEnded(\n        address indexed winner, \n        uint secondHighestBid\n    );\n    /* event BidPlaced(\n        address bidder,\n        uint amount\n    ); */\n\n    error TooEarly(uint time);\n    error TooLate(uint time);\n    error AuctionEndAlreadyCalled();\n\n    modifier onlyBefore(uint _time) {\n        if (block.timestamp >= _time) revert TooLate(_time);\n        _;\n    }\n    modifier onlyAfter(uint _time) {\n        if (block.timestamp <= _time) revert TooEarly(_time);\n        _;\n    }\n\n    // TODO 2 Use `initialize` instead of constructor to make the contract upgradable\n    constructor(\n        IERC20 _token\n    ) {\n        token = _token;\n    }\n\n    // FIXME 1 Right now, `reward` is just parameterized and there is no check,\n    //         in place; to make sure that the `endUser` is good for the funds\n    uint reward;\n\n    // FIXME 1 (continued)\n    // Have end-user actually transfer the funds and then check that the reward amount is equal to it\n    function start(\n        uint _minimumPayout,\n        uint _biddingTimeSpan,\n        uint _revealTimeSpan,\n        uint _reward,\n        address _endUser\n    )\n        public\n    {\n        auctions[_endUser].push(Auction({\n            minimumPayout: _minimumPayout,\n            reward: _reward,\n            biddingDeadline: block.timestamp + _biddingTimeSpan,\n            revealDeadline: block.timestamp + _biddingTimeSpan + _revealTimeSpan,\n            highestBid: 0,\n            secondHighestBid: 0,\n            highestBidder: address(0),\n            ended: false\n        }));\n    }\n\n    function bid(\n        address _endUser,\n        uint _auctionId,\n        bytes32 _blindedBid,\n        uint _amount\n    )\n        public\n        onlyBefore(auctions[_endUser][_auctionId].biddingDeadline)\n    {\n        require(_amount > auctions[_endUser][_auctionId].minimumPayout,'_amount must be greater than minimumPayout');\n        uint allowedAmount = token.allowance(msg.sender,address(this));\n        require(allowedAmount >= _amount,'allowedAmount must be greater than or equal to _amount');\n        // TODO  1.5 Re-factor `transferFrom` to eliminate gas costs?\n        token.transferFrom(msg.sender,address(this),_amount);\n        bids[msg.sender].push(Bid({\n            blindedBid: _blindedBid,\n            deposit: _amount,\n            auctionId: _auctionId\n        }));\n    }\n\n    function reveal(\n        address _endUser,\n        uint _auctionId,\n        uint[] memory _amounts,\n        bool[] memory _fake,\n        bytes32[] memory _secret\n    )\n        public\n        onlyAfter(auctions[_endUser][_auctionId].biddingDeadline)\n        onlyBefore(auctions[_endUser][_auctionId].revealDeadline)\n    {\n        uint numberOfBids = bids[msg.sender].length;\n        // require(_amounts.length == numberOfBids,'_amounts.length must be equal to numberOfBids');\n        // require(_fake.length == numberOfBids,'_fake.length must be equal to numberOfBids');\n        // require(_secret.length == numberOfBids,'_secret.length must be equal to numberOfBids');\n        uint refund;\n        for (uint i = 0; i < numberOfBids; i++) {\n            Bid storage bidToCheck = bids[msg.sender][i];\n            if (bidToCheck.auctionId == _auctionId) {\n                (uint amount, bool fake, bytes32 secret) = (_amounts[i], _fake[i], _secret[i]);\n                if (bidToCheck.blindedBid != keccak256(abi.encodePacked(amount, fake, secret))) {\n                    continue;\n                }\n                refund += bidToCheck.deposit;\n                if (!fake && bidToCheck.deposit >= amount) {\n                    if (placeBid(_endUser, _auctionId, msg.sender, amount)) {\n                        refund -= amount;\n                    }\n                }\n                bidToCheck.blindedBid = bytes32(0);\n            }\n        }\n        // TODO 1 Replace the `transfer` invocation with a safer alternative\n        token.transfer(msg.sender,refund);\n    }\n\n    function withdraw() public {\n        uint amount = staleBids[msg.sender];\n        if (amount > 0) {\n            staleBids[msg.sender] = 0;\n            // TODO 1 Replace the `transfer` invocation with a safer alternative\n            token.transfer(msg.sender,amount);\n        }\n    }\n\n    function auctionEnd(\n        address _endUser,\n        uint _auctionId\n    )\n        public\n        onlyAfter(auctions[_endUser][_auctionId].revealDeadline)\n    {\n        if (auctions[_endUser][_auctionId].ended) revert AuctionEndAlreadyCalled();\n        emit AuctionEnded(\n            auctions[_endUser][_auctionId].highestBidder,\n            auctions[_endUser][_auctionId].secondHighestBid);\n        auctions[_endUser][_auctionId].ended = true;\n    }\n\n    /// @dev This should be called by `_endUser`\n    function payout(\n        address _endUser,\n        uint _auctionId\n    )\n        public\n    {\n        require(auctions[_endUser][_auctionId].ended, 'VickreyAuction has not ended');\n        // TODO 1 Replace the `transfer` invocation with a safer alternative\n\n        //FIXME\n        token.transfer(_endUser, auctions[_endUser][_auctionId].secondHighestBid);\n        uint leftover = auctions[_endUser][_auctionId].highestBid - auctions[_endUser][_auctionId].secondHighestBid;\n        // TODO n Does `auctions[_endUser][_auctionId].reward` need to be set to `0`, like `amount` is in other places?\n        uint workerPay = leftover + auctions[_endUser][_auctionId].reward;\n        // TODO 4 Optimize the `transfer` of `leftover` to `highestBidder`\n        // TODO 1 Replace the `transfer` invocation with a safer alternative\n        token.transfer(auctions[_endUser][_auctionId].highestBidder, workerPay);\n    }\n\n    function placeBid(\n        address _endUser,\n        uint _auctionId,\n        address _bidder,\n        uint _amount\n    )\n        internal\n        returns (bool success)\n    {\n        if (_amount <= auctions[_endUser][_auctionId].highestBid) {\n            return false;\n        }\n        if (auctions[_endUser][_auctionId].highestBidder != address(0)) {\n            staleBids[auctions[_endUser][_auctionId].highestBidder] += auctions[_endUser][_auctionId].highestBid;\n        }\n        auctions[_endUser][_auctionId].secondHighestBid = auctions[_endUser][_auctionId].highestBid;\n        auctions[_endUser][_auctionId].highestBid = _amount;\n        auctions[_endUser][_auctionId].highestBidder = _bidder;\n        // TODO Possible cruft below\n        /* emit BidPlaced(\n            auctions[_endUser][_auctionId].highestBidder,\n            auctions[_endUser][_auctionId].highestBid); */\n        return true;\n    }\n}\n",
  "sourcePath": "/home/wsladmin/Morphware/service/contracts/VickreyAuction.sol",
  "compiler": {
    "name": "solc",
    "version": "0.8.4+commit.c7e474f2.Emscripten.clang"
  },
  "schemaVersion": "3.4.1",
  "updatedAt": "2021-06-08T18:52:37.522Z",
  "networkType": "ethereum",
  "devdoc": {
    "kind": "dev",
    "methods": {
      "payout(address,uint256)": {
        "details": "This should be called by `_endUser`"
      }
    },
    "version": 1
  },
  "userdoc": {
    "kind": "user",
    "methods": {},
    "version": 1
  }
}