{
  "contractName": "JobFactory",
  "abi": [
    {
      "inputs": [
        {
          "internalType": "contract IERC20",
          "name": "_token",
          "type": "address"
        },
        {
          "internalType": "address",
          "name": "auctionAddress",
          "type": "address"
        }
      ],
      "stateMutability": "nonpayable",
      "type": "constructor"
    },
    {
      "anonymous": false,
      "inputs": [
        {
          "indexed": true,
          "internalType": "address",
          "name": "jobPoster",
          "type": "address"
        },
        {
          "indexed": false,
          "internalType": "uint256",
          "name": "id",
          "type": "uint256"
        },
        {
          "indexed": true,
          "internalType": "address",
          "name": "workerNode",
          "type": "address"
        },
        {
          "indexed": true,
          "internalType": "address",
          "name": "validatorNode",
          "type": "address"
        }
      ],
      "name": "JobApproved",
      "type": "event"
    },
    {
      "anonymous": false,
      "inputs": [
        {
          "indexed": false,
          "internalType": "address",
          "name": "jobPoster",
          "type": "address"
        },
        {
          "indexed": false,
          "internalType": "uint256",
          "name": "id",
          "type": "uint256"
        },
        {
          "indexed": false,
          "internalType": "address",
          "name": "auctionAddress",
          "type": "address"
        },
        {
          "indexed": false,
          "internalType": "uint16",
          "name": "estimatedTrainingTime",
          "type": "uint16"
        },
        {
          "indexed": false,
          "internalType": "uint32",
          "name": "trainingDatasetSize",
          "type": "uint32"
        },
        {
          "indexed": false,
          "internalType": "uint256",
          "name": "workerReward",
          "type": "uint256"
        }
      ],
      "name": "JobDescriptionPosted",
      "type": "event"
    },
    {
      "anonymous": false,
      "inputs": [
        {
          "indexed": true,
          "internalType": "address",
          "name": "jobPoster",
          "type": "address"
        },
        {
          "indexed": true,
          "internalType": "uint256",
          "name": "id",
          "type": "uint256"
        },
        {
          "indexed": true,
          "internalType": "address",
          "name": "workerNode",
          "type": "address"
        },
        {
          "indexed": false,
          "internalType": "string",
          "name": "trainedModelMagnetLink",
          "type": "string"
        },
        {
          "indexed": false,
          "internalType": "uint64",
          "name": "trainingErrorRate",
          "type": "uint64"
        }
      ],
      "name": "TrainedModelShared",
      "type": "event"
    },
    {
      "anonymous": false,
      "inputs": [
        {
          "indexed": true,
          "internalType": "address",
          "name": "jobPoster",
          "type": "address"
        },
        {
          "indexed": true,
          "internalType": "uint256",
          "name": "id",
          "type": "uint256"
        },
        {
          "indexed": true,
          "internalType": "address",
          "name": "workerNode",
          "type": "address"
        },
        {
          "indexed": false,
          "internalType": "string",
          "name": "untrainedModelMagnetLink",
          "type": "string"
        },
        {
          "indexed": false,
          "internalType": "string",
          "name": "trainingDatasetMagnetLink",
          "type": "string"
        },
        {
          "indexed": false,
          "internalType": "uint64",
          "name": "targetErrorRate",
          "type": "uint64"
        }
      ],
      "name": "UntrainedModelAndTrainingDatasetShared",
      "type": "event"
    },
    {
      "inputs": [
        {
          "internalType": "address",
          "name": "",
          "type": "address"
        },
        {
          "internalType": "uint256",
          "name": "",
          "type": "uint256"
        }
      ],
      "name": "jobs",
      "outputs": [
        {
          "internalType": "uint256",
          "name": "auctionId",
          "type": "uint256"
        },
        {
          "internalType": "enum JobFactory.Status",
          "name": "status",
          "type": "uint8"
        },
        {
          "internalType": "uint64",
          "name": "targetErrorRate",
          "type": "uint64"
        },
        {
          "internalType": "address",
          "name": "workerNode",
          "type": "address"
        }
      ],
      "stateMutability": "view",
      "type": "function",
      "constant": true
    },
    {
      "inputs": [],
      "name": "token",
      "outputs": [
        {
          "internalType": "contract IERC20",
          "name": "",
          "type": "address"
        }
      ],
      "stateMutability": "view",
      "type": "function",
      "constant": true
    },
    {
      "inputs": [
        {
          "internalType": "uint16",
          "name": "_estimatedTrainingTime",
          "type": "uint16"
        },
        {
          "internalType": "uint32",
          "name": "_trainingDatasetSize",
          "type": "uint32"
        },
        {
          "internalType": "uint64",
          "name": "_targetErrorRate",
          "type": "uint64"
        },
        {
          "internalType": "uint256",
          "name": "_minimumPayout",
          "type": "uint256"
        },
        {
          "internalType": "uint256",
          "name": "_biddingTimeSpan",
          "type": "uint256"
        },
        {
          "internalType": "uint256",
          "name": "_revealTimeSpan",
          "type": "uint256"
        },
        {
          "internalType": "uint256",
          "name": "_workerReward",
          "type": "uint256"
        }
      ],
      "name": "postJobDescription",
      "outputs": [],
      "stateMutability": "nonpayable",
      "type": "function"
    },
    {
      "inputs": [
        {
          "internalType": "address",
          "name": "_jobPoster",
          "type": "address"
        },
        {
          "internalType": "uint256",
          "name": "_id",
          "type": "uint256"
        },
        {
          "internalType": "string",
          "name": "_untrainedModelMagnetLink",
          "type": "string"
        },
        {
          "internalType": "string",
          "name": "_trainingDatasetMagnetLink",
          "type": "string"
        }
      ],
      "name": "shareUntrainedModelAndTrainingDataset",
      "outputs": [],
      "stateMutability": "nonpayable",
      "type": "function"
    },
    {
      "inputs": [
        {
          "internalType": "address",
          "name": "_jobPoster",
          "type": "address"
        },
        {
          "internalType": "uint256",
          "name": "_id",
          "type": "uint256"
        },
        {
          "internalType": "string",
          "name": "_trainedModelMagnetLink",
          "type": "string"
        },
        {
          "internalType": "uint64",
          "name": "_trainingErrorRate",
          "type": "uint64"
        }
      ],
      "name": "shareTrainedModel",
      "outputs": [],
      "stateMutability": "nonpayable",
      "type": "function"
    },
    {
      "inputs": [
        {
          "internalType": "address",
          "name": "_jobPoster",
          "type": "address"
        },
        {
          "internalType": "uint256",
          "name": "_id",
          "type": "uint256"
        }
      ],
      "name": "approveJob",
      "outputs": [],
      "stateMutability": "nonpayable",
      "type": "function"
    }
  ],
  "bytecode": "0x60806040523480156200001157600080fd5b5060405162002119380380620021198339818101604052810190620000379190620000ee565b81600260006101000a81548173ffffffffffffffffffffffffffffffffffffffff021916908373ffffffffffffffffffffffffffffffffffffffff160217905550806000806101000a81548173ffffffffffffffffffffffffffffffffffffffff021916908373ffffffffffffffffffffffffffffffffffffffff1602179055505050620001ab565b600081519050620000d18162000177565b92915050565b600081519050620000e88162000191565b92915050565b600080604083850312156200010257600080fd5b60006200011285828601620000d7565b92505060206200012585828601620000c0565b9150509250929050565b60006200013c8262000157565b9050919050565b600062000150826200012f565b9050919050565b600073ffffffffffffffffffffffffffffffffffffffff82169050919050565b62000182816200012f565b81146200018e57600080fd5b50565b6200019c8162000143565b8114620001a857600080fd5b50565b611f5e80620001bb6000396000f3fe608060405234801561001057600080fd5b50600436106100625760003560e01c80631748be7914610067578063195f93531461008357806356d204691461009f5780636f82f8fd146100bb578063f60a1f0a146100ee578063fc0c546a1461010a575b600080fd5b610081600480360381019061007c9190611519565b610128565b005b61009d60048036038101906100989190611486565b6105be565b005b6100b960048036038101906100b4919061144a565b610b28565b005b6100d560048036038101906100d0919061144a565b610f86565b6040516100e59493929190611a4d565b60405180910390f35b61010860048036038101906101039190611594565b611014565b005b610112611314565b60405161011f91906118e2565b60405180910390f35b600160008573ffffffffffffffffffffffffffffffffffffffff1673ffffffffffffffffffffffffffffffffffffffff168152602001908152602001600020838154811061019f577f4e487b7100000000000000000000000000000000000000000000000000000000600052603260045260246000fd5b906000526020600020906002020160010160099054906101000a900473ffffffffffffffffffffffffffffffffffffffff1673ffffffffffffffffffffffffffffffffffffffff163373ffffffffffffffffffffffffffffffffffffffff161461023e576040517f08c379a0000000000000000000000000000000000000000000000000000000008152600401610235906119d2565b60405180910390fd5b60016003811115610278577f4e487b7100000000000000000000000000000000000000000000000000000000600052602160045260246000fd5b600160008673ffffffffffffffffffffffffffffffffffffffff1673ffffffffffffffffffffffffffffffffffffffff16815260200190815260200160002084815481106102ef577f4e487b7100000000000000000000000000000000000000000000000000000000600052603260045260246000fd5b906000526020600020906002020160010160009054906101000a900460ff166003811115610346577f4e487b7100000000000000000000000000000000000000000000000000000000600052602160045260246000fd5b14610386576040517f08c379a000000000000000000000000000000000000000000000000000000000815260040161037d906119b2565b60405180910390fd5b8067ffffffffffffffff16600160008673ffffffffffffffffffffffffffffffffffffffff1673ffffffffffffffffffffffffffffffffffffffff1681526020019081526020016000208481548110610408577f4e487b7100000000000000000000000000000000000000000000000000000000600052603260045260246000fd5b906000526020600020906002020160010160019054906101000a900467ffffffffffffffff1667ffffffffffffffff161015610479576040517f08c379a000000000000000000000000000000000000000000000000000000000815260040161047090611a12565b60405180910390fd5b6002600160008673ffffffffffffffffffffffffffffffffffffffff1673ffffffffffffffffffffffffffffffffffffffff16815260200190815260200160002084815481106104f2577f4e487b7100000000000000000000000000000000000000000000000000000000600052603260045260246000fd5b906000526020600020906002020160010160006101000a81548160ff0219169083600381111561054b577f4e487b7100000000000000000000000000000000000000000000000000000000600052602160045260246000fd5b02179055503373ffffffffffffffffffffffffffffffffffffffff16838573ffffffffffffffffffffffffffffffffffffffff167faaf828f7dde1338d9e3ee468d7d88f2ceada426538eb385fd84dd573dd2c6ec185856040516105b0929190611942565b60405180910390a450505050565b600060038111156105f8577f4e487b7100000000000000000000000000000000000000000000000000000000600052602160045260246000fd5b600160003373ffffffffffffffffffffffffffffffffffffffff1673ffffffffffffffffffffffffffffffffffffffff168152602001908152602001600020848154811061066f577f4e487b7100000000000000000000000000000000000000000000000000000000600052603260045260246000fd5b906000526020600020906002020160010160009054906101000a900460ff1660038111156106c6577f4e487b7100000000000000000000000000000000000000000000000000000000600052602160045260246000fd5b14610706576040517f08c379a00000000000000000000000000000000000000000000000000000000081526004016106fd90611972565b60405180910390fd5b60018060003373ffffffffffffffffffffffffffffffffffffffff1673ffffffffffffffffffffffffffffffffffffffff168152602001908152602001600020848154811061077e577f4e487b7100000000000000000000000000000000000000000000000000000000600052603260045260246000fd5b906000526020600020906002020160010160006101000a81548160ff021916908360038111156107d7577f4e487b7100000000000000000000000000000000000000000000000000000000600052602160045260246000fd5b021790555060008054906101000a900473ffffffffffffffffffffffffffffffffffffffff1673ffffffffffffffffffffffffffffffffffffffff166344f91c1e85856040518363ffffffff1660e01b8152600401610837929190611858565b6101006040518083038186803b15801561085057600080fd5b505afa158015610864573d6000803e3d6000fd5b505050506040513d601f19601f820116820180604052508101906108889190611632565b90919293949596509091929394955090919293945090919293509091925090915050600160003373ffffffffffffffffffffffffffffffffffffffff1673ffffffffffffffffffffffffffffffffffffffff1681526020019081526020016000208481548110610921577f4e487b7100000000000000000000000000000000000000000000000000000000600052603260045260246000fd5b906000526020600020906002020160010160098291906101000a81548173ffffffffffffffffffffffffffffffffffffffff021916908373ffffffffffffffffffffffffffffffffffffffff16021790555050600160003373ffffffffffffffffffffffffffffffffffffffff1673ffffffffffffffffffffffffffffffffffffffff16815260200190815260200160002083815481106109eb577f4e487b7100000000000000000000000000000000000000000000000000000000600052603260045260246000fd5b906000526020600020906002020160010160099054906101000a900473ffffffffffffffffffffffffffffffffffffffff1673ffffffffffffffffffffffffffffffffffffffff16833373ffffffffffffffffffffffffffffffffffffffff167f71383303ae11065bffb00fa0a58a1bb4595c8c794ebd6adfdcbc3ec56ebaaa958585600160003373ffffffffffffffffffffffffffffffffffffffff1673ffffffffffffffffffffffffffffffffffffffff1681526020019081526020016000208981548110610ae5577f4e487b7100000000000000000000000000000000000000000000000000000000600052603260045260246000fd5b906000526020600020906002020160010160019054906101000a900467ffffffffffffffff16604051610b1a939291906118fd565b60405180910390a450505050565b600160008373ffffffffffffffffffffffffffffffffffffffff1673ffffffffffffffffffffffffffffffffffffffff1681526020019081526020016000208181548110610b9f577f4e487b7100000000000000000000000000000000000000000000000000000000600052603260045260246000fd5b906000526020600020906002020160010160099054906101000a900473ffffffffffffffffffffffffffffffffffffffff1673ffffffffffffffffffffffffffffffffffffffff163373ffffffffffffffffffffffffffffffffffffffff161415610c3f576040517f08c379a0000000000000000000000000000000000000000000000000000000008152600401610c3690611992565b60405180910390fd5b60026003811115610c79577f4e487b7100000000000000000000000000000000000000000000000000000000600052602160045260246000fd5b600160008473ffffffffffffffffffffffffffffffffffffffff1673ffffffffffffffffffffffffffffffffffffffff1681526020019081526020016000208281548110610cf0577f4e487b7100000000000000000000000000000000000000000000000000000000600052603260045260246000fd5b906000526020600020906002020160010160009054906101000a900460ff166003811115610d47577f4e487b7100000000000000000000000000000000000000000000000000000000600052602160045260246000fd5b14610d87576040517f08c379a0000000000000000000000000000000000000000000000000000000008152600401610d7e906119f2565b60405180910390fd5b6003600160008473ffffffffffffffffffffffffffffffffffffffff1673ffffffffffffffffffffffffffffffffffffffff1681526020019081526020016000208281548110610e00577f4e487b7100000000000000000000000000000000000000000000000000000000600052603260045260246000fd5b906000526020600020906002020160010160006101000a81548160ff02191690836003811115610e59577f4e487b7100000000000000000000000000000000000000000000000000000000600052602160045260246000fd5b02179055503373ffffffffffffffffffffffffffffffffffffffff16600160008473ffffffffffffffffffffffffffffffffffffffff1673ffffffffffffffffffffffffffffffffffffffff1681526020019081526020016000208281548110610eec577f4e487b7100000000000000000000000000000000000000000000000000000000600052603260045260246000fd5b906000526020600020906002020160010160099054906101000a900473ffffffffffffffffffffffffffffffffffffffff1673ffffffffffffffffffffffffffffffffffffffff168373ffffffffffffffffffffffffffffffffffffffff167f7db29e0396da5b39a551302945fd7af08157c05a952fd21e1a8063cd48b5cca284604051610f7a9190611a32565b60405180910390a45050565b60016020528160005260406000208181548110610fa257600080fd5b9060005260206000209060020201600091509150508060000154908060010160009054906101000a900460ff16908060010160019054906101000a900467ffffffffffffffff16908060010160099054906101000a900473ffffffffffffffffffffffffffffffffffffffff16905084565b6000600160003373ffffffffffffffffffffffffffffffffffffffff1673ffffffffffffffffffffffffffffffffffffffff16815260200190815260200160002080549050905060008054906101000a900473ffffffffffffffffffffffffffffffffffffffff1673ffffffffffffffffffffffffffffffffffffffff1663c56114c686868686336040518663ffffffff1660e01b81526004016110bc959493929190611a92565b600060405180830381600087803b1580156110d657600080fd5b505af11580156110ea573d6000803e3d6000fd5b50505050600160003373ffffffffffffffffffffffffffffffffffffffff1673ffffffffffffffffffffffffffffffffffffffff168152602001908152602001600020604051806080016040528083815260200160006003811115611178577f4e487b7100000000000000000000000000000000000000000000000000000000600052602160045260246000fd5b81526020018867ffffffffffffffff168152602001600073ffffffffffffffffffffffffffffffffffffffff1681525090806001815401808255809150506001900390600052602060002090600202016000909190919091506000820151816000015560208201518160010160006101000a81548160ff0219169083600381111561122c577f4e487b7100000000000000000000000000000000000000000000000000000000600052602160045260246000fd5b021790555060408201518160010160016101000a81548167ffffffffffffffff021916908367ffffffffffffffff16021790555060608201518160010160096101000a81548173ffffffffffffffffffffffffffffffffffffffff021916908373ffffffffffffffffffffffffffffffffffffffff16021790555050507fae09da6872dd859d565dfd4737e8bf864ac564cdc3d9b4ef1b20db7c2fa6868b338260008054906101000a900473ffffffffffffffffffffffffffffffffffffffff168b8b8760405161130296959493929190611881565b60405180910390a15050505050505050565b600260009054906101000a900473ffffffffffffffffffffffffffffffffffffffff1681565b600061134d61134884611b0a565b611ae5565b90508281526020810184848401111561136557600080fd5b611370848285611c1a565b509392505050565b60008135905061138781611e9e565b92915050565b60008151905061139c81611e9e565b92915050565b6000815190506113b181611eb5565b92915050565b600082601f8301126113c857600080fd5b81356113d884826020860161133a565b91505092915050565b6000813590506113f081611ecc565b92915050565b60008135905061140581611ee3565b92915050565b60008151905061141a81611ee3565b92915050565b60008135905061142f81611efa565b92915050565b60008135905061144481611f11565b92915050565b6000806040838503121561145d57600080fd5b600061146b85828601611378565b925050602061147c858286016113f6565b9150509250929050565b6000806000806080858703121561149c57600080fd5b60006114aa87828801611378565b94505060206114bb878288016113f6565b935050604085013567ffffffffffffffff8111156114d857600080fd5b6114e4878288016113b7565b925050606085013567ffffffffffffffff81111561150157600080fd5b61150d878288016113b7565b91505092959194509250565b6000806000806080858703121561152f57600080fd5b600061153d87828801611378565b945050602061154e878288016113f6565b935050604085013567ffffffffffffffff81111561156b57600080fd5b611577878288016113b7565b925050606061158887828801611435565b91505092959194509250565b600080600080600080600060e0888a0312156115af57600080fd5b60006115bd8a828b016113e1565b97505060206115ce8a828b01611420565b96505060406115df8a828b01611435565b95505060606115f08a828b016113f6565b94505060806116018a828b016113f6565b93505060a06116128a828b016113f6565b92505060c06116238a828b016113f6565b91505092959891949750929550565b600080600080600080600080610100898b03121561164f57600080fd5b600061165d8b828c0161140b565b985050602061166e8b828c0161140b565b975050604061167f8b828c0161140b565b96505060606116908b828c0161140b565b95505060806116a18b828c0161140b565b94505060a06116b28b828c0161140b565b93505060c06116c38b828c0161138d565b92505060e06116d48b828c016113a2565b9150509295985092959890939650565b6116ed81611b57565b82525050565b6116fc81611be4565b82525050565b61170b81611c08565b82525050565b600061171c82611b3b565b6117268185611b46565b9350611736818560208601611c29565b61173f81611ceb565b840191505092915050565b6000611757601783611b46565b915061176282611cfc565b602082019050919050565b600061177a602283611b46565b915061178582611d25565b604082019050919050565b600061179d603883611b46565b91506117a882611d74565b604082019050919050565b60006117c0602083611b46565b91506117cb82611dc3565b602082019050919050565b60006117e3602183611b46565b91506117ee82611dec565b604082019050919050565b6000611806603e83611b46565b915061181182611e3b565b604082019050919050565b61182581611b88565b82525050565b61183481611bb6565b82525050565b61184381611bc0565b82525050565b61185281611bd0565b82525050565b600060408201905061186d60008301856116e4565b61187a602083018461182b565b9392505050565b600060c08201905061189660008301896116e4565b6118a3602083018861182b565b6118b060408301876116e4565b6118bd606083018661181c565b6118ca608083018561183a565b6118d760a083018461182b565b979650505050505050565b60006020820190506118f760008301846116f3565b92915050565b600060608201905081810360008301526119178186611711565b9050818103602083015261192b8185611711565b905061193a6040830184611849565b949350505050565b6000604082019050818103600083015261195c8185611711565b905061196b6020830184611849565b9392505050565b6000602082019050818103600083015261198b8161174a565b9050919050565b600060208201905081810360008301526119ab8161176d565b9050919050565b600060208201905081810360008301526119cb81611790565b9050919050565b600060208201905081810360008301526119eb816117b3565b9050919050565b60006020820190508181036000830152611a0b816117d6565b9050919050565b60006020820190508181036000830152611a2b816117f9565b9050919050565b6000602082019050611a47600083018461182b565b92915050565b6000608082019050611a62600083018761182b565b611a6f6020830186611702565b611a7c6040830185611849565b611a8960608301846116e4565b95945050505050565b600060a082019050611aa7600083018861182b565b611ab4602083018761182b565b611ac1604083018661182b565b611ace606083018561182b565b611adb60808301846116e4565b9695505050505050565b6000611aef611b00565b9050611afb8282611c5c565b919050565b6000604051905090565b600067ffffffffffffffff821115611b2557611b24611cbc565b5b611b2e82611ceb565b9050602081019050919050565b600081519050919050565b600082825260208201905092915050565b6000611b6282611b96565b9050919050565b60008115159050919050565b6000819050611b8382611e8a565b919050565b600061ffff82169050919050565b600073ffffffffffffffffffffffffffffffffffffffff82169050919050565b6000819050919050565b600063ffffffff82169050919050565b600067ffffffffffffffff82169050919050565b6000611bef82611bf6565b9050919050565b6000611c0182611b96565b9050919050565b6000611c1382611b75565b9050919050565b82818337600083830152505050565b60005b83811015611c47578082015181840152602081019050611c2c565b83811115611c56576000848401525b50505050565b611c6582611ceb565b810181811067ffffffffffffffff82111715611c8457611c83611cbc565b5b80604052505050565b7f4e487b7100000000000000000000000000000000000000000000000000000000600052602160045260246000fd5b7f4e487b7100000000000000000000000000000000000000000000000000000000600052604160045260246000fd5b6000601f19601f8301169050919050565b7f4a6f6220686173206e6f74206265656e20706f73746564000000000000000000600082015250565b7f6d73672e73656e6465722063616e6e6f7420657175616c20776f726b65724e6f60008201527f6465000000000000000000000000000000000000000000000000000000000000602082015250565b7f556e747261696e6564206d6f64656c20616e6420747261696e696e672064617460008201527f6173657420686173206e6f74206265656e207368617265640000000000000000602082015250565b7f6d73672e73656e646572206d75737420657175616c20776f726b65724e6f6465600082015250565b7f547261696e6564206d6f64656c20686173206e6f74206265656e20736861726560008201527f6400000000000000000000000000000000000000000000000000000000000000602082015250565b7f7461726765744572726f7252617465206d75737420626520677265617465722060008201527f6f7220657175616c20746f205f747261696e696e674572726f72526174650000602082015250565b60048110611e9b57611e9a611c8d565b5b50565b611ea781611b57565b8114611eb257600080fd5b50565b611ebe81611b69565b8114611ec957600080fd5b50565b611ed581611b88565b8114611ee057600080fd5b50565b611eec81611bb6565b8114611ef757600080fd5b50565b611f0381611bc0565b8114611f0e57600080fd5b50565b611f1a81611bd0565b8114611f2557600080fd5b5056fea26469706673582212209d416c0560d2502590d2eb772bfc682be4a36cf308bbaaa9645e061541dfefad64736f6c63430008040033",
  "immutableReferences": {},
  "source": "// SPDX-License-Identifier: GPL-3.0\npragma solidity 0.8.4;\n\nimport './IERC20.sol';\nimport './VickreyAuction.sol';\n\n///@dev This implementation originally described the following scenario,\n///     for demonstration purposes:\n//\n///          `_jobPoster` --> `workerNode`\n///          `_jobPoster` <-- `workerNode`\n//\n///      It now has some notion of validator / `reviewerNodes`.\n\n///////////////////////////////////////////////////////////////////////////////\n// Notes for elsewhere\n\n/*\n    Early stopping    - Vickrey Auction, using the SimpleAuction contract?\n    Active monitoring - Micropayment channel?\n*/\n\n/* \n    `rewardSchedule` is currently thought to be either a:\n    - Continuous Reward (TBA: worker is rewarded essentially for descending the gradient)\n    - Variable Reward (Early Stopping; kind-of a Boolean pay-off structure: as workers will\n        only be rewarded if they have reached a threshold-level of accuracy)\n    - Fixed Interval Reward (Active Monitoring)\n    - Fixed Ratio Reward (for validators(?); as they will verify a certain number of models\n        over a period of time: even if the selection process for them is pseudo-random?)\n    ...encoded as a `string` or a series of `bytes`\n*/\n\n/* \n    Implement a form of a reputation score that basically updates how off \n    a given `endUser`'s estimation is of their workload's training time \n*/\n///////////////////////////////////////////////////////////////////////////////\n\ncontract JobFactory {\n\n    VickreyAuction vickreyAuction;\n\n    event JobDescriptionPosted(\n        address jobPoster,\n        uint id,\n        address auctionAddress,\n        uint16 estimatedTrainingTime,\n        uint32 trainingDatasetSize,\n        uint workerReward\n    );\n\n    event UntrainedModelAndTrainingDatasetShared(\n        address indexed jobPoster,\n        uint indexed id,\n        address indexed workerNode,\n        string untrainedModelMagnetLink,\n        string trainingDatasetMagnetLink,\n        uint64 targetErrorRate\n    );\n\n    event TrainedModelShared(\n        address indexed jobPoster,\n        uint indexed id,\n        address indexed workerNode,\n        string trainedModelMagnetLink,\n        uint64 trainingErrorRate\n    );\n\n    event JobApproved(\n        address indexed jobPoster,\n        uint id,\n        address indexed workerNode,\n        address indexed validatorNode\n    );\n\n    enum Status {\n        PostedJobDescription,\n        SharedUntrainedModelAndTrainingDataset,\n        SharedTrainedModel,\n        ApprovedJob\n    }\n\n    // TODO Struct packing\n    struct Job {\n        uint auctionId;\n        Status status;\n        uint64 targetErrorRate;\n        address workerNode;\n    }\n\n    mapping (address => Job[]) public jobs;\n\n    IERC20 public token;\n\n    constructor(\n        IERC20 _token,\n        address auctionAddress\n    ) {\n        token = _token;\n        vickreyAuction = VickreyAuction(auctionAddress);\n    }\n\n    /// @dev This is being called by `_jobPoster`\n    //\n    /// @notice `address(0)` is being passed to `Job` as a placeholder\n    function postJobDescription(\n        uint16 _estimatedTrainingTime,\n        uint32 _trainingDatasetSize,\n        uint64 _targetErrorRate,\n        uint _minimumPayout,\n        uint _biddingTimeSpan,\n        uint _revealTimeSpan,\n        uint _workerReward\n    ) public {\n        // TODO Possible cruft below\n        // FIXME\n        //uint jobId;\n        /* if (jobs[msg.sender].auctionId != 0) {\n            jobId = jobs[msg.sender].length - 1;\n        } else {\n            jobId = 0;\n        } */\n        uint jobId = jobs[msg.sender].length;\n        vickreyAuction.start(\n            _minimumPayout,\n            _biddingTimeSpan,\n            _revealTimeSpan,\n            _workerReward,\n            msg.sender);\n        jobs[msg.sender].push(Job(\n            jobId,\n            Status.PostedJobDescription,\n            _targetErrorRate,\n            address(0)));\n        emit JobDescriptionPosted(\n            msg.sender,\n            jobId,\n            address(vickreyAuction),\n            _estimatedTrainingTime,\n            _trainingDatasetSize,\n            _workerReward);\n    }\n\n    /// @dev This is being called by `_jobPoster`\n    //\n    /// @notice The untrained model and the training dataset have been encrypted\n    ///         with the `workerNode` public key and `_jobPoster` private key\n    function shareUntrainedModelAndTrainingDataset(\n        address _jobPoster,\n        uint _id,\n        string memory _untrainedModelMagnetLink,\n        string memory _trainingDatasetMagnetLink\n    ) public {\n        // FIXME require(vickreyAuction.ended(),'Auction has not ended');\n        require(jobs[msg.sender][_id].status == Status.PostedJobDescription,'Job has not been posted');\n        jobs[msg.sender][_id].status = Status.SharedUntrainedModelAndTrainingDataset;\n        // TODO Possible cruft below\n        //address x;\n        //(,,,,,,x,) = vickreyAuction.auctions(_jobPoster,_id);\n        //jobs[msg.sender][_id].workerNode = vickreyAuction.auctions(_jobPoster,_id).highestBidder;\n        //jobs[msg.sender][_id].workerNode = x;\n        (,,,,,,jobs[msg.sender][_id].workerNode,) = vickreyAuction.auctions(_jobPoster,_id);\n        emit UntrainedModelAndTrainingDatasetShared(\n            msg.sender,\n            _id,\n            jobs[msg.sender][_id].workerNode,\n            _untrainedModelMagnetLink,\n            _trainingDatasetMagnetLink,\n            jobs[msg.sender][_id].targetErrorRate\n        );\n    }\n\n    /// @dev This is being called by `workerNode`\n    //\n    /// @notice The trained model has been encrypted with the `_jobPoster`s\n    ///         public key and `workerNode` private key\n    function shareTrainedModel(\n        address _jobPoster,\n        uint _id,\n        string memory _trainedModelMagnetLink,\n        uint64 _trainingErrorRate\n    ) public {\n        require(msg.sender == jobs[_jobPoster][_id].workerNode,'msg.sender must equal workerNode');\n        require(jobs[_jobPoster][_id].status == Status.SharedUntrainedModelAndTrainingDataset,'Untrained model and training dataset has not been shared');\n        require(jobs[_jobPoster][_id].targetErrorRate >= _trainingErrorRate,'targetErrorRate must be greater or equal to _trainingErrorRate');\n        jobs[_jobPoster][_id].status = Status.SharedTrainedModel;\n        emit TrainedModelShared(\n            _jobPoster,\n            _id,\n            msg.sender,\n            _trainedModelMagnetLink,\n            _trainingErrorRate\n        );\n\n    }\n\n    /// @dev This is being called by a validator node\n    function approveJob(\n        address _jobPoster,\n        uint _id\n    ) public {\n        require(msg.sender != jobs[_jobPoster][_id].workerNode,'msg.sender cannot equal workerNode');\n        require(jobs[_jobPoster][_id].status == Status.SharedTrainedModel,'Trained model has not been shared');\n        jobs[_jobPoster][_id].status = Status.ApprovedJob;\n        // TODO Possible cruft below\n        // FIXME\n        //vickreyAuction.payout();\n        emit JobApproved(\n            _jobPoster,\n            _id,\n            jobs[_jobPoster][_id].workerNode,\n            msg.sender\n        );\n    }\n}\n",
  "sourcePath": "/home/wsladmin/Morphware/service/contracts/JobFactory.sol",
  "compiler": {
    "name": "solc",
    "version": "0.8.4+commit.c7e474f2.Emscripten.clang"
  },
  "schemaVersion": "3.4.1",
  "updatedAt": "2021-08-12T02:49:42.858Z",
  "networkType": "ethereum",
  "devdoc": {
    "kind": "dev",
    "methods": {
      "approveJob(address,uint256)": {
        "details": "This is being called by a validator node"
      }
    },
    "version": 1
  },
  "userdoc": {
    "kind": "user",
    "methods": {
      "postJobDescription(uint16,uint32,uint64,uint256,uint256,uint256,uint256)": {
        "notice": "`address(0)` is being passed to `Job` as a placeholder"
      },
      "shareTrainedModel(address,uint256,string,uint64)": {
        "notice": "The trained model has been encrypted with the `_jobPoster`s         public key and `workerNode` private key"
      },
      "shareUntrainedModelAndTrainingDataset(address,uint256,string,string)": {
        "notice": "The untrained model and the training dataset have been encrypted         with the `workerNode` public key and `_jobPoster` private key"
      }
    },
    "notice": "It now has some notion of validator / `reviewerNodes`.",
    "version": 1
  }
}