{
  "contractName": "JobFactory",
  "abi": [
    {
      "inputs": [
        {
          "internalType": "contract IERC20",
          "name": "_token",
          "type": "address"
        },
        {
          "internalType": "address",
          "name": "auctionAddress",
          "type": "address"
        }
      ],
      "stateMutability": "nonpayable",
      "type": "constructor"
    },
    {
      "anonymous": false,
      "inputs": [
        {
          "indexed": true,
          "internalType": "address",
          "name": "jobPoster",
          "type": "address"
        },
        {
          "indexed": true,
          "internalType": "uint256",
          "name": "id",
          "type": "uint256"
        },
        {
          "indexed": true,
          "internalType": "address",
          "name": "workerNode",
          "type": "address"
        }
      ],
      "name": "JobApproved",
      "type": "event"
    },
    {
      "anonymous": false,
      "inputs": [
        {
          "indexed": false,
          "internalType": "address",
          "name": "jobPoster",
          "type": "address"
        },
        {
          "indexed": false,
          "internalType": "uint256",
          "name": "id",
          "type": "uint256"
        },
        {
          "indexed": false,
          "internalType": "address",
          "name": "auctionAddress",
          "type": "address"
        },
        {
          "indexed": false,
          "internalType": "uint16",
          "name": "estimatedTrainingTime",
          "type": "uint16"
        },
        {
          "indexed": false,
          "internalType": "uint32",
          "name": "trainingDatasetSize",
          "type": "uint32"
        },
        {
          "indexed": false,
          "internalType": "uint256",
          "name": "workerReward",
          "type": "uint256"
        }
      ],
      "name": "JobDescriptionPosted",
      "type": "event"
    },
    {
      "anonymous": false,
      "inputs": [
        {
          "indexed": true,
          "internalType": "address",
          "name": "jobPoster",
          "type": "address"
        },
        {
          "indexed": true,
          "internalType": "uint256",
          "name": "id",
          "type": "uint256"
        },
        {
          "indexed": true,
          "internalType": "address",
          "name": "workerNode",
          "type": "address"
        },
        {
          "indexed": false,
          "internalType": "string",
          "name": "trainedModelMagnetLink",
          "type": "string"
        },
        {
          "indexed": false,
          "internalType": "uint64",
          "name": "trainingErrorRate",
          "type": "uint64"
        }
      ],
      "name": "TrainedModelShared",
      "type": "event"
    },
    {
      "anonymous": false,
      "inputs": [
        {
          "indexed": true,
          "internalType": "address",
          "name": "jobPoster",
          "type": "address"
        },
        {
          "indexed": true,
          "internalType": "uint256",
          "name": "id",
          "type": "uint256"
        },
        {
          "indexed": true,
          "internalType": "address",
          "name": "workerNode",
          "type": "address"
        },
        {
          "indexed": false,
          "internalType": "string",
          "name": "untrainedModelMagnetLink",
          "type": "string"
        },
        {
          "indexed": false,
          "internalType": "string",
          "name": "trainingDatasetMagnetLink",
          "type": "string"
        },
        {
          "indexed": false,
          "internalType": "uint64",
          "name": "targetErrorRate",
          "type": "uint64"
        }
      ],
      "name": "UntrainedModelAndTrainingDatasetShared",
      "type": "event"
    },
    {
      "inputs": [
        {
          "internalType": "address",
          "name": "",
          "type": "address"
        },
        {
          "internalType": "uint256",
          "name": "",
          "type": "uint256"
        }
      ],
      "name": "jobs",
      "outputs": [
        {
          "internalType": "uint256",
          "name": "auctionId",
          "type": "uint256"
        },
        {
          "internalType": "enum JobFactory.Status",
          "name": "status",
          "type": "uint8"
        },
        {
          "internalType": "uint64",
          "name": "targetErrorRate",
          "type": "uint64"
        },
        {
          "internalType": "address",
          "name": "workerNode",
          "type": "address"
        }
      ],
      "stateMutability": "view",
      "type": "function",
      "constant": true
    },
    {
      "inputs": [],
      "name": "token",
      "outputs": [
        {
          "internalType": "contract IERC20",
          "name": "",
          "type": "address"
        }
      ],
      "stateMutability": "view",
      "type": "function",
      "constant": true
    },
    {
      "inputs": [
        {
          "internalType": "uint16",
          "name": "_estimatedTrainingTime",
          "type": "uint16"
        },
        {
          "internalType": "uint32",
          "name": "_trainingDatasetSize",
          "type": "uint32"
        },
        {
          "internalType": "uint64",
          "name": "_targetErrorRate",
          "type": "uint64"
        },
        {
          "internalType": "uint256",
          "name": "_minimumPayout",
          "type": "uint256"
        },
        {
          "internalType": "uint256",
          "name": "_biddingTimeSpan",
          "type": "uint256"
        },
        {
          "internalType": "uint256",
          "name": "_revealTimeSpan",
          "type": "uint256"
        },
        {
          "internalType": "uint256",
          "name": "_workerReward",
          "type": "uint256"
        }
      ],
      "name": "postJobDescription",
      "outputs": [],
      "stateMutability": "nonpayable",
      "type": "function"
    },
    {
      "inputs": [
        {
          "internalType": "address",
          "name": "_jobPoster",
          "type": "address"
        },
        {
          "internalType": "uint256",
          "name": "_id",
          "type": "uint256"
        },
        {
          "internalType": "string",
          "name": "_untrainedModelMagnetLink",
          "type": "string"
        },
        {
          "internalType": "string",
          "name": "_trainingDatasetMagnetLink",
          "type": "string"
        }
      ],
      "name": "shareUntrainedModelAndTrainingDataset",
      "outputs": [],
      "stateMutability": "nonpayable",
      "type": "function"
    },
    {
      "inputs": [
        {
          "internalType": "address",
          "name": "_jobPoster",
          "type": "address"
        },
        {
          "internalType": "uint256",
          "name": "_id",
          "type": "uint256"
        },
        {
          "internalType": "string",
          "name": "_trainedModelMagnetLink",
          "type": "string"
        },
        {
          "internalType": "uint64",
          "name": "_trainingErrorRate",
          "type": "uint64"
        }
      ],
      "name": "shareTrainedModel",
      "outputs": [],
      "stateMutability": "nonpayable",
      "type": "function"
    },
    {
      "inputs": [
        {
          "internalType": "address",
          "name": "_jobPoster",
          "type": "address"
        },
        {
          "internalType": "uint256",
          "name": "_id",
          "type": "uint256"
        }
      ],
      "name": "approveJob",
      "outputs": [],
      "stateMutability": "nonpayable",
      "type": "function"
    }
  ],
  "bytecode": "0x60806040523480156200001157600080fd5b5060405162001e7c38038062001e7c8339818101604052810190620000379190620000ee565b81600260006101000a81548173ffffffffffffffffffffffffffffffffffffffff021916908373ffffffffffffffffffffffffffffffffffffffff160217905550806000806101000a81548173ffffffffffffffffffffffffffffffffffffffff021916908373ffffffffffffffffffffffffffffffffffffffff1602179055505050620001ab565b600081519050620000d18162000177565b92915050565b600081519050620000e88162000191565b92915050565b600080604083850312156200010257600080fd5b60006200011285828601620000d7565b92505060206200012585828601620000c0565b9150509250929050565b60006200013c8262000157565b9050919050565b600062000150826200012f565b9050919050565b600073ffffffffffffffffffffffffffffffffffffffff82169050919050565b62000182816200012f565b81146200018e57600080fd5b50565b6200019c8162000143565b8114620001a857600080fd5b50565b611cc180620001bb6000396000f3fe608060405234801561001057600080fd5b50600436106100625760003560e01c80631748be7914610067578063195f93531461008357806356d204691461009f5780636f82f8fd146100bb578063f60a1f0a146100ee578063fc0c546a1461010a575b600080fd5b610081600480360381019061007c91906113e1565b610128565b005b61009d6004803603810190610098919061134e565b6105be565b005b6100b960048036038101906100b49190611312565b610b28565b005b6100d560048036038101906100d09190611312565b610e4e565b6040516100e59493929190611874565b60405180910390f35b6101086004803603810190610103919061145c565b610edc565b005b6101126111dc565b60405161011f9190611764565b60405180910390f35b600160008573ffffffffffffffffffffffffffffffffffffffff1673ffffffffffffffffffffffffffffffffffffffff168152602001908152602001600020838154811061019f577f4e487b7100000000000000000000000000000000000000000000000000000000600052603260045260246000fd5b906000526020600020906002020160010160099054906101000a900473ffffffffffffffffffffffffffffffffffffffff1673ffffffffffffffffffffffffffffffffffffffff163373ffffffffffffffffffffffffffffffffffffffff161461023e576040517f08c379a000000000000000000000000000000000000000000000000000000000815260040161023590611834565b60405180910390fd5b60006003811115610278577f4e487b7100000000000000000000000000000000000000000000000000000000600052602160045260246000fd5b600160008673ffffffffffffffffffffffffffffffffffffffff1673ffffffffffffffffffffffffffffffffffffffff16815260200190815260200160002084815481106102ef577f4e487b7100000000000000000000000000000000000000000000000000000000600052603260045260246000fd5b906000526020600020906002020160010160009054906101000a900460ff166003811115610346577f4e487b7100000000000000000000000000000000000000000000000000000000600052602160045260246000fd5b14610386576040517f08c379a000000000000000000000000000000000000000000000000000000000815260040161037d90611814565b60405180910390fd5b8067ffffffffffffffff16600160008673ffffffffffffffffffffffffffffffffffffffff1673ffffffffffffffffffffffffffffffffffffffff1681526020019081526020016000208481548110610408577f4e487b7100000000000000000000000000000000000000000000000000000000600052603260045260246000fd5b906000526020600020906002020160010160019054906101000a900467ffffffffffffffff1667ffffffffffffffff161015610479576040517f08c379a000000000000000000000000000000000000000000000000000000000815260040161047090611854565b60405180910390fd5b6002600160008673ffffffffffffffffffffffffffffffffffffffff1673ffffffffffffffffffffffffffffffffffffffff16815260200190815260200160002084815481106104f2577f4e487b7100000000000000000000000000000000000000000000000000000000600052603260045260246000fd5b906000526020600020906002020160010160006101000a81548160ff0219169083600381111561054b577f4e487b7100000000000000000000000000000000000000000000000000000000600052602160045260246000fd5b02179055503373ffffffffffffffffffffffffffffffffffffffff16838573ffffffffffffffffffffffffffffffffffffffff167faaf828f7dde1338d9e3ee468d7d88f2ceada426538eb385fd84dd573dd2c6ec185856040516105b09291906117c4565b60405180910390a450505050565b600060038111156105f8577f4e487b7100000000000000000000000000000000000000000000000000000000600052602160045260246000fd5b600160003373ffffffffffffffffffffffffffffffffffffffff1673ffffffffffffffffffffffffffffffffffffffff168152602001908152602001600020848154811061066f577f4e487b7100000000000000000000000000000000000000000000000000000000600052603260045260246000fd5b906000526020600020906002020160010160009054906101000a900460ff1660038111156106c6577f4e487b7100000000000000000000000000000000000000000000000000000000600052602160045260246000fd5b14610706576040517f08c379a00000000000000000000000000000000000000000000000000000000081526004016106fd906117f4565b60405180910390fd5b60018060003373ffffffffffffffffffffffffffffffffffffffff1673ffffffffffffffffffffffffffffffffffffffff168152602001908152602001600020848154811061077e577f4e487b7100000000000000000000000000000000000000000000000000000000600052603260045260246000fd5b906000526020600020906002020160010160006101000a81548160ff021916908360038111156107d7577f4e487b7100000000000000000000000000000000000000000000000000000000600052602160045260246000fd5b021790555060008054906101000a900473ffffffffffffffffffffffffffffffffffffffff1673ffffffffffffffffffffffffffffffffffffffff166344f91c1e85856040518363ffffffff1660e01b81526004016108379291906116da565b6101006040518083038186803b15801561085057600080fd5b505afa158015610864573d6000803e3d6000fd5b505050506040513d601f19601f8201168201806040525081019061088891906114fa565b90919293949596509091929394955090919293945090919293509091925090915050600160003373ffffffffffffffffffffffffffffffffffffffff1673ffffffffffffffffffffffffffffffffffffffff1681526020019081526020016000208481548110610921577f4e487b7100000000000000000000000000000000000000000000000000000000600052603260045260246000fd5b906000526020600020906002020160010160098291906101000a81548173ffffffffffffffffffffffffffffffffffffffff021916908373ffffffffffffffffffffffffffffffffffffffff16021790555050600160003373ffffffffffffffffffffffffffffffffffffffff1673ffffffffffffffffffffffffffffffffffffffff16815260200190815260200160002083815481106109eb577f4e487b7100000000000000000000000000000000000000000000000000000000600052603260045260246000fd5b906000526020600020906002020160010160099054906101000a900473ffffffffffffffffffffffffffffffffffffffff1673ffffffffffffffffffffffffffffffffffffffff16833373ffffffffffffffffffffffffffffffffffffffff167f71383303ae11065bffb00fa0a58a1bb4595c8c794ebd6adfdcbc3ec56ebaaa958585600160003373ffffffffffffffffffffffffffffffffffffffff1673ffffffffffffffffffffffffffffffffffffffff1681526020019081526020016000208981548110610ae5577f4e487b7100000000000000000000000000000000000000000000000000000000600052603260045260246000fd5b906000526020600020906002020160010160019054906101000a900467ffffffffffffffff16604051610b1a9392919061177f565b60405180910390a450505050565b60026003811115610b62577f4e487b7100000000000000000000000000000000000000000000000000000000600052602160045260246000fd5b600160008473ffffffffffffffffffffffffffffffffffffffff1673ffffffffffffffffffffffffffffffffffffffff1681526020019081526020016000208281548110610bd9577f4e487b7100000000000000000000000000000000000000000000000000000000600052603260045260246000fd5b906000526020600020906002020160010160009054906101000a900460ff166003811115610c30577f4e487b7100000000000000000000000000000000000000000000000000000000600052602160045260246000fd5b14610c70576040517f08c379a0000000000000000000000000000000000000000000000000000000008152600401610c6790611814565b60405180910390fd5b6003600160003373ffffffffffffffffffffffffffffffffffffffff1673ffffffffffffffffffffffffffffffffffffffff1681526020019081526020016000208281548110610ce9577f4e487b7100000000000000000000000000000000000000000000000000000000600052603260045260246000fd5b906000526020600020906002020160010160006101000a81548160ff02191690836003811115610d42577f4e487b7100000000000000000000000000000000000000000000000000000000600052602160045260246000fd5b0217905550600160008373ffffffffffffffffffffffffffffffffffffffff1673ffffffffffffffffffffffffffffffffffffffff1681526020019081526020016000208181548110610dbe577f4e487b7100000000000000000000000000000000000000000000000000000000600052603260045260246000fd5b906000526020600020906002020160010160099054906101000a900473ffffffffffffffffffffffffffffffffffffffff1673ffffffffffffffffffffffffffffffffffffffff16813373ffffffffffffffffffffffffffffffffffffffff167f80431d9ed72001506a2c2ea677fdfa4f506f938484c0c0c853c628ad49bcaa7560405160405180910390a45050565b60016020528160005260406000208181548110610e6a57600080fd5b9060005260206000209060020201600091509150508060000154908060010160009054906101000a900460ff16908060010160019054906101000a900467ffffffffffffffff16908060010160099054906101000a900473ffffffffffffffffffffffffffffffffffffffff16905084565b6000600160003373ffffffffffffffffffffffffffffffffffffffff1673ffffffffffffffffffffffffffffffffffffffff16815260200190815260200160002080549050905060008054906101000a900473ffffffffffffffffffffffffffffffffffffffff1673ffffffffffffffffffffffffffffffffffffffff1663c56114c686868686336040518663ffffffff1660e01b8152600401610f849594939291906118b9565b600060405180830381600087803b158015610f9e57600080fd5b505af1158015610fb2573d6000803e3d6000fd5b50505050600160003373ffffffffffffffffffffffffffffffffffffffff1673ffffffffffffffffffffffffffffffffffffffff168152602001908152602001600020604051806080016040528083815260200160006003811115611040577f4e487b7100000000000000000000000000000000000000000000000000000000600052602160045260246000fd5b81526020018867ffffffffffffffff168152602001600073ffffffffffffffffffffffffffffffffffffffff1681525090806001815401808255809150506001900390600052602060002090600202016000909190919091506000820151816000015560208201518160010160006101000a81548160ff021916908360038111156110f4577f4e487b7100000000000000000000000000000000000000000000000000000000600052602160045260246000fd5b021790555060408201518160010160016101000a81548167ffffffffffffffff021916908367ffffffffffffffff16021790555060608201518160010160096101000a81548173ffffffffffffffffffffffffffffffffffffffff021916908373ffffffffffffffffffffffffffffffffffffffff16021790555050507fae09da6872dd859d565dfd4737e8bf864ac564cdc3d9b4ef1b20db7c2fa6868b338260008054906101000a900473ffffffffffffffffffffffffffffffffffffffff168b8b876040516111ca96959493929190611703565b60405180910390a15050505050505050565b600260009054906101000a900473ffffffffffffffffffffffffffffffffffffffff1681565b600061121561121084611931565b61190c565b90508281526020810184848401111561122d57600080fd5b611238848285611a41565b509392505050565b60008135905061124f81611c01565b92915050565b60008151905061126481611c01565b92915050565b60008151905061127981611c18565b92915050565b600082601f83011261129057600080fd5b81356112a0848260208601611202565b91505092915050565b6000813590506112b881611c2f565b92915050565b6000813590506112cd81611c46565b92915050565b6000815190506112e281611c46565b92915050565b6000813590506112f781611c5d565b92915050565b60008135905061130c81611c74565b92915050565b6000806040838503121561132557600080fd5b600061133385828601611240565b9250506020611344858286016112be565b9150509250929050565b6000806000806080858703121561136457600080fd5b600061137287828801611240565b9450506020611383878288016112be565b935050604085013567ffffffffffffffff8111156113a057600080fd5b6113ac8782880161127f565b925050606085013567ffffffffffffffff8111156113c957600080fd5b6113d58782880161127f565b91505092959194509250565b600080600080608085870312156113f757600080fd5b600061140587828801611240565b9450506020611416878288016112be565b935050604085013567ffffffffffffffff81111561143357600080fd5b61143f8782880161127f565b9250506060611450878288016112fd565b91505092959194509250565b600080600080600080600060e0888a03121561147757600080fd5b60006114858a828b016112a9565b97505060206114968a828b016112e8565b96505060406114a78a828b016112fd565b95505060606114b88a828b016112be565b94505060806114c98a828b016112be565b93505060a06114da8a828b016112be565b92505060c06114eb8a828b016112be565b91505092959891949750929550565b600080600080600080600080610100898b03121561151757600080fd5b60006115258b828c016112d3565b98505060206115368b828c016112d3565b97505060406115478b828c016112d3565b96505060606115588b828c016112d3565b95505060806115698b828c016112d3565b94505060a061157a8b828c016112d3565b93505060c061158b8b828c01611255565b92505060e061159c8b828c0161126a565b9150509295985092959890939650565b6115b58161197e565b82525050565b6115c481611a0b565b82525050565b6115d381611a2f565b82525050565b60006115e482611962565b6115ee818561196d565b93506115fe818560208601611a50565b61160781611b12565b840191505092915050565b600061161f60178361196d565b915061162a82611b23565b602082019050919050565b600061164260188361196d565b915061164d82611b4c565b602082019050919050565b600061166560208361196d565b915061167082611b75565b602082019050919050565b6000611688603e8361196d565b915061169382611b9e565b604082019050919050565b6116a7816119af565b82525050565b6116b6816119dd565b82525050565b6116c5816119e7565b82525050565b6116d4816119f7565b82525050565b60006040820190506116ef60008301856115ac565b6116fc60208301846116ad565b9392505050565b600060c08201905061171860008301896115ac565b61172560208301886116ad565b61173260408301876115ac565b61173f606083018661169e565b61174c60808301856116bc565b61175960a08301846116ad565b979650505050505050565b600060208201905061177960008301846115bb565b92915050565b6000606082019050818103600083015261179981866115d9565b905081810360208301526117ad81856115d9565b90506117bc60408301846116cb565b949350505050565b600060408201905081810360008301526117de81856115d9565b90506117ed60208301846116cb565b9392505050565b6000602082019050818103600083015261180d81611612565b9050919050565b6000602082019050818103600083015261182d81611635565b9050919050565b6000602082019050818103600083015261184d81611658565b9050919050565b6000602082019050818103600083015261186d8161167b565b9050919050565b600060808201905061188960008301876116ad565b61189660208301866115ca565b6118a360408301856116cb565b6118b060608301846115ac565b95945050505050565b600060a0820190506118ce60008301886116ad565b6118db60208301876116ad565b6118e860408301866116ad565b6118f560608301856116ad565b61190260808301846115ac565b9695505050505050565b6000611916611927565b90506119228282611a83565b919050565b6000604051905090565b600067ffffffffffffffff82111561194c5761194b611ae3565b5b61195582611b12565b9050602081019050919050565b600081519050919050565b600082825260208201905092915050565b6000611989826119bd565b9050919050565b60008115159050919050565b60008190506119aa82611bed565b919050565b600061ffff82169050919050565b600073ffffffffffffffffffffffffffffffffffffffff82169050919050565b6000819050919050565b600063ffffffff82169050919050565b600067ffffffffffffffff82169050919050565b6000611a1682611a1d565b9050919050565b6000611a28826119bd565b9050919050565b6000611a3a8261199c565b9050919050565b82818337600083830152505050565b60005b83811015611a6e578082015181840152602081019050611a53565b83811115611a7d576000848401525b50505050565b611a8c82611b12565b810181811067ffffffffffffffff82111715611aab57611aaa611ae3565b5b80604052505050565b7f4e487b7100000000000000000000000000000000000000000000000000000000600052602160045260246000fd5b7f4e487b7100000000000000000000000000000000000000000000000000000000600052604160045260246000fd5b6000601f19601f8301169050919050565b7f4a6f6220686173206e6f74206265656e20706f73746564000000000000000000600082015250565b7f4a6f6220686173206e6f74206265656e20737461727465640000000000000000600082015250565b7f6d73672e73656e646572206d75737420657175616c20776f726b65724e6f6465600082015250565b7f7461726765744572726f7252617465206d75737420626520677265617465722060008201527f6f7220657175616c20746f205f747261696e696e674572726f72526174650000602082015250565b60048110611bfe57611bfd611ab4565b5b50565b611c0a8161197e565b8114611c1557600080fd5b50565b611c2181611990565b8114611c2c57600080fd5b50565b611c38816119af565b8114611c4357600080fd5b50565b611c4f816119dd565b8114611c5a57600080fd5b50565b611c66816119e7565b8114611c7157600080fd5b50565b611c7d816119f7565b8114611c8857600080fd5b5056fea2646970667358221220bdaad3ca8e931dcd2ed70a8633be9a1e9bbd53c91c2ef235d457df560a95717f64736f6c63430008040033",
  "immutableReferences": {},
  "source": "// SPDX-License-Identifier: GPL-3.0\npragma solidity 0.8.4;\n\nimport './IERC20.sol';\nimport './VickreyAuction.sol';\n\n///@dev This implementation describes the following scenario,\n///     for demonstration purposes:\n//\n///          `_jobPoster` --> `workerNode`\n///          `_jobPoster` <-- `workerNode`\n//\n///      There are no `reviewerNodes`, in this use-case\n\n///////////////////////////////////////////////////////////////////////////////\n// Notes for elsewhere\n\n/*\n    Early stopping    - Vickrey Auction, using the SimpleAuction contract?\n    Active monitoring - Micropayment channel?\n*/\n\n/* \n    `rewardSchedule` is currently thought to be either a:\n    - Continuous Reward (TBA: worker is rewarded essentially for descending the gradient)\n    - Variable Reward (Early Stopping; kind-of a Boolean pay-off structure: as workers will\n        only be rewarded if they have reached a threshold-level of accuracy)\n    - Fixed Interval Reward (Active Monitoring)\n    - Fixed Ratio Reward (for validators(?); as they will verify a certain number of models\n        over a period of time: even if the selection process for them is pseudo-random?)\n    ...encoded as a `string` or a series of `bytes`\n*/\n\n/* \n    Implement a form of a reputation score that basically updates how off \n    a given `endUser`'s estimation is of their workload's training time \n*/\n///////////////////////////////////////////////////////////////////////////////\n\ncontract JobFactory {\n\n    VickreyAuction vickreyAuction;\n\n    event JobDescriptionPosted(\n        address jobPoster,\n        uint id,\n        address auctionAddress,\n        uint16 estimatedTrainingTime,\n        uint32 trainingDatasetSize,\n        uint workerReward\n    );\n\n    event UntrainedModelAndTrainingDatasetShared(\n        address indexed jobPoster,\n        uint indexed id,\n        address indexed workerNode,\n        string untrainedModelMagnetLink,\n        string trainingDatasetMagnetLink,\n        uint64 targetErrorRate\n    );\n\n    event TrainedModelShared(\n        address indexed jobPoster,\n        uint indexed id,\n        address indexed workerNode,\n        string trainedModelMagnetLink,\n        uint64 trainingErrorRate\n    );\n\n    event JobApproved(\n        address indexed jobPoster,\n        uint indexed id,\n        address indexed workerNode\n    );\n\n    enum Status {\n        PostedJobDescription,\n        SharedUntrainedModelAndTrainingDataset,\n        SharedTrainedModel,\n        ApprovedJob\n    }\n\n    // TODO Struct packing\n    struct Job {\n        uint auctionId;\n        Status status;\n        uint64 targetErrorRate;\n        address workerNode;\n    }\n\n    mapping (address => Job[]) public jobs;\n\n    IERC20 public token;\n\n    constructor(\n        IERC20 _token,\n        address auctionAddress\n    ) {\n        token = _token;\n        vickreyAuction = VickreyAuction(auctionAddress);\n    }\n\n    /// @dev This is being called by `_jobPoster`\n    //\n    /// @notice `address(0)` is being passed to `Job` as a placeholder\n    function postJobDescription(\n        uint16 _estimatedTrainingTime,\n        uint32 _trainingDatasetSize,\n        uint64 _targetErrorRate,\n        uint _minimumPayout,\n        uint _biddingTimeSpan,\n        uint _revealTimeSpan,\n        uint _workerReward\n    ) public {\n        // TODO Possible cruft below\n        // FIXME\n        //uint jobId;\n        /* if (jobs[msg.sender].auctionId != 0) {\n            jobId = jobs[msg.sender].length - 1;\n        } else {\n            jobId = 0;\n        } */\n        uint jobId = jobs[msg.sender].length;\n        vickreyAuction.start(\n            _minimumPayout,\n            _biddingTimeSpan,\n            _revealTimeSpan,\n            _workerReward,\n            msg.sender);\n        jobs[msg.sender].push(Job(\n            jobId,\n            Status.PostedJobDescription,\n            _targetErrorRate,\n            address(0)));\n        emit JobDescriptionPosted(\n            msg.sender,\n            jobId,\n            address(vickreyAuction),\n            _estimatedTrainingTime,\n            _trainingDatasetSize,\n            _workerReward);\n    }\n\n    /// @dev This is being called by `_jobPoster`\n    //\n    /// @notice The untrained model and the training dataset have been encrypted\n    ///         with the `workerNode` public key and `_jobPoster` private key\n    function shareUntrainedModelAndTrainingDataset(\n        address _jobPoster,\n        uint _id,\n        string memory _untrainedModelMagnetLink,\n        string memory _trainingDatasetMagnetLink\n    ) public {\n        // FIXME require(vickreyAuction.ended(),'Auction has not ended');\n        require(jobs[msg.sender][_id].status == Status.PostedJobDescription,'Job has not been posted');\n        jobs[msg.sender][_id].status = Status.SharedUntrainedModelAndTrainingDataset;\n        // TODO Possible cruft below\n        //address x;\n        //(,,,,,,x,) = vickreyAuction.auctions(_jobPoster,_id);\n        //jobs[msg.sender][_id].workerNode = vickreyAuction.auctions(_jobPoster,_id).highestBidder;\n        //jobs[msg.sender][_id].workerNode = x;\n        (,,,,,,jobs[msg.sender][_id].workerNode,) = vickreyAuction.auctions(_jobPoster,_id);\n        emit UntrainedModelAndTrainingDatasetShared(\n            msg.sender,\n            _id,\n            jobs[msg.sender][_id].workerNode,\n            _untrainedModelMagnetLink,\n            _trainingDatasetMagnetLink,\n            jobs[msg.sender][_id].targetErrorRate\n        );\n    }\n\n    /// @dev This is being called by `workerNode`\n    //\n    /// @notice The trained model has been encrypted with the `_jobPoster`s\n    ///         public key and `workerNode` private key\n    function shareTrainedModel(\n        address _jobPoster,\n        uint _id,\n        string memory _trainedModelMagnetLink,\n        uint64 _trainingErrorRate\n    ) public {\n        require(msg.sender == jobs[_jobPoster][_id].workerNode,'msg.sender must equal workerNode');\n        require(jobs[_jobPoster][_id].status == Status.PostedJobDescription,'Job has not been started');\n        require(jobs[_jobPoster][_id].targetErrorRate >= _trainingErrorRate,'targetErrorRate must be greater or equal to _trainingErrorRate');\n        jobs[_jobPoster][_id].status = Status.SharedTrainedModel;\n        emit TrainedModelShared(\n            _jobPoster,\n            _id,\n            msg.sender,\n            _trainedModelMagnetLink,\n            _trainingErrorRate\n        );\n\n    }\n\n    /// @dev This is being called by `_jobPoster`\n    function approveJob(\n        address _jobPoster,\n        uint _id\n    ) public {\n        require(jobs[_jobPoster][_id].status == Status.SharedTrainedModel,'Job has not been started');\n        jobs[msg.sender][_id].status = Status.ApprovedJob;\n        // TODO Possible cruft below\n        // FIXME\n        //vickreyAuction.payout();\n        emit JobApproved(\n            msg.sender,\n            _id,\n            jobs[_jobPoster][_id].workerNode\n        );\n    }\n}\n",
  "sourcePath": "/home/wsladmin/Morphware/service/contracts/JobFactory.sol",
  "compiler": {
    "name": "solc",
    "version": "0.8.4+commit.c7e474f2.Emscripten.clang"
  },
  "schemaVersion": "3.4.1",
  "updatedAt": "2021-07-09T18:09:34.500Z",
  "networkType": "ethereum",
  "devdoc": {
    "kind": "dev",
    "methods": {
      "approveJob(address,uint256)": {
        "details": "This is being called by `_jobPoster`"
      }
    },
    "version": 1
  },
  "userdoc": {
    "kind": "user",
    "methods": {
      "postJobDescription(uint16,uint32,uint64,uint256,uint256,uint256,uint256)": {
        "notice": "`address(0)` is being passed to `Job` as a placeholder"
      },
      "shareTrainedModel(address,uint256,string,uint64)": {
        "notice": "The trained model has been encrypted with the `_jobPoster`s         public key and `workerNode` private key"
      },
      "shareUntrainedModelAndTrainingDataset(address,uint256,string,string)": {
        "notice": "The untrained model and the training dataset have been encrypted         with the `workerNode` public key and `_jobPoster` private key"
      }
    },
    "notice": "There are no `reviewerNodes`, in this use-case",
    "version": 1
  }
}