{
  "contractName": "JobFactory",
  "abi": [
    {
      "inputs": [
        {
          "internalType": "contract IERC20",
          "name": "_token",
          "type": "address"
        },
        {
          "internalType": "address",
          "name": "auctionAddress",
          "type": "address"
        }
      ],
      "stateMutability": "nonpayable",
      "type": "constructor"
    },
    {
      "anonymous": false,
      "inputs": [
        {
          "indexed": true,
          "internalType": "address",
          "name": "jobPoster",
          "type": "address"
        },
        {
          "indexed": false,
          "internalType": "uint256",
          "name": "id",
          "type": "uint256"
        },
        {
          "indexed": true,
          "internalType": "address",
          "name": "workerNode",
          "type": "address"
        },
        {
          "indexed": true,
          "internalType": "address",
          "name": "validatorNode",
          "type": "address"
        },
        {
          "indexed": false,
          "internalType": "string",
          "name": "trainedModelMagnetLink",
          "type": "string"
        }
      ],
      "name": "JobApproved",
      "type": "event"
    },
    {
      "anonymous": false,
      "inputs": [
        {
          "indexed": false,
          "internalType": "address",
          "name": "jobPoster",
          "type": "address"
        },
        {
          "indexed": false,
          "internalType": "uint256",
          "name": "id",
          "type": "uint256"
        },
        {
          "indexed": false,
          "internalType": "address",
          "name": "auctionAddress",
          "type": "address"
        },
        {
          "indexed": false,
          "internalType": "uint16",
          "name": "estimatedTrainingTime",
          "type": "uint16"
        },
        {
          "indexed": false,
          "internalType": "uint32",
          "name": "trainingDatasetSize",
          "type": "uint32"
        },
        {
          "indexed": false,
          "internalType": "uint256",
          "name": "workerReward",
          "type": "uint256"
        }
      ],
      "name": "JobDescriptionPosted",
      "type": "event"
    },
    {
      "anonymous": false,
      "inputs": [
        {
          "indexed": true,
          "internalType": "address",
          "name": "jobPoster",
          "type": "address"
        },
        {
          "indexed": true,
          "internalType": "uint256",
          "name": "id",
          "type": "uint256"
        },
        {
          "indexed": true,
          "internalType": "address",
          "name": "workerNode",
          "type": "address"
        },
        {
          "indexed": false,
          "internalType": "string",
          "name": "trainedModelMagnetLink",
          "type": "string"
        },
        {
          "indexed": false,
          "internalType": "uint64",
          "name": "trainingErrorRate",
          "type": "uint64"
        }
      ],
      "name": "TrainedModelShared",
      "type": "event"
    },
    {
      "anonymous": false,
      "inputs": [
        {
          "indexed": true,
          "internalType": "address",
          "name": "jobPoster",
          "type": "address"
        },
        {
          "indexed": true,
          "internalType": "uint256",
          "name": "id",
          "type": "uint256"
        },
        {
          "indexed": true,
          "internalType": "address",
          "name": "workerNode",
          "type": "address"
        },
        {
          "indexed": false,
          "internalType": "string",
          "name": "untrainedModelMagnetLink",
          "type": "string"
        },
        {
          "indexed": false,
          "internalType": "string",
          "name": "trainingDatasetMagnetLink",
          "type": "string"
        },
        {
          "indexed": false,
          "internalType": "uint64",
          "name": "targetErrorRate",
          "type": "uint64"
        }
      ],
      "name": "UntrainedModelAndTrainingDatasetShared",
      "type": "event"
    },
    {
      "inputs": [
        {
          "internalType": "address",
          "name": "",
          "type": "address"
        },
        {
          "internalType": "uint256",
          "name": "",
          "type": "uint256"
        }
      ],
      "name": "jobs",
      "outputs": [
        {
          "internalType": "uint256",
          "name": "auctionId",
          "type": "uint256"
        },
        {
          "internalType": "enum JobFactory.Status",
          "name": "status",
          "type": "uint8"
        },
        {
          "internalType": "uint64",
          "name": "targetErrorRate",
          "type": "uint64"
        },
        {
          "internalType": "address",
          "name": "workerNode",
          "type": "address"
        }
      ],
      "stateMutability": "view",
      "type": "function",
      "constant": true
    },
    {
      "inputs": [],
      "name": "token",
      "outputs": [
        {
          "internalType": "contract IERC20",
          "name": "",
          "type": "address"
        }
      ],
      "stateMutability": "view",
      "type": "function",
      "constant": true
    },
    {
      "inputs": [
        {
          "internalType": "uint16",
          "name": "_estimatedTrainingTime",
          "type": "uint16"
        },
        {
          "internalType": "uint32",
          "name": "_trainingDatasetSize",
          "type": "uint32"
        },
        {
          "internalType": "uint64",
          "name": "_targetErrorRate",
          "type": "uint64"
        },
        {
          "internalType": "uint256",
          "name": "_minimumPayout",
          "type": "uint256"
        },
        {
          "internalType": "uint256",
          "name": "_biddingTimeSpan",
          "type": "uint256"
        },
        {
          "internalType": "uint256",
          "name": "_revealTimeSpan",
          "type": "uint256"
        },
        {
          "internalType": "uint256",
          "name": "_workerReward",
          "type": "uint256"
        }
      ],
      "name": "postJobDescription",
      "outputs": [],
      "stateMutability": "nonpayable",
      "type": "function"
    },
    {
      "inputs": [
        {
          "internalType": "address",
          "name": "_jobPoster",
          "type": "address"
        },
        {
          "internalType": "uint256",
          "name": "_id",
          "type": "uint256"
        },
        {
          "internalType": "string",
          "name": "_untrainedModelMagnetLink",
          "type": "string"
        },
        {
          "internalType": "string",
          "name": "_trainingDatasetMagnetLink",
          "type": "string"
        }
      ],
      "name": "shareUntrainedModelAndTrainingDataset",
      "outputs": [],
      "stateMutability": "nonpayable",
      "type": "function"
    },
    {
      "inputs": [
        {
          "internalType": "address",
          "name": "_jobPoster",
          "type": "address"
        },
        {
          "internalType": "uint256",
          "name": "_id",
          "type": "uint256"
        },
        {
          "internalType": "string",
          "name": "_trainedModelMagnetLink",
          "type": "string"
        },
        {
          "internalType": "uint64",
          "name": "_trainingErrorRate",
          "type": "uint64"
        }
      ],
      "name": "shareTrainedModel",
      "outputs": [],
      "stateMutability": "nonpayable",
      "type": "function"
    },
    {
      "inputs": [
        {
          "internalType": "address",
          "name": "_jobPoster",
          "type": "address"
        },
        {
          "internalType": "uint256",
          "name": "_id",
          "type": "uint256"
        },
        {
          "internalType": "string",
          "name": "_trainedModelMagnetLink",
          "type": "string"
        }
      ],
      "name": "approveJob",
      "outputs": [],
      "stateMutability": "nonpayable",
      "type": "function"
    }
  ],
  "bytecode": "0x60806040523480156200001157600080fd5b5060405162002198380380620021988339818101604052810190620000379190620000ee565b81600260006101000a81548173ffffffffffffffffffffffffffffffffffffffff021916908373ffffffffffffffffffffffffffffffffffffffff160217905550806000806101000a81548173ffffffffffffffffffffffffffffffffffffffff021916908373ffffffffffffffffffffffffffffffffffffffff1602179055505050620001ab565b600081519050620000d18162000177565b92915050565b600081519050620000e88162000191565b92915050565b600080604083850312156200010257600080fd5b60006200011285828601620000d7565b92505060206200012585828601620000c0565b9150509250929050565b60006200013c8262000157565b9050919050565b600062000150826200012f565b9050919050565b600073ffffffffffffffffffffffffffffffffffffffff82169050919050565b62000182816200012f565b81146200018e57600080fd5b50565b6200019c8162000143565b8114620001a857600080fd5b50565b611fdd80620001bb6000396000f3fe608060405234801561001057600080fd5b50600436106100625760003560e01c80631748be7914610067578063195f9353146100835780636f82f8fd1461009f5780638a43db28146100d2578063f60a1f0a146100ee578063fc0c546a1461010a575b600080fd5b610081600480360381019061007c9190611583565b610128565b005b61009d600480360381019061009891906114f0565b6105be565b005b6100b960048036038101906100b4919061144d565b610b28565b6040516100c99493929190611a9c565b60405180910390f35b6100ec60048036038101906100e79190611489565b610bb6565b005b610108600480360381019061010391906115fe565b611017565b005b610112611317565b60405161011f919061194c565b60405180910390f35b600160008573ffffffffffffffffffffffffffffffffffffffff1673ffffffffffffffffffffffffffffffffffffffff168152602001908152602001600020838154811061019f577f4e487b7100000000000000000000000000000000000000000000000000000000600052603260045260246000fd5b906000526020600020906002020160010160099054906101000a900473ffffffffffffffffffffffffffffffffffffffff1673ffffffffffffffffffffffffffffffffffffffff163373ffffffffffffffffffffffffffffffffffffffff161461023e576040517f08c379a000000000000000000000000000000000000000000000000000000000815260040161023590611a3c565b60405180910390fd5b60016003811115610278577f4e487b7100000000000000000000000000000000000000000000000000000000600052602160045260246000fd5b600160008673ffffffffffffffffffffffffffffffffffffffff1673ffffffffffffffffffffffffffffffffffffffff16815260200190815260200160002084815481106102ef577f4e487b7100000000000000000000000000000000000000000000000000000000600052603260045260246000fd5b906000526020600020906002020160010160009054906101000a900460ff166003811115610346577f4e487b7100000000000000000000000000000000000000000000000000000000600052602160045260246000fd5b14610386576040517f08c379a000000000000000000000000000000000000000000000000000000000815260040161037d90611a1c565b60405180910390fd5b8067ffffffffffffffff16600160008673ffffffffffffffffffffffffffffffffffffffff1673ffffffffffffffffffffffffffffffffffffffff1681526020019081526020016000208481548110610408577f4e487b7100000000000000000000000000000000000000000000000000000000600052603260045260246000fd5b906000526020600020906002020160010160019054906101000a900467ffffffffffffffff1667ffffffffffffffff161015610479576040517f08c379a000000000000000000000000000000000000000000000000000000000815260040161047090611a7c565b60405180910390fd5b6002600160008673ffffffffffffffffffffffffffffffffffffffff1673ffffffffffffffffffffffffffffffffffffffff16815260200190815260200160002084815481106104f2577f4e487b7100000000000000000000000000000000000000000000000000000000600052603260045260246000fd5b906000526020600020906002020160010160006101000a81548160ff0219169083600381111561054b577f4e487b7100000000000000000000000000000000000000000000000000000000600052602160045260246000fd5b02179055503373ffffffffffffffffffffffffffffffffffffffff16838573ffffffffffffffffffffffffffffffffffffffff167faaf828f7dde1338d9e3ee468d7d88f2ceada426538eb385fd84dd573dd2c6ec185856040516105b09291906119ac565b60405180910390a450505050565b600060038111156105f8577f4e487b7100000000000000000000000000000000000000000000000000000000600052602160045260246000fd5b600160003373ffffffffffffffffffffffffffffffffffffffff1673ffffffffffffffffffffffffffffffffffffffff168152602001908152602001600020848154811061066f577f4e487b7100000000000000000000000000000000000000000000000000000000600052603260045260246000fd5b906000526020600020906002020160010160009054906101000a900460ff1660038111156106c6577f4e487b7100000000000000000000000000000000000000000000000000000000600052602160045260246000fd5b14610706576040517f08c379a00000000000000000000000000000000000000000000000000000000081526004016106fd906119dc565b60405180910390fd5b60018060003373ffffffffffffffffffffffffffffffffffffffff1673ffffffffffffffffffffffffffffffffffffffff168152602001908152602001600020848154811061077e577f4e487b7100000000000000000000000000000000000000000000000000000000600052603260045260246000fd5b906000526020600020906002020160010160006101000a81548160ff021916908360038111156107d7577f4e487b7100000000000000000000000000000000000000000000000000000000600052602160045260246000fd5b021790555060008054906101000a900473ffffffffffffffffffffffffffffffffffffffff1673ffffffffffffffffffffffffffffffffffffffff166344f91c1e85856040518363ffffffff1660e01b81526004016108379291906118c2565b6101006040518083038186803b15801561085057600080fd5b505afa158015610864573d6000803e3d6000fd5b505050506040513d601f19601f82011682018060405250810190610888919061169c565b90919293949596509091929394955090919293945090919293509091925090915050600160003373ffffffffffffffffffffffffffffffffffffffff1673ffffffffffffffffffffffffffffffffffffffff1681526020019081526020016000208481548110610921577f4e487b7100000000000000000000000000000000000000000000000000000000600052603260045260246000fd5b906000526020600020906002020160010160098291906101000a81548173ffffffffffffffffffffffffffffffffffffffff021916908373ffffffffffffffffffffffffffffffffffffffff16021790555050600160003373ffffffffffffffffffffffffffffffffffffffff1673ffffffffffffffffffffffffffffffffffffffff16815260200190815260200160002083815481106109eb577f4e487b7100000000000000000000000000000000000000000000000000000000600052603260045260246000fd5b906000526020600020906002020160010160099054906101000a900473ffffffffffffffffffffffffffffffffffffffff1673ffffffffffffffffffffffffffffffffffffffff16833373ffffffffffffffffffffffffffffffffffffffff167f71383303ae11065bffb00fa0a58a1bb4595c8c794ebd6adfdcbc3ec56ebaaa958585600160003373ffffffffffffffffffffffffffffffffffffffff1673ffffffffffffffffffffffffffffffffffffffff1681526020019081526020016000208981548110610ae5577f4e487b7100000000000000000000000000000000000000000000000000000000600052603260045260246000fd5b906000526020600020906002020160010160019054906101000a900467ffffffffffffffff16604051610b1a93929190611967565b60405180910390a450505050565b60016020528160005260406000208181548110610b4457600080fd5b9060005260206000209060020201600091509150508060000154908060010160009054906101000a900460ff16908060010160019054906101000a900467ffffffffffffffff16908060010160099054906101000a900473ffffffffffffffffffffffffffffffffffffffff16905084565b600160008473ffffffffffffffffffffffffffffffffffffffff1673ffffffffffffffffffffffffffffffffffffffff1681526020019081526020016000208281548110610c2d577f4e487b7100000000000000000000000000000000000000000000000000000000600052603260045260246000fd5b906000526020600020906002020160010160099054906101000a900473ffffffffffffffffffffffffffffffffffffffff1673ffffffffffffffffffffffffffffffffffffffff163373ffffffffffffffffffffffffffffffffffffffff161415610ccd576040517f08c379a0000000000000000000000000000000000000000000000000000000008152600401610cc4906119fc565b60405180910390fd5b60026003811115610d07577f4e487b7100000000000000000000000000000000000000000000000000000000600052602160045260246000fd5b600160008573ffffffffffffffffffffffffffffffffffffffff1673ffffffffffffffffffffffffffffffffffffffff1681526020019081526020016000208381548110610d7e577f4e487b7100000000000000000000000000000000000000000000000000000000600052603260045260246000fd5b906000526020600020906002020160010160009054906101000a900460ff166003811115610dd5577f4e487b7100000000000000000000000000000000000000000000000000000000600052602160045260246000fd5b14610e15576040517f08c379a0000000000000000000000000000000000000000000000000000000008152600401610e0c90611a5c565b60405180910390fd5b6003600160008573ffffffffffffffffffffffffffffffffffffffff1673ffffffffffffffffffffffffffffffffffffffff1681526020019081526020016000208381548110610e8e577f4e487b7100000000000000000000000000000000000000000000000000000000600052603260045260246000fd5b906000526020600020906002020160010160006101000a81548160ff02191690836003811115610ee7577f4e487b7100000000000000000000000000000000000000000000000000000000600052602160045260246000fd5b02179055503373ffffffffffffffffffffffffffffffffffffffff16600160008573ffffffffffffffffffffffffffffffffffffffff1673ffffffffffffffffffffffffffffffffffffffff1681526020019081526020016000208381548110610f7a577f4e487b7100000000000000000000000000000000000000000000000000000000600052603260045260246000fd5b906000526020600020906002020160010160099054906101000a900473ffffffffffffffffffffffffffffffffffffffff1673ffffffffffffffffffffffffffffffffffffffff168473ffffffffffffffffffffffffffffffffffffffff167fb047e763a978c6500f8a2600035314657e72373fd94669f7e64a36d32f098e74858560405161100a929190611ae1565b60405180910390a4505050565b6000600160003373ffffffffffffffffffffffffffffffffffffffff1673ffffffffffffffffffffffffffffffffffffffff16815260200190815260200160002080549050905060008054906101000a900473ffffffffffffffffffffffffffffffffffffffff1673ffffffffffffffffffffffffffffffffffffffff1663c56114c686868686336040518663ffffffff1660e01b81526004016110bf959493929190611b11565b600060405180830381600087803b1580156110d957600080fd5b505af11580156110ed573d6000803e3d6000fd5b50505050600160003373ffffffffffffffffffffffffffffffffffffffff1673ffffffffffffffffffffffffffffffffffffffff16815260200190815260200160002060405180608001604052808381526020016000600381111561117b577f4e487b7100000000000000000000000000000000000000000000000000000000600052602160045260246000fd5b81526020018867ffffffffffffffff168152602001600073ffffffffffffffffffffffffffffffffffffffff1681525090806001815401808255809150506001900390600052602060002090600202016000909190919091506000820151816000015560208201518160010160006101000a81548160ff0219169083600381111561122f577f4e487b7100000000000000000000000000000000000000000000000000000000600052602160045260246000fd5b021790555060408201518160010160016101000a81548167ffffffffffffffff021916908367ffffffffffffffff16021790555060608201518160010160096101000a81548173ffffffffffffffffffffffffffffffffffffffff021916908373ffffffffffffffffffffffffffffffffffffffff16021790555050507fae09da6872dd859d565dfd4737e8bf864ac564cdc3d9b4ef1b20db7c2fa6868b338260008054906101000a900473ffffffffffffffffffffffffffffffffffffffff168b8b87604051611305969594939291906118eb565b60405180910390a15050505050505050565b600260009054906101000a900473ffffffffffffffffffffffffffffffffffffffff1681565b600061135061134b84611b89565b611b64565b90508281526020810184848401111561136857600080fd5b611373848285611c99565b509392505050565b60008135905061138a81611f1d565b92915050565b60008151905061139f81611f1d565b92915050565b6000815190506113b481611f34565b92915050565b600082601f8301126113cb57600080fd5b81356113db84826020860161133d565b91505092915050565b6000813590506113f381611f4b565b92915050565b60008135905061140881611f62565b92915050565b60008151905061141d81611f62565b92915050565b60008135905061143281611f79565b92915050565b60008135905061144781611f90565b92915050565b6000806040838503121561146057600080fd5b600061146e8582860161137b565b925050602061147f858286016113f9565b9150509250929050565b60008060006060848603121561149e57600080fd5b60006114ac8682870161137b565b93505060206114bd868287016113f9565b925050604084013567ffffffffffffffff8111156114da57600080fd5b6114e6868287016113ba565b9150509250925092565b6000806000806080858703121561150657600080fd5b60006115148782880161137b565b9450506020611525878288016113f9565b935050604085013567ffffffffffffffff81111561154257600080fd5b61154e878288016113ba565b925050606085013567ffffffffffffffff81111561156b57600080fd5b611577878288016113ba565b91505092959194509250565b6000806000806080858703121561159957600080fd5b60006115a78782880161137b565b94505060206115b8878288016113f9565b935050604085013567ffffffffffffffff8111156115d557600080fd5b6115e1878288016113ba565b92505060606115f287828801611438565b91505092959194509250565b600080600080600080600060e0888a03121561161957600080fd5b60006116278a828b016113e4565b97505060206116388a828b01611423565b96505060406116498a828b01611438565b955050606061165a8a828b016113f9565b945050608061166b8a828b016113f9565b93505060a061167c8a828b016113f9565b92505060c061168d8a828b016113f9565b91505092959891949750929550565b600080600080600080600080610100898b0312156116b957600080fd5b60006116c78b828c0161140e565b98505060206116d88b828c0161140e565b97505060406116e98b828c0161140e565b96505060606116fa8b828c0161140e565b955050608061170b8b828c0161140e565b94505060a061171c8b828c0161140e565b93505060c061172d8b828c01611390565b92505060e061173e8b828c016113a5565b9150509295985092959890939650565b61175781611bd6565b82525050565b61176681611c63565b82525050565b61177581611c87565b82525050565b600061178682611bba565b6117908185611bc5565b93506117a0818560208601611ca8565b6117a981611d6a565b840191505092915050565b60006117c1601783611bc5565b91506117cc82611d7b565b602082019050919050565b60006117e4602283611bc5565b91506117ef82611da4565b604082019050919050565b6000611807603883611bc5565b915061181282611df3565b604082019050919050565b600061182a602083611bc5565b915061183582611e42565b602082019050919050565b600061184d602183611bc5565b915061185882611e6b565b604082019050919050565b6000611870603e83611bc5565b915061187b82611eba565b604082019050919050565b61188f81611c07565b82525050565b61189e81611c35565b82525050565b6118ad81611c3f565b82525050565b6118bc81611c4f565b82525050565b60006040820190506118d7600083018561174e565b6118e46020830184611895565b9392505050565b600060c082019050611900600083018961174e565b61190d6020830188611895565b61191a604083018761174e565b6119276060830186611886565b61193460808301856118a4565b61194160a0830184611895565b979650505050505050565b6000602082019050611961600083018461175d565b92915050565b60006060820190508181036000830152611981818661177b565b90508181036020830152611995818561177b565b90506119a460408301846118b3565b949350505050565b600060408201905081810360008301526119c6818561177b565b90506119d560208301846118b3565b9392505050565b600060208201905081810360008301526119f5816117b4565b9050919050565b60006020820190508181036000830152611a15816117d7565b9050919050565b60006020820190508181036000830152611a35816117fa565b9050919050565b60006020820190508181036000830152611a558161181d565b9050919050565b60006020820190508181036000830152611a7581611840565b9050919050565b60006020820190508181036000830152611a9581611863565b9050919050565b6000608082019050611ab16000830187611895565b611abe602083018661176c565b611acb60408301856118b3565b611ad8606083018461174e565b95945050505050565b6000604082019050611af66000830185611895565b8181036020830152611b08818461177b565b90509392505050565b600060a082019050611b266000830188611895565b611b336020830187611895565b611b406040830186611895565b611b4d6060830185611895565b611b5a608083018461174e565b9695505050505050565b6000611b6e611b7f565b9050611b7a8282611cdb565b919050565b6000604051905090565b600067ffffffffffffffff821115611ba457611ba3611d3b565b5b611bad82611d6a565b9050602081019050919050565b600081519050919050565b600082825260208201905092915050565b6000611be182611c15565b9050919050565b60008115159050919050565b6000819050611c0282611f09565b919050565b600061ffff82169050919050565b600073ffffffffffffffffffffffffffffffffffffffff82169050919050565b6000819050919050565b600063ffffffff82169050919050565b600067ffffffffffffffff82169050919050565b6000611c6e82611c75565b9050919050565b6000611c8082611c15565b9050919050565b6000611c9282611bf4565b9050919050565b82818337600083830152505050565b60005b83811015611cc6578082015181840152602081019050611cab565b83811115611cd5576000848401525b50505050565b611ce482611d6a565b810181811067ffffffffffffffff82111715611d0357611d02611d3b565b5b80604052505050565b7f4e487b7100000000000000000000000000000000000000000000000000000000600052602160045260246000fd5b7f4e487b7100000000000000000000000000000000000000000000000000000000600052604160045260246000fd5b6000601f19601f8301169050919050565b7f4a6f6220686173206e6f74206265656e20706f73746564000000000000000000600082015250565b7f6d73672e73656e6465722063616e6e6f7420657175616c20776f726b65724e6f60008201527f6465000000000000000000000000000000000000000000000000000000000000602082015250565b7f556e747261696e6564206d6f64656c20616e6420747261696e696e672064617460008201527f6173657420686173206e6f74206265656e207368617265640000000000000000602082015250565b7f6d73672e73656e646572206d75737420657175616c20776f726b65724e6f6465600082015250565b7f547261696e6564206d6f64656c20686173206e6f74206265656e20736861726560008201527f6400000000000000000000000000000000000000000000000000000000000000602082015250565b7f7461726765744572726f7252617465206d75737420626520677265617465722060008201527f6f7220657175616c20746f205f747261696e696e674572726f72526174650000602082015250565b60048110611f1a57611f19611d0c565b5b50565b611f2681611bd6565b8114611f3157600080fd5b50565b611f3d81611be8565b8114611f4857600080fd5b50565b611f5481611c07565b8114611f5f57600080fd5b50565b611f6b81611c35565b8114611f7657600080fd5b50565b611f8281611c3f565b8114611f8d57600080fd5b50565b611f9981611c4f565b8114611fa457600080fd5b5056fea26469706673582212209726acf861c60f9fa6fd0e0c9b0d4532bdd3f227e5823d97d58c0dc556c1349764736f6c63430008040033",
  "immutableReferences": {},
  "source": "// SPDX-License-Identifier: GPL-3.0\npragma solidity 0.8.4;\n\nimport './IERC20.sol';\nimport './VickreyAuction.sol';\n\n///@dev This implementation originally described the following scenario,\n///     for demonstration purposes:\n//\n///          `_jobPoster` --> `workerNode`\n///          `_jobPoster` <-- `workerNode`\n//\n///      It now has some notion of validator / `reviewerNodes`.\n\n///////////////////////////////////////////////////////////////////////////////\n// Notes for elsewhere\n\n/*\n    Early stopping    - Vickrey Auction, using the SimpleAuction contract?\n    Active monitoring - Micropayment channel?\n*/\n\n/* \n    `rewardSchedule` is currently thought to be either a:\n    - Continuous Reward (TBA: worker is rewarded essentially for descending the gradient)\n    - Variable Reward (Early Stopping; kind-of a Boolean pay-off structure: as workers will\n        only be rewarded if they have reached a threshold-level of accuracy)\n    - Fixed Interval Reward (Active Monitoring)\n    - Fixed Ratio Reward (for validators(?); as they will verify a certain number of models\n        over a period of time: even if the selection process for them is pseudo-random?)\n    ...encoded as a `string` or a series of `bytes`\n*/\n\n/* \n    Implement a form of a reputation score that basically updates how off \n    a given `endUser`'s estimation is of their workload's training time \n*/\n///////////////////////////////////////////////////////////////////////////////\n\ncontract JobFactory {\n\n    VickreyAuction vickreyAuction;\n\n    event JobDescriptionPosted(\n        address jobPoster,\n        uint id,\n        address auctionAddress,\n        uint16 estimatedTrainingTime,\n        uint32 trainingDatasetSize,\n        uint workerReward\n    );\n\n    event UntrainedModelAndTrainingDatasetShared(\n        address indexed jobPoster,\n        uint indexed id,\n        address indexed workerNode,\n        string untrainedModelMagnetLink,\n        string trainingDatasetMagnetLink,\n        uint64 targetErrorRate\n    );\n\n    event TrainedModelShared(\n        address indexed jobPoster,\n        uint indexed id,\n        address indexed workerNode,\n        string trainedModelMagnetLink,\n        uint64 trainingErrorRate\n    );\n\n    event JobApproved(\n        address indexed jobPoster,\n        uint id,\n        address indexed workerNode,\n        address indexed validatorNode,\n        string trainedModelMagnetLink \n    );\n\n    enum Status {\n        PostedJobDescription,\n        SharedUntrainedModelAndTrainingDataset,\n        SharedTrainedModel,\n        ApprovedJob\n    }\n\n    // TODO Struct packing\n    struct Job {\n        uint auctionId;\n        Status status;\n        uint64 targetErrorRate;\n        address workerNode;\n    }\n\n    mapping (address => Job[]) public jobs;\n\n    IERC20 public token;\n\n    constructor(\n        IERC20 _token,\n        address auctionAddress\n    ) {\n        token = _token;\n        vickreyAuction = VickreyAuction(auctionAddress);\n    }\n\n    /// @dev This is being called by `_jobPoster`\n    //\n    /// @notice `address(0)` is being passed to `Job` as a placeholder\n    function postJobDescription(\n        uint16 _estimatedTrainingTime,\n        uint32 _trainingDatasetSize,\n        uint64 _targetErrorRate,\n        uint _minimumPayout,\n        uint _biddingTimeSpan,\n        uint _revealTimeSpan,\n        uint _workerReward\n    ) public {\n        // TODO Possible cruft below\n        // FIXME\n        //uint jobId;\n        /* if (jobs[msg.sender].auctionId != 0) {\n            jobId = jobs[msg.sender].length - 1;\n        } else {\n            jobId = 0;\n        } */\n        uint jobId = jobs[msg.sender].length;\n        vickreyAuction.start(\n            _minimumPayout,\n            _biddingTimeSpan,\n            _revealTimeSpan,\n            _workerReward,\n            msg.sender);\n        jobs[msg.sender].push(Job(\n            jobId,\n            Status.PostedJobDescription,\n            _targetErrorRate,\n            address(0)));\n        emit JobDescriptionPosted(\n            msg.sender,\n            jobId,\n            address(vickreyAuction),\n            _estimatedTrainingTime,\n            _trainingDatasetSize,\n            _workerReward);\n    }\n\n    /// @dev This is being called by `_jobPoster`\n    //\n    /// @notice The untrained model and the training dataset have been encrypted\n    ///         with the `workerNode` public key and `_jobPoster` private key\n    function shareUntrainedModelAndTrainingDataset(\n        address _jobPoster,\n        uint _id,\n        string memory _untrainedModelMagnetLink,\n        string memory _trainingDatasetMagnetLink\n    ) public {\n        // FIXME require(vickreyAuction.ended(),'Auction has not ended');\n        require(jobs[msg.sender][_id].status == Status.PostedJobDescription,'Job has not been posted');\n        jobs[msg.sender][_id].status = Status.SharedUntrainedModelAndTrainingDataset;\n        // TODO Possible cruft below\n        //address x;\n        //(,,,,,,x,) = vickreyAuction.auctions(_jobPoster,_id);\n        //jobs[msg.sender][_id].workerNode = vickreyAuction.auctions(_jobPoster,_id).highestBidder;\n        //jobs[msg.sender][_id].workerNode = x;\n        (,,,,,,jobs[msg.sender][_id].workerNode,) = vickreyAuction.auctions(_jobPoster,_id);\n        emit UntrainedModelAndTrainingDatasetShared(\n            msg.sender,\n            _id,\n            jobs[msg.sender][_id].workerNode,\n            _untrainedModelMagnetLink,\n            _trainingDatasetMagnetLink,\n            jobs[msg.sender][_id].targetErrorRate\n        );\n    }\n\n    /// @dev This is being called by `workerNode`\n    //\n    /// @notice The trained model has been encrypted with the `_jobPoster`s\n    ///         public key and `workerNode` private key\n    function shareTrainedModel(\n        address _jobPoster,\n        uint _id,\n        string memory _trainedModelMagnetLink,\n        uint64 _trainingErrorRate\n    ) public {\n        require(msg.sender == jobs[_jobPoster][_id].workerNode,'msg.sender must equal workerNode');\n        require(jobs[_jobPoster][_id].status == Status.SharedUntrainedModelAndTrainingDataset,'Untrained model and training dataset has not been shared');\n        require(jobs[_jobPoster][_id].targetErrorRate >= _trainingErrorRate,'targetErrorRate must be greater or equal to _trainingErrorRate');\n        jobs[_jobPoster][_id].status = Status.SharedTrainedModel;\n        emit TrainedModelShared(\n            _jobPoster,\n            _id,\n            msg.sender,\n            _trainedModelMagnetLink,\n            _trainingErrorRate\n        );\n\n    }\n\n    /// @dev This is being called by a validator node\n    function approveJob(\n        address _jobPoster,\n        uint _id,\n        string memory _trainedModelMagnetLink\n    ) public {\n        require(msg.sender != jobs[_jobPoster][_id].workerNode,'msg.sender cannot equal workerNode');\n        require(jobs[_jobPoster][_id].status == Status.SharedTrainedModel,'Trained model has not been shared');\n        jobs[_jobPoster][_id].status = Status.ApprovedJob;\n        // TODO Possible cruft below\n        // FIXME\n        //vickreyAuction.payout(_jobPoster,_id);\n        emit JobApproved(\n            _jobPoster,\n            _id,\n            jobs[_jobPoster][_id].workerNode,\n            msg.sender,\n            _trainedModelMagnetLink             \n        );\n    }\n}\n",
  "sourcePath": "/home/wsladmin/Morphware/service/contracts/JobFactory.sol",
  "compiler": {
    "name": "solc",
    "version": "0.8.4+commit.c7e474f2.Emscripten.clang"
  },
  "schemaVersion": "3.4.1",
  "updatedAt": "2021-08-16T16:49:40.132Z",
  "networkType": "ethereum",
  "devdoc": {
    "kind": "dev",
    "methods": {
      "approveJob(address,uint256,string)": {
        "details": "This is being called by a validator node"
      }
    },
    "version": 1
  },
  "userdoc": {
    "kind": "user",
    "methods": {
      "postJobDescription(uint16,uint32,uint64,uint256,uint256,uint256,uint256)": {
        "notice": "`address(0)` is being passed to `Job` as a placeholder"
      },
      "shareTrainedModel(address,uint256,string,uint64)": {
        "notice": "The trained model has been encrypted with the `_jobPoster`s         public key and `workerNode` private key"
      },
      "shareUntrainedModelAndTrainingDataset(address,uint256,string,string)": {
        "notice": "The untrained model and the training dataset have been encrypted         with the `workerNode` public key and `_jobPoster` private key"
      }
    },
    "notice": "It now has some notion of validator / `reviewerNodes`.",
    "version": 1
  }
}