{
  "contractName": "JobFactory",
  "abi": [
    {
      "inputs": [
        {
          "internalType": "contract IERC20",
          "name": "_token",
          "type": "address"
        },
        {
          "internalType": "address",
          "name": "auctionAddress",
          "type": "address"
        }
      ],
      "stateMutability": "nonpayable",
      "type": "constructor"
    },
    {
      "anonymous": false,
      "inputs": [
        {
          "indexed": true,
          "internalType": "address",
          "name": "jobPoster",
          "type": "address"
        },
        {
          "indexed": false,
          "internalType": "uint256",
          "name": "id",
          "type": "uint256"
        },
        {
          "indexed": true,
          "internalType": "address",
          "name": "workerNode",
          "type": "address"
        },
        {
          "indexed": true,
          "internalType": "address",
          "name": "validatorNode",
          "type": "address"
        },
        {
          "indexed": false,
          "internalType": "string",
          "name": "trainedModelMagnetLink",
          "type": "string"
        }
      ],
      "name": "JobApproved",
      "type": "event"
    },
    {
      "anonymous": false,
      "inputs": [
        {
          "indexed": false,
          "internalType": "address",
          "name": "jobPoster",
          "type": "address"
        },
        {
          "indexed": false,
          "internalType": "uint256",
          "name": "id",
          "type": "uint256"
        },
        {
          "indexed": false,
          "internalType": "address",
          "name": "auctionAddress",
          "type": "address"
        },
        {
          "indexed": false,
          "internalType": "uint16",
          "name": "estimatedTrainingTime",
          "type": "uint16"
        },
        {
          "indexed": false,
          "internalType": "uint32",
          "name": "trainingDatasetSize",
          "type": "uint32"
        },
        {
          "indexed": false,
          "internalType": "uint256",
          "name": "workerReward",
          "type": "uint256"
        }
      ],
      "name": "JobDescriptionPosted",
      "type": "event"
    },
    {
      "anonymous": false,
      "inputs": [
        {
          "indexed": true,
          "internalType": "address",
          "name": "jobPoster",
          "type": "address"
        },
        {
          "indexed": true,
          "internalType": "uint256",
          "name": "id",
          "type": "uint256"
        },
        {
          "indexed": false,
          "internalType": "string",
          "name": "trainedModelMagnetLink",
          "type": "string"
        },
        {
          "indexed": false,
          "internalType": "string",
          "name": "testingDatasetMagnetLink",
          "type": "string"
        },
        {
          "indexed": false,
          "internalType": "uint64",
          "name": "targetErrorRate",
          "type": "uint64"
        }
      ],
      "name": "TestingDatasetShared",
      "type": "event"
    },
    {
      "anonymous": false,
      "inputs": [
        {
          "indexed": true,
          "internalType": "address",
          "name": "jobPoster",
          "type": "address"
        },
        {
          "indexed": true,
          "internalType": "uint256",
          "name": "id",
          "type": "uint256"
        },
        {
          "indexed": true,
          "internalType": "address",
          "name": "workerNode",
          "type": "address"
        },
        {
          "indexed": false,
          "internalType": "string",
          "name": "trainedModelMagnetLink",
          "type": "string"
        },
        {
          "indexed": false,
          "internalType": "uint64",
          "name": "trainingErrorRate",
          "type": "uint64"
        }
      ],
      "name": "TrainedModelShared",
      "type": "event"
    },
    {
      "anonymous": false,
      "inputs": [
        {
          "indexed": true,
          "internalType": "address",
          "name": "jobPoster",
          "type": "address"
        },
        {
          "indexed": true,
          "internalType": "uint256",
          "name": "id",
          "type": "uint256"
        },
        {
          "indexed": true,
          "internalType": "address",
          "name": "workerNode",
          "type": "address"
        },
        {
          "indexed": false,
          "internalType": "string",
          "name": "untrainedModelMagnetLink",
          "type": "string"
        },
        {
          "indexed": false,
          "internalType": "string",
          "name": "trainingDatasetMagnetLink",
          "type": "string"
        },
        {
          "indexed": false,
          "internalType": "uint64",
          "name": "targetErrorRate",
          "type": "uint64"
        }
      ],
      "name": "UntrainedModelAndTrainingDatasetShared",
      "type": "event"
    },
    {
      "inputs": [
        {
          "internalType": "address",
          "name": "",
          "type": "address"
        },
        {
          "internalType": "uint256",
          "name": "",
          "type": "uint256"
        }
      ],
      "name": "jobs",
      "outputs": [
        {
          "internalType": "uint256",
          "name": "auctionId",
          "type": "uint256"
        },
        {
          "internalType": "enum JobFactory.Status",
          "name": "status",
          "type": "uint8"
        },
        {
          "internalType": "uint64",
          "name": "targetErrorRate",
          "type": "uint64"
        },
        {
          "internalType": "address",
          "name": "workerNode",
          "type": "address"
        }
      ],
      "stateMutability": "view",
      "type": "function",
      "constant": true
    },
    {
      "inputs": [],
      "name": "token",
      "outputs": [
        {
          "internalType": "contract IERC20",
          "name": "",
          "type": "address"
        }
      ],
      "stateMutability": "view",
      "type": "function",
      "constant": true
    },
    {
      "inputs": [
        {
          "internalType": "uint16",
          "name": "_estimatedTrainingTime",
          "type": "uint16"
        },
        {
          "internalType": "uint32",
          "name": "_trainingDatasetSize",
          "type": "uint32"
        },
        {
          "internalType": "uint64",
          "name": "_targetErrorRate",
          "type": "uint64"
        },
        {
          "internalType": "uint256",
          "name": "_minimumPayout",
          "type": "uint256"
        },
        {
          "internalType": "uint256",
          "name": "_biddingTimeSpan",
          "type": "uint256"
        },
        {
          "internalType": "uint256",
          "name": "_revealTimeSpan",
          "type": "uint256"
        },
        {
          "internalType": "uint256",
          "name": "_workerReward",
          "type": "uint256"
        }
      ],
      "name": "postJobDescription",
      "outputs": [],
      "stateMutability": "nonpayable",
      "type": "function"
    },
    {
      "inputs": [
        {
          "internalType": "uint256",
          "name": "_id",
          "type": "uint256"
        },
        {
          "internalType": "string",
          "name": "_untrainedModelMagnetLink",
          "type": "string"
        },
        {
          "internalType": "string",
          "name": "_trainingDatasetMagnetLink",
          "type": "string"
        }
      ],
      "name": "shareUntrainedModelAndTrainingDataset",
      "outputs": [],
      "stateMutability": "nonpayable",
      "type": "function"
    },
    {
      "inputs": [
        {
          "internalType": "address",
          "name": "_jobPoster",
          "type": "address"
        },
        {
          "internalType": "uint256",
          "name": "_id",
          "type": "uint256"
        },
        {
          "internalType": "string",
          "name": "_trainedModelMagnetLink",
          "type": "string"
        },
        {
          "internalType": "uint64",
          "name": "_trainingErrorRate",
          "type": "uint64"
        }
      ],
      "name": "shareTrainedModel",
      "outputs": [],
      "stateMutability": "nonpayable",
      "type": "function"
    },
    {
      "inputs": [
        {
          "internalType": "uint256",
          "name": "_id",
          "type": "uint256"
        },
        {
          "internalType": "string",
          "name": "_trainedModelMagnetLink",
          "type": "string"
        },
        {
          "internalType": "string",
          "name": "_testingDatasetMagnetLink",
          "type": "string"
        }
      ],
      "name": "shareTestingDataset",
      "outputs": [],
      "stateMutability": "nonpayable",
      "type": "function"
    },
    {
      "inputs": [
        {
          "internalType": "address",
          "name": "_jobPoster",
          "type": "address"
        },
        {
          "internalType": "uint256",
          "name": "_id",
          "type": "uint256"
        },
        {
          "internalType": "string",
          "name": "_trainedModelMagnetLink",
          "type": "string"
        }
      ],
      "name": "approveJob",
      "outputs": [],
      "stateMutability": "nonpayable",
      "type": "function"
    }
  ],
  "bytecode": "0x60806040523480156200001157600080fd5b506040516200255f3803806200255f8339818101604052810190620000379190620000ee565b81600260006101000a81548173ffffffffffffffffffffffffffffffffffffffff021916908373ffffffffffffffffffffffffffffffffffffffff160217905550806000806101000a81548173ffffffffffffffffffffffffffffffffffffffff021916908373ffffffffffffffffffffffffffffffffffffffff1602179055505050620001ab565b600081519050620000d18162000177565b92915050565b600081519050620000e88162000191565b92915050565b600080604083850312156200010257600080fd5b60006200011285828601620000d7565b92505060206200012585828601620000c0565b9150509250929050565b60006200013c8262000157565b9050919050565b600062000150826200012f565b9050919050565b600073ffffffffffffffffffffffffffffffffffffffff82169050919050565b62000182816200012f565b81146200018e57600080fd5b50565b6200019c8162000143565b8114620001a857600080fd5b50565b6123a480620001bb6000396000f3fe608060405234801561001057600080fd5b506004361061007d5760003560e01c80638a43db281161005b5780638a43db28146100ed578063f60a1f0a14610109578063fa2408e114610125578063fc0c546a146101415761007d565b80631748be79146100825780635d37961c1461009e5780636f82f8fd146100ba575b600080fd5b61009c60048036038101906100979190611839565b61015f565b005b6100b860048036038101906100b39190611952565b6105f5565b005b6100d460048036038101906100cf9190611796565b610908565b6040516100e49493929190611e14565b60405180910390f35b610107600480360381019061010291906117d2565b610996565b005b610123600480360381019061011e91906118b4565b610df7565b005b61013f600480360381019061013a9190611952565b6110f7565b005b610149611660565b6040516101569190611ca4565b60405180910390f35b600160008573ffffffffffffffffffffffffffffffffffffffff1673ffffffffffffffffffffffffffffffffffffffff16815260200190815260200160002083815481106101d6577f4e487b7100000000000000000000000000000000000000000000000000000000600052603260045260246000fd5b906000526020600020906002020160010160099054906101000a900473ffffffffffffffffffffffffffffffffffffffff1673ffffffffffffffffffffffffffffffffffffffff163373ffffffffffffffffffffffffffffffffffffffff1614610275576040517f08c379a000000000000000000000000000000000000000000000000000000000815260040161026c90611db4565b60405180910390fd5b600160048111156102af577f4e487b7100000000000000000000000000000000000000000000000000000000600052602160045260246000fd5b600160008673ffffffffffffffffffffffffffffffffffffffff1673ffffffffffffffffffffffffffffffffffffffff1681526020019081526020016000208481548110610326577f4e487b7100000000000000000000000000000000000000000000000000000000600052603260045260246000fd5b906000526020600020906002020160010160009054906101000a900460ff16600481111561037d577f4e487b7100000000000000000000000000000000000000000000000000000000600052602160045260246000fd5b146103bd576040517f08c379a00000000000000000000000000000000000000000000000000000000081526004016103b490611d74565b60405180910390fd5b8067ffffffffffffffff16600160008673ffffffffffffffffffffffffffffffffffffffff1673ffffffffffffffffffffffffffffffffffffffff168152602001908152602001600020848154811061043f577f4e487b7100000000000000000000000000000000000000000000000000000000600052603260045260246000fd5b906000526020600020906002020160010160019054906101000a900467ffffffffffffffff1667ffffffffffffffff1610156104b0576040517f08c379a00000000000000000000000000000000000000000000000000000000081526004016104a790611df4565b60405180910390fd5b6002600160008673ffffffffffffffffffffffffffffffffffffffff1673ffffffffffffffffffffffffffffffffffffffff1681526020019081526020016000208481548110610529577f4e487b7100000000000000000000000000000000000000000000000000000000600052603260045260246000fd5b906000526020600020906002020160010160006101000a81548160ff02191690836004811115610582577f4e487b7100000000000000000000000000000000000000000000000000000000600052602160045260246000fd5b02179055503373ffffffffffffffffffffffffffffffffffffffff16838573ffffffffffffffffffffffffffffffffffffffff167faaf828f7dde1338d9e3ee468d7d88f2ceada426538eb385fd84dd573dd2c6ec185856040516105e7929190611d04565b60405180910390a450505050565b6002600481111561062f577f4e487b7100000000000000000000000000000000000000000000000000000000600052602160045260246000fd5b600160003373ffffffffffffffffffffffffffffffffffffffff1673ffffffffffffffffffffffffffffffffffffffff16815260200190815260200160002084815481106106a6577f4e487b7100000000000000000000000000000000000000000000000000000000600052603260045260246000fd5b906000526020600020906002020160010160009054906101000a900460ff1660048111156106fd577f4e487b7100000000000000000000000000000000000000000000000000000000600052602160045260246000fd5b1461073d576040517f08c379a000000000000000000000000000000000000000000000000000000000815260040161073490611dd4565b60405180910390fd5b6003600160003373ffffffffffffffffffffffffffffffffffffffff1673ffffffffffffffffffffffffffffffffffffffff16815260200190815260200160002084815481106107b6577f4e487b7100000000000000000000000000000000000000000000000000000000600052603260045260246000fd5b906000526020600020906002020160010160006101000a81548160ff0219169083600481111561080f577f4e487b7100000000000000000000000000000000000000000000000000000000600052602160045260246000fd5b0217905550823373ffffffffffffffffffffffffffffffffffffffff167f93151f2dd0b4fa99f40896527a27081faf7a8096afef8133b65056fe82a60b598484600160003373ffffffffffffffffffffffffffffffffffffffff1673ffffffffffffffffffffffffffffffffffffffff16815260200190815260200160002088815481106108c6577f4e487b7100000000000000000000000000000000000000000000000000000000600052603260045260246000fd5b906000526020600020906002020160010160019054906101000a900467ffffffffffffffff166040516108fb93929190611cbf565b60405180910390a3505050565b6001602052816000526040600020818154811061092457600080fd5b9060005260206000209060020201600091509150508060000154908060010160009054906101000a900460ff16908060010160019054906101000a900467ffffffffffffffff16908060010160099054906101000a900473ffffffffffffffffffffffffffffffffffffffff16905084565b600160008473ffffffffffffffffffffffffffffffffffffffff1673ffffffffffffffffffffffffffffffffffffffff1681526020019081526020016000208281548110610a0d577f4e487b7100000000000000000000000000000000000000000000000000000000600052603260045260246000fd5b906000526020600020906002020160010160099054906101000a900473ffffffffffffffffffffffffffffffffffffffff1673ffffffffffffffffffffffffffffffffffffffff163373ffffffffffffffffffffffffffffffffffffffff161415610aad576040517f08c379a0000000000000000000000000000000000000000000000000000000008152600401610aa490611d54565b60405180910390fd5b60036004811115610ae7577f4e487b7100000000000000000000000000000000000000000000000000000000600052602160045260246000fd5b600160008573ffffffffffffffffffffffffffffffffffffffff1673ffffffffffffffffffffffffffffffffffffffff1681526020019081526020016000208381548110610b5e577f4e487b7100000000000000000000000000000000000000000000000000000000600052603260045260246000fd5b906000526020600020906002020160010160009054906101000a900460ff166004811115610bb5577f4e487b7100000000000000000000000000000000000000000000000000000000600052602160045260246000fd5b14610bf5576040517f08c379a0000000000000000000000000000000000000000000000000000000008152600401610bec90611d94565b60405180910390fd5b6004600160008573ffffffffffffffffffffffffffffffffffffffff1673ffffffffffffffffffffffffffffffffffffffff1681526020019081526020016000208381548110610c6e577f4e487b7100000000000000000000000000000000000000000000000000000000600052603260045260246000fd5b906000526020600020906002020160010160006101000a81548160ff02191690836004811115610cc7577f4e487b7100000000000000000000000000000000000000000000000000000000600052602160045260246000fd5b02179055503373ffffffffffffffffffffffffffffffffffffffff16600160008573ffffffffffffffffffffffffffffffffffffffff1673ffffffffffffffffffffffffffffffffffffffff1681526020019081526020016000208381548110610d5a577f4e487b7100000000000000000000000000000000000000000000000000000000600052603260045260246000fd5b906000526020600020906002020160010160099054906101000a900473ffffffffffffffffffffffffffffffffffffffff1673ffffffffffffffffffffffffffffffffffffffff168473ffffffffffffffffffffffffffffffffffffffff167fb047e763a978c6500f8a2600035314657e72373fd94669f7e64a36d32f098e748585604051610dea929190611e59565b60405180910390a4505050565b6000600160003373ffffffffffffffffffffffffffffffffffffffff1673ffffffffffffffffffffffffffffffffffffffff16815260200190815260200160002080549050905060008054906101000a900473ffffffffffffffffffffffffffffffffffffffff1673ffffffffffffffffffffffffffffffffffffffff1663c56114c686868686336040518663ffffffff1660e01b8152600401610e9f959493929190611e89565b600060405180830381600087803b158015610eb957600080fd5b505af1158015610ecd573d6000803e3d6000fd5b50505050600160003373ffffffffffffffffffffffffffffffffffffffff1673ffffffffffffffffffffffffffffffffffffffff168152602001908152602001600020604051806080016040528083815260200160006004811115610f5b577f4e487b7100000000000000000000000000000000000000000000000000000000600052602160045260246000fd5b81526020018867ffffffffffffffff168152602001600073ffffffffffffffffffffffffffffffffffffffff1681525090806001815401808255809150506001900390600052602060002090600202016000909190919091506000820151816000015560208201518160010160006101000a81548160ff0219169083600481111561100f577f4e487b7100000000000000000000000000000000000000000000000000000000600052602160045260246000fd5b021790555060408201518160010160016101000a81548167ffffffffffffffff021916908367ffffffffffffffff16021790555060608201518160010160096101000a81548173ffffffffffffffffffffffffffffffffffffffff021916908373ffffffffffffffffffffffffffffffffffffffff16021790555050507fae09da6872dd859d565dfd4737e8bf864ac564cdc3d9b4ef1b20db7c2fa6868b338260008054906101000a900473ffffffffffffffffffffffffffffffffffffffff168b8b876040516110e596959493929190611c43565b60405180910390a15050505050505050565b60006004811115611131577f4e487b7100000000000000000000000000000000000000000000000000000000600052602160045260246000fd5b600160003373ffffffffffffffffffffffffffffffffffffffff1673ffffffffffffffffffffffffffffffffffffffff16815260200190815260200160002084815481106111a8577f4e487b7100000000000000000000000000000000000000000000000000000000600052603260045260246000fd5b906000526020600020906002020160010160009054906101000a900460ff1660048111156111ff577f4e487b7100000000000000000000000000000000000000000000000000000000600052602160045260246000fd5b1461123f576040517f08c379a000000000000000000000000000000000000000000000000000000000815260040161123690611d34565b60405180910390fd5b60018060003373ffffffffffffffffffffffffffffffffffffffff1673ffffffffffffffffffffffffffffffffffffffff16815260200190815260200160002084815481106112b7577f4e487b7100000000000000000000000000000000000000000000000000000000600052603260045260246000fd5b906000526020600020906002020160010160006101000a81548160ff02191690836004811115611310577f4e487b7100000000000000000000000000000000000000000000000000000000600052602160045260246000fd5b021790555060008054906101000a900473ffffffffffffffffffffffffffffffffffffffff1673ffffffffffffffffffffffffffffffffffffffff166344f91c1e33856040518363ffffffff1660e01b8152600401611370929190611c1a565b6101006040518083038186803b15801561138957600080fd5b505afa15801561139d573d6000803e3d6000fd5b505050506040513d601f19601f820116820180604052508101906113c191906119d1565b90919293949596509091929394955090919293945090919293509091925090915050600160003373ffffffffffffffffffffffffffffffffffffffff1673ffffffffffffffffffffffffffffffffffffffff168152602001908152602001600020848154811061145a577f4e487b7100000000000000000000000000000000000000000000000000000000600052603260045260246000fd5b906000526020600020906002020160010160098291906101000a81548173ffffffffffffffffffffffffffffffffffffffff021916908373ffffffffffffffffffffffffffffffffffffffff16021790555050600160003373ffffffffffffffffffffffffffffffffffffffff1673ffffffffffffffffffffffffffffffffffffffff1681526020019081526020016000208381548110611524577f4e487b7100000000000000000000000000000000000000000000000000000000600052603260045260246000fd5b906000526020600020906002020160010160099054906101000a900473ffffffffffffffffffffffffffffffffffffffff1673ffffffffffffffffffffffffffffffffffffffff16833373ffffffffffffffffffffffffffffffffffffffff167f71383303ae11065bffb00fa0a58a1bb4595c8c794ebd6adfdcbc3ec56ebaaa958585600160003373ffffffffffffffffffffffffffffffffffffffff1673ffffffffffffffffffffffffffffffffffffffff168152602001908152602001600020898154811061161e577f4e487b7100000000000000000000000000000000000000000000000000000000600052603260045260246000fd5b906000526020600020906002020160010160019054906101000a900467ffffffffffffffff1660405161165393929190611cbf565b60405180910390a4505050565b600260009054906101000a900473ffffffffffffffffffffffffffffffffffffffff1681565b600061169961169484611f01565b611edc565b9050828152602081018484840111156116b157600080fd5b6116bc848285612011565b509392505050565b6000813590506116d3816122e4565b92915050565b6000815190506116e8816122e4565b92915050565b6000815190506116fd816122fb565b92915050565b600082601f83011261171457600080fd5b8135611724848260208601611686565b91505092915050565b60008135905061173c81612312565b92915050565b60008135905061175181612329565b92915050565b60008151905061176681612329565b92915050565b60008135905061177b81612340565b92915050565b60008135905061179081612357565b92915050565b600080604083850312156117a957600080fd5b60006117b7858286016116c4565b92505060206117c885828601611742565b9150509250929050565b6000806000606084860312156117e757600080fd5b60006117f5868287016116c4565b935050602061180686828701611742565b925050604084013567ffffffffffffffff81111561182357600080fd5b61182f86828701611703565b9150509250925092565b6000806000806080858703121561184f57600080fd5b600061185d878288016116c4565b945050602061186e87828801611742565b935050604085013567ffffffffffffffff81111561188b57600080fd5b61189787828801611703565b92505060606118a887828801611781565b91505092959194509250565b600080600080600080600060e0888a0312156118cf57600080fd5b60006118dd8a828b0161172d565b97505060206118ee8a828b0161176c565b96505060406118ff8a828b01611781565b95505060606119108a828b01611742565b94505060806119218a828b01611742565b93505060a06119328a828b01611742565b92505060c06119438a828b01611742565b91505092959891949750929550565b60008060006060848603121561196757600080fd5b600061197586828701611742565b935050602084013567ffffffffffffffff81111561199257600080fd5b61199e86828701611703565b925050604084013567ffffffffffffffff8111156119bb57600080fd5b6119c786828701611703565b9150509250925092565b600080600080600080600080610100898b0312156119ee57600080fd5b60006119fc8b828c01611757565b9850506020611a0d8b828c01611757565b9750506040611a1e8b828c01611757565b9650506060611a2f8b828c01611757565b9550506080611a408b828c01611757565b94505060a0611a518b828c01611757565b93505060c0611a628b828c016116d9565b92505060e0611a738b828c016116ee565b9150509295985092959890939650565b611a8c81611f4e565b82525050565b611a9b81611fdb565b82525050565b611aaa81611fff565b82525050565b6000611abb82611f32565b611ac58185611f3d565b9350611ad5818560208601612020565b611ade816120e2565b840191505092915050565b6000611af6601783611f3d565b9150611b01826120f3565b602082019050919050565b6000611b19602283611f3d565b9150611b248261211c565b604082019050919050565b6000611b3c603883611f3d565b9150611b478261216b565b604082019050919050565b6000611b5f602383611f3d565b9150611b6a826121ba565b604082019050919050565b6000611b82602083611f3d565b9150611b8d82612209565b602082019050919050565b6000611ba5602183611f3d565b9150611bb082612232565b604082019050919050565b6000611bc8603e83611f3d565b9150611bd382612281565b604082019050919050565b611be781611f7f565b82525050565b611bf681611fad565b82525050565b611c0581611fb7565b82525050565b611c1481611fc7565b82525050565b6000604082019050611c2f6000830185611a83565b611c3c6020830184611bed565b9392505050565b600060c082019050611c586000830189611a83565b611c656020830188611bed565b611c726040830187611a83565b611c7f6060830186611bde565b611c8c6080830185611bfc565b611c9960a0830184611bed565b979650505050505050565b6000602082019050611cb96000830184611a92565b92915050565b60006060820190508181036000830152611cd98186611ab0565b90508181036020830152611ced8185611ab0565b9050611cfc6040830184611c0b565b949350505050565b60006040820190508181036000830152611d1e8185611ab0565b9050611d2d6020830184611c0b565b9392505050565b60006020820190508181036000830152611d4d81611ae9565b9050919050565b60006020820190508181036000830152611d6d81611b0c565b9050919050565b60006020820190508181036000830152611d8d81611b2f565b9050919050565b60006020820190508181036000830152611dad81611b52565b9050919050565b60006020820190508181036000830152611dcd81611b75565b9050919050565b60006020820190508181036000830152611ded81611b98565b9050919050565b60006020820190508181036000830152611e0d81611bbb565b9050919050565b6000608082019050611e296000830187611bed565b611e366020830186611aa1565b611e436040830185611c0b565b611e506060830184611a83565b95945050505050565b6000604082019050611e6e6000830185611bed565b8181036020830152611e808184611ab0565b90509392505050565b600060a082019050611e9e6000830188611bed565b611eab6020830187611bed565b611eb86040830186611bed565b611ec56060830185611bed565b611ed26080830184611a83565b9695505050505050565b6000611ee6611ef7565b9050611ef28282612053565b919050565b6000604051905090565b600067ffffffffffffffff821115611f1c57611f1b6120b3565b5b611f25826120e2565b9050602081019050919050565b600081519050919050565b600082825260208201905092915050565b6000611f5982611f8d565b9050919050565b60008115159050919050565b6000819050611f7a826122d0565b919050565b600061ffff82169050919050565b600073ffffffffffffffffffffffffffffffffffffffff82169050919050565b6000819050919050565b600063ffffffff82169050919050565b600067ffffffffffffffff82169050919050565b6000611fe682611fed565b9050919050565b6000611ff882611f8d565b9050919050565b600061200a82611f6c565b9050919050565b82818337600083830152505050565b60005b8381101561203e578082015181840152602081019050612023565b8381111561204d576000848401525b50505050565b61205c826120e2565b810181811067ffffffffffffffff8211171561207b5761207a6120b3565b5b80604052505050565b7f4e487b7100000000000000000000000000000000000000000000000000000000600052602160045260246000fd5b7f4e487b7100000000000000000000000000000000000000000000000000000000600052604160045260246000fd5b6000601f19601f8301169050919050565b7f4a6f6220686173206e6f74206265656e20706f73746564000000000000000000600082015250565b7f6d73672e73656e6465722063616e6e6f7420657175616c20776f726b65724e6f60008201527f6465000000000000000000000000000000000000000000000000000000000000602082015250565b7f556e747261696e6564206d6f64656c20616e6420747261696e696e672064617460008201527f6173657420686173206e6f74206265656e207368617265640000000000000000602082015250565b7f54657374696e67206461746173657420686173206e6f74206265656e2073686160008201527f7265640000000000000000000000000000000000000000000000000000000000602082015250565b7f6d73672e73656e646572206d75737420657175616c20776f726b65724e6f6465600082015250565b7f547261696e6564206d6f64656c20686173206e6f74206265656e20736861726560008201527f6400000000000000000000000000000000000000000000000000000000000000602082015250565b7f7461726765744572726f7252617465206d75737420626520677265617465722060008201527f6f7220657175616c20746f205f747261696e696e674572726f72526174650000602082015250565b600581106122e1576122e0612084565b5b50565b6122ed81611f4e565b81146122f857600080fd5b50565b61230481611f60565b811461230f57600080fd5b50565b61231b81611f7f565b811461232657600080fd5b50565b61233281611fad565b811461233d57600080fd5b50565b61234981611fb7565b811461235457600080fd5b50565b61236081611fc7565b811461236b57600080fd5b5056fea2646970667358221220d16c27d3e802b5fea9eecbd2c72eec92bdf1479f5119a46c8d17d20ef01dbded64736f6c63430008040033",
  "immutableReferences": {},
  "source": "// SPDX-License-Identifier: GPL-3.0\npragma solidity 0.8.4;\n\nimport './IERC20.sol';\nimport './VickreyAuction.sol';\n\n///@dev This implementation originally described the following scenario,\n///     for demonstration purposes:\n//\n///          `_jobPoster` --> `workerNode`\n///          `_jobPoster` <-- `workerNode`\n//\n///      It now has some notion of validator / `reviewerNodes`.\n\n///////////////////////////////////////////////////////////////////////////////\n// Notes for elsewhere\n\n/*\n    Early stopping    - Vickrey Auction, using the SimpleAuction contract?\n    Active monitoring - Micropayment channel?\n*/\n\n/* \n    `rewardSchedule` is currently thought to be either a:\n    - Continuous Reward (TBA: worker is rewarded essentially for descending the gradient)\n    - Variable Reward (Early Stopping; kind-of a Boolean pay-off structure: as workers will\n        only be rewarded if they have reached a threshold-level of accuracy)\n    - Fixed Interval Reward (Active Monitoring)\n    - Fixed Ratio Reward (for validators(?); as they will verify a certain number of models\n        over a period of time: even if the selection process for them is pseudo-random?)\n    ...encoded as a `string` or a series of `bytes`\n*/\n\n/* \n    Implement a form of a reputation score that basically updates how off \n    a given `endUser`'s estimation is of their workload's training time \n*/\n///////////////////////////////////////////////////////////////////////////////\n\ncontract JobFactory {\n\n    VickreyAuction vickreyAuction;\n\n    event JobDescriptionPosted(\n        address jobPoster,\n        uint id,\n        address auctionAddress,\n        uint16 estimatedTrainingTime,\n        uint32 trainingDatasetSize,\n        uint workerReward\n    );\n\n    event UntrainedModelAndTrainingDatasetShared(\n        address indexed jobPoster,\n        uint indexed id,\n        address indexed workerNode,\n        string untrainedModelMagnetLink,\n        string trainingDatasetMagnetLink,\n        uint64 targetErrorRate\n    );\n\n    event TrainedModelShared(\n        address indexed jobPoster,\n        uint indexed id,\n        address indexed workerNode,\n        string trainedModelMagnetLink,\n        uint64 trainingErrorRate\n    );\n\n    event TestingDatasetShared(\n        address indexed jobPoster,\n        uint indexed id,\n        string trainedModelMagnetLink,\n        string testingDatasetMagnetLink,\n        uint64 targetErrorRate\n    );\n\n    event JobApproved(\n        address indexed jobPoster,\n        uint id,\n        address indexed workerNode,\n        address indexed validatorNode,\n        string trainedModelMagnetLink \n    );\n\n    enum Status {\n        PostedJobDescription,\n        SharedUntrainedModelAndTrainingDataset,\n        SharedTrainedModel,\n        SharedTestingDataset,\n        ApprovedJob\n    }\n\n    // TODO Struct packing\n    struct Job {\n        uint auctionId;\n        Status status;\n        uint64 targetErrorRate;\n        address workerNode;\n    }\n\n    mapping (address => Job[]) public jobs;\n\n    IERC20 public token;\n\n    constructor(\n        IERC20 _token,\n        address auctionAddress\n    ) {\n        token = _token;\n        vickreyAuction = VickreyAuction(auctionAddress);\n    }\n\n    /// @dev This is being called by `_jobPoster`\n    //\n    /// @notice `address(0)` is being passed to `Job` as a placeholder\n    function postJobDescription(\n        uint16 _estimatedTrainingTime,\n        uint32 _trainingDatasetSize,\n        uint64 _targetErrorRate,\n        uint _minimumPayout,\n        uint _biddingTimeSpan,\n        uint _revealTimeSpan,\n        uint _workerReward\n    ) public {\n        // TODO Possible cruft below\n        // FIXME\n        //uint jobId;\n        /* if (jobs[msg.sender].auctionId != 0) {\n            jobId = jobs[msg.sender].length - 1;\n        } else {\n            jobId = 0;\n        } */\n        uint jobId = jobs[msg.sender].length;\n        vickreyAuction.start(\n            _minimumPayout,\n            _biddingTimeSpan,\n            _revealTimeSpan,\n            _workerReward,\n            msg.sender);\n        jobs[msg.sender].push(Job(\n            jobId,\n            Status.PostedJobDescription,\n            _targetErrorRate,\n            address(0)));\n        emit JobDescriptionPosted(\n            msg.sender,\n            jobId,\n            address(vickreyAuction),\n            _estimatedTrainingTime,\n            _trainingDatasetSize,\n            _workerReward);\n    }\n\n    /// @dev This is being called by `_jobPoster`\n    //\n    /// @notice The untrained model and the training dataset have been encrypted\n    ///         with the `workerNode` public key and `_jobPoster` private key\n    function shareUntrainedModelAndTrainingDataset(\n        uint _id,\n        string memory _untrainedModelMagnetLink,\n        string memory _trainingDatasetMagnetLink\n    ) public {\n        // FIXME require(vickreyAuction.ended(),'Auction has not ended');\n        require(jobs[msg.sender][_id].status == Status.PostedJobDescription,'Job has not been posted');\n        jobs[msg.sender][_id].status = Status.SharedUntrainedModelAndTrainingDataset;\n        // TODO Possible cruft below\n        //address x;\n        //(,,,,,,x,) = vickreyAuction.auctions(_jobPoster,_id);\n        //jobs[msg.sender][_id].workerNode = vickreyAuction.auctions(_jobPoster,_id).highestBidder;\n        //jobs[msg.sender][_id].workerNode = x;\n        (,,,,,,jobs[msg.sender][_id].workerNode,) = vickreyAuction.auctions(msg.sender,_id);\n        emit UntrainedModelAndTrainingDatasetShared(\n            msg.sender,\n            _id,\n            jobs[msg.sender][_id].workerNode,\n            _untrainedModelMagnetLink,\n            _trainingDatasetMagnetLink,\n            jobs[msg.sender][_id].targetErrorRate\n        );\n    }\n\n    /// @dev This is being called by `workerNode`\n    //\n    /// TODO @notice The trained model has been encrypted with the `_jobPoster`s\n    ///         public key and `workerNode` private key\n    function shareTrainedModel(\n        address _jobPoster,\n        uint _id,\n        string memory _trainedModelMagnetLink,\n        uint64 _trainingErrorRate\n    ) public {\n        require(msg.sender == jobs[_jobPoster][_id].workerNode,'msg.sender must equal workerNode');\n        require(jobs[_jobPoster][_id].status == Status.SharedUntrainedModelAndTrainingDataset,'Untrained model and training dataset has not been shared');\n        require(jobs[_jobPoster][_id].targetErrorRate >= _trainingErrorRate,'targetErrorRate must be greater or equal to _trainingErrorRate');\n        jobs[_jobPoster][_id].status = Status.SharedTrainedModel;\n        emit TrainedModelShared(\n            _jobPoster,\n            _id,\n            msg.sender,\n            _trainedModelMagnetLink,\n            _trainingErrorRate\n        );\n    }\n\n    /// @dev This is being called by `_jobPoster`\n    //\n    /// TODO Have `../daemon` look-up the `trainedModelMagnetLink`\n    ///      in the logs instead of re-parameterizing it, below.\n    function shareTestingDataset(\n        uint _id,\n        string memory _trainedModelMagnetLink,\n        string memory _testingDatasetMagnetLink\n    ) public {\n        require(jobs[msg.sender][_id].status == Status.SharedTrainedModel,'Trained model has not been shared');\n        jobs[msg.sender][_id].status = Status.SharedTestingDataset;\n        emit TestingDatasetShared(\n            msg.sender,\n            _id,\n            _trainedModelMagnetLink,\n            _testingDatasetMagnetLink,\n            jobs[msg.sender][_id].targetErrorRate\n        );\n    }\n\n    /// @dev This is being called by a validator node\n    function approveJob(\n        address _jobPoster,\n        uint _id,\n        string memory _trainedModelMagnetLink\n    ) public {\n        require(msg.sender != jobs[_jobPoster][_id].workerNode,'msg.sender cannot equal workerNode');\n        require(jobs[_jobPoster][_id].status == Status.SharedTestingDataset,'Testing dataset has not been shared');\n        jobs[_jobPoster][_id].status = Status.ApprovedJob;\n        // TODO Possible cruft below\n        // FIXME\n        //vickreyAuction.payout(_jobPoster,_id);\n        emit JobApproved(\n            _jobPoster,\n            _id,\n            jobs[_jobPoster][_id].workerNode,\n            msg.sender,\n            _trainedModelMagnetLink             \n        );\n    }\n}\n",
  "sourcePath": "/home/wsladmin/Morphware/service/contracts/JobFactory.sol",
  "compiler": {
    "name": "solc",
    "version": "0.8.4+commit.c7e474f2.Emscripten.clang"
  },
  "schemaVersion": "3.4.1",
  "updatedAt": "2021-08-28T02:01:12.108Z",
  "networkType": "ethereum",
  "devdoc": {
    "kind": "dev",
    "methods": {
      "approveJob(address,uint256,string)": {
        "details": "This is being called by a validator node"
      }
    },
    "version": 1
  },
  "userdoc": {
    "kind": "user",
    "methods": {
      "postJobDescription(uint16,uint32,uint64,uint256,uint256,uint256,uint256)": {
        "notice": "`address(0)` is being passed to `Job` as a placeholder"
      },
      "shareTestingDataset(uint256,string,string)": {
        "notice": "TODO Have `../daemon` look-up the `trainedModelMagnetLink`      in the logs instead of re-parameterizing it, below."
      },
      "shareTrainedModel(address,uint256,string,uint64)": {
        "notice": "The trained model has been encrypted with the `_jobPoster`s         public key and `workerNode` private key"
      },
      "shareUntrainedModelAndTrainingDataset(uint256,string,string)": {
        "notice": "The untrained model and the training dataset have been encrypted         with the `workerNode` public key and `_jobPoster` private key"
      }
    },
    "notice": "It now has some notion of validator / `reviewerNodes`.",
    "version": 1
  }
}